:100000000C94BB000C94E3000C94E3000C940004EB
:100010000C9400040C9400040C94E3000C94E30092
:100020000C94E3000C94E3000C94E3000C94E300C4
:100030000C94E3000C94E3000C94E3000C94E300B4
:100040000C946B200C94E3000C9417230C9449231C
:100050000C94E3000C94E3000C94E3000C94E30094
:100060000C94E3000C94E300801DB01DE21D311ED2
:10007000611E931EE91E191F491F084AD73B3BCE3C
:10008000016E84BCBFFDC12F3D6C74319ABD568397
:100090003DDA3D00C77F11BED9E4BB4C3E916BAA4F
:1000A000AABE000000803F05A84CCDB2D44EB9389E
:1000B00036A9020C50B9918688083CA6AAAA2ABE85
:1000C000000000803F007C3C3E5E2B3D3F2F5B5D8F
:1000D0003B2C2A225C000000000800020100000303
:1000E00004070000000000000000010204081020C6
:1000F00040800102040810200102040810200404BA
:1001000004040404040402020202020203030303BF
:100110000303000000002300260029000000000067
:10012000250028002B0000000000240027002A00E2
:100130004E414E494E495459494E46CDCCCC3D0ACC
:10014000D7233C17B7D13877CC2B329595E6241FAF
:10015000B14F0A000020410000C84200401C462068
:10016000BCBE4CCA1B0E5AAEC59D74002701580870
:100170009D0B6F23320111241FBECFEFD8E0DEBFED
:10018000CDBF12E0A0E0B1E0E0E6FAE502C00590E4
:100190000D92A631B107D9F726E0A6E1B2E001C081
:1001A0001D92A832B207E1F711E0C4E7D1E004C024
:1001B0002297FE010E948F28CC36D107C9F70E94F2
:1001C00090010C94232D0C9400008F929F92AF927B
:1001D000BF92CF92DF92EF92FF920F931F93CF9334
:1001E000C82F4A015B01C901B8010E94F8256B01C3
:1001F0007C01C501B4010E94F825A60188E192E0C6
:100200000E94881F6C2F70E088E192E0CF911F91CF
:100210000F91FF90EF90DF90CF90BF90AF909F90A5
:100220008F900C942D201F93CF93DF93182FC8EE3F
:10023000D3E0812F0E94B721019721F02197C9F7C0
:1002400081E001C080E0DF91CF911F91089520E00F
:1002500047E068E080E492E00E94D30488E192E005
:100260000C94F61C88E192E00E94F81C80E492E075
:100270000C947A04CF93DF9380E8EFE5F2E0DF019E
:100280001D928A95E9F7C0E080E492E00E94910314
:100290000196D1F380E492E00E941D03AC2FB0E000
:1002A000A15ABD4F8C93CC2329F0843219F480934A
:1002B0005F02C0E080915F02843231F781E08C0FF1
:1002C000EC2FF0E0E15AFD4F90819A3011F0C82FE9
:1002D000DBCF90E0FC01E35AFD4F1082EC01259743
:1002E000FE01E15AFD4F20812A3269F640E150E0DB
:1002F00060E070E0855A9D4F0E94D42921E0822F52
:1003000090E08C179D073CF4FC01E15AFD4F808181
:1003100068272F5FF4CF6111B6CFDF91CF91089599
:10032000CF93DF93CDB7DEB7A6970FB6F894DEBFB5
:100330000FBECDBF88E192E00E94FA1C0E94E4202B
:1003400060E082E00E94482126E040E052EC61E05B
:1003500070E085E895E00E94B52261E08AE00E94A5
:10036000482126E040E052EC61E070E085E895E04D
:100370000E94B5226AE087E293E00E94B1068823DA
:1003800031F06EE071E085E895E00E94F62323E10C
:100390004BE151E067E273E0CE0101960E94CA078B
:1003A00040E855E260E070E080E492E00E940305DE
:1003B00067E271E080E492E00E94F62368E371E076
:1003C00080E492E00E94F62361E571E080E492E02F
:1003D0000E94F623912C82E090E00E941301882372
:1003E000B9F082E00E94B721892B91F06EE971E0AB
:1003F00085E895E00E94F0234AE050E0692D85E809
:1004000095E00E946424939483E0891508F4912C6C
:100410000E943A0180916202823509F095C06FE531
:1004200072E085E895E00E94F62363E871E08FE5CD
:1004300092E00E94142B63E871E080E090E00E945B
:10044000142B63E871E080E090E00E94142BBC0163
:1004500085E895E00E94F62363E871E080E090E093
:100460000E94142B8C0163E871E080E090E00E9410
:10047000142B7C01BC0185E895E00E94F62363E81B
:1004800071E080E090E00E94142B2C0163E871E0A1
:1004900080E090E00E94142B1C01BC0185E895E0EF
:1004A0000E94F62363E871E080E090E00E94142B44
:1004B00063E871E080E090E00E94142B3C0163E867
:1004C00071E080E090E00E94142B63E871E080E02E
:1004D00090E00E94142B63E871E080E090E00E94BD
:1004E000142B67E871E080E090E00E94142B6BE829
:1004F00071E080E090E00E94142BF701F081FCA3F2
:10050000F101F081FDA3C8010E94082B68A379A323
:100510008AA39BA3C2010E94082B6C8F7D8F8E8FB4
:100520009F8FC3010E94082B6EA3872E382E292E81
:100530006FE572E0CE0101960E94F62362E971E058
:1005400085E895E00E94F62321E08DA1873509F02A
:1005500020E041E0ECA1E33509F040E0BE01645E3B
:100560007F4FCE0180960E944C1C2C8D3D8D4E8D70
:100570005F8D68A179A18AA19BA1A12CB12C6501F5
:10058000860175010E94951A2B013C012C8D3D8D31
:100590004E8D5F8D68A179A18AA19BA12F923F9278
:1005A0008F92FEA1FF930E94B11BAB01BC0193018E
:1005B0008201892D0E94E5006FE572E085E895E0F3
:1005C0000E94F6230F900F900F900F9004CFCF93BF
:1005D000CFB7F8948091E202811127C0E8E0F1E002
:1005E0008491E4EFF0E09491E82FF0E0EE0FFF1F2C
:1005F000EA5DFE4FA591B4918C91892321F461E0CD
:100600008AE00E94812161E08AE00E9448218CB545
:1006100080618CBD8CB580648CBD61E08DE00E94F2
:10062000482161E08BE00E9448218091E2028F5FC7
:100630008093E202CFBFCF9108952091250330919E
:10064000260328173907B9F49091E3028091E40258
:10065000981789F0E091E302F0E0EB51FD4F8081C3
:100660002091E30230E02F5F3F4F2F733327209319
:10067000E30290E008958FEF9FEF08951F93CF93CB
:10068000DF93DC015C968D919C915D97009749F416
:1006900081E090E013969C938E93129780E090E017
:1006A0003BC05196ED91FC91529750962C915097EA
:1006B000322F30951FB75E964C915E9741FB77279E
:1006C00070F941FD6095F8944081772311F0422B39
:1006D00001C043234083EC012197F1F748E05081AA
:1006E00060FF02C0522B01C053235083EC012197BD
:1006F000F1F76695415099F78081772311F08323B4
:1007000001C0822B80831FBF5C968D919C915D9769
:100710000197F1F781E090E0DF91CF911F9108956B
:10072000089520912503309126032817390771F485
:100730009091E3028091E402981741F0E091E30286
:10074000F0E0EB51FD4F808190E008958FEF9FEF37
:10075000089520912503309126032817390771F455
:100760008091E4022091E30290E0805C9F4F821B25
:10077000910960E470E00E943828089580E090E0DC
:100780000895E0912503F0912603E817F90769F42D
:10079000A389B4899C918589809589238C93109233
:1007A00026031092250381E0089580E00895CF93F9
:1007B000DF93EC018A8D9B8D892BF1F080912503CD
:1007C000909126038C179D07B9F0009711F00E94B5
:1007D000C1038E8D8E7F8E8F1092E4021092E30201
:1007E000D0932603C0932503EB89FC8980819D89E2
:1007F000892B808381E001C080E0DF91CF91089553
:100800001F920F920FB60F9211242F933F934F9385
:100810005F936F937F938F939F93AF93BF93EF9368
:10082000FF93E0912503F0912603309709F451C01E
:10083000868DA685B785958581FF04C08C91892317
:1008400029F447C08C91892309F043C0A389B48956
:100850009C918589809589238C93868997890197B6
:10086000F1F7208D318DA685B785758558E040E07C
:10087000C9010197F1F7842F90E095958795482F4E
:100880006C91672309F04068515091F7868D81FD86
:1008900040958091E40290E001968F739927209112
:1008A000E302281749F0A091E402B0E0AB51BD4F3C
:1008B0004C938093E40203C0868D8160868F828D85
:1008C000938D0197F1F7A389B4898C919589892B30
:1008D0008C93FF91EF91BF91AF919F918F917F91F9
:1008E0006F915F914F913F912F910F900FBE0F909D
:1008F0001F9018952BEA31E0FC01318320830C9482
:10090000C1031F93CF93DF93EC01162F6E8D669575
:10091000617081E06827812F0E94812161E0812F31
:100920000E944821812F90E0FC01E651FF4FE491A5
:10093000E88BFC01E250FF4FE491F0E0EE0FFF1F67
:10094000E45EFE4F859194919A8B898BDF91CF91D4
:100950001F9108951F93CF93DF93EC01162F60E052
:10096000812F0E9448218E8D81FD04C061E0812F7E
:100970000E9481211C87812F90E0FC01E651FF4FEE
:10098000E491ED87FC01E250FF4FE491F0E0EE0FBF
:10099000FF1FEE5EFE4F859194919F878E87DF91BA
:1009A000CF911F910895FF920F931F93CF93DF93E1
:1009B000EC01F62E522F1B821A8208EE13E020E083
:1009C00030E00C831D832E833F838BEA91E0998373
:1009D00088831F8A1E8A198E188E1B8E1A8E1D8E72
:1009E0001C8E8E8D8E7F50FB81F98E8F642FCE01F1
:1009F0000E9481046F2DCE01DF91CF911F910F9145
:100A0000FF900C94AA04CF93DF93EC019A01AB0101
:100A10001B8E1A8E198E188E1F8A1E8A60E079E04E
:100A20008DE390E00E946E28C9012430310520F04A
:100A3000B9016350710902C061E070E07D8F6C8F75
:100A4000EC85E63108F068C0B901769567956431A8
:100A5000710518F06351710902C061E070E07F8B8D
:100A60006E8B069718F0C901059702C081E090E0EF
:100A7000998F888FC901880F991F820F931F9695B0
:100A80008795969587958D30910510F00C9702C04B
:100A900081E090E09B8F8A8F20916800E83050F0D1
:100AA00091E0EE3008F490E081E001C0880F9A9563
:100AB000EAF701C084E0822B809368002C852830FF
:100AC00038F02E3040F0263148F48CE690E008C033
:100AD0008DE690E005C08BE690E002C080E090E0FB
:100AE0009C8B8B8B283030F481E001C0880F2A95D5
:100AF000EAF70DC0822F90E02E3010F4089701C065
:100B00000E9791E001C0990F8A95EAF7892F8D8B96
:100B10008C8D9D8D0197F1F7CE01DF91CF910C94D3
:100B2000D703CF93DF931F92CDB7DEB76983DC0184
:100B3000ED91FC910280F381E02D41E050E0BE0197
:100B40006F5F7F4F09950F90DF91CF910895CF93FD
:100B5000DF93EC01898D9A8D009759F0FC01138287
:100B600012820E941E11E98DFA8D22813381232B7E
:100B700031F081E090E09B838A8380E090E0DF9118
:100B8000CF910895FC01818D928D009711F00C9406
:100B9000BE0E0895CF93DF931F92CDB7DEB741E02D
:100BA00050E0BE016F5F7F4F0E94CF0C019719F498
:100BB000898190E002C08FEF9FEF0F90DF91CF917E
:100BC0000895FC01818D928D009711F00C94CA0557
:100BD0008FEF9FEF08950F931F93CF93DF938C01B7
:100BE000FC01818D928D0097B9F00E94CA05EC013D
:100BF0008F3FFFEF9F0799F0F801818D928DFC01E7
:100C00004285538564857585415051096109710993
:100C10000E94220ECE0105C080E090E002C08FEF5E
:100C20009FEFDF91CF911F910F910895CF92DF92A7
:100C3000EF92FF920F931F93CF93DF93EC017B0111
:100C40006A011B821A8208EE13E020E030E00C8378
:100C50001D832E833F838BEB91E0998388838DE105
:100C600090E00E94AD289A8F898F009779F02DE14E
:100C7000F701DC0101900D922A95E1F74CE050E07C
:100C8000B601CE010C960E94382B188EDF91CF91C1
:100C90001F910F91FF90EF90DF90CF900895FC018E
:100CA0001382128248EE53E060E070E04483558383
:100CB000668377838BEB91E091838083128E118E14
:100CC00014860895DC015996ED91FC915A9730975E
:100CD00029F0628573858485958508956FEF7FEF90
:100CE000CB010895DC015996ED91FC915A9730970C
:100CF00029F06389748985899689089560E070E098
:100D0000CB010895CF92DF92EF92FF92CF93DF93C2
:100D1000EC01898D9A8D892BD9F0CE010E94720643
:100D20006B017C01CE010E946206A7019601261B81
:100D3000370B480B590BDA01C901811530E89307CD
:100D4000A105B10538F08FEF9FE7A0E0B0E002C049
:100D500080E090E0DF91CF91FF90EF90DF90CF9017
:100D600008950F931F93CF93DF93EC01462F61E01B
:100D70000E949509811102C080E01DC08E01045FB0
:100D80001F4F41E0BE01C8010E946516882359F03B
:100D9000B801CE018A960E947F0C91E0811101C0BA
:100DA00090E0892F08C040E0BE01C8010E9465168E
:100DB000882311F3EDCFDF91CF911F910F9108950B
:100DC000FC01DB0112968D919C9113979383828392
:100DD0008DEC91E09183808314968C911497848399
:100DE00015968C911597858316964D915D916D9111
:100DF0007C91199746835783608771871A964D9126
:100E00005D916D917C911D974287538764877587AB
:100E10001E964D915D916D917C91519746875787B4
:100E2000608B718B52968C915297828B53964D9119
:100E30005D916D917C915697438B548B658B768B2E
:100E400057964D915D916D917C915A97478B508F3C
:100E5000618F728F5B968D919C915C97948F838F3D
:100E600008954F925F926F927F928F929F92AF926E
:100E7000BF92CF92DF92EF92FF920F931F93CF9387
:100E8000DF93CDB7DEB7C754D1090FB6F894DEBFF4
:100E90000FBECDBF6C014A013901665D7F4F5E0117
:100EA0008EE1A80EB11CC5010E94E0061C821B82C7
:100EB0008DEC91E09A8389831E828401FE01319634
:100EC0007F015A2C4B2C6FE270E0C8010E942D2B41
:100ED0000097E9F1F80120812F3219F40F5F1F4FBD
:100EE000F2CF801B8D3008F08CE0A82EB12CA5012C
:100EF000B801CE01CB960E94382BEBE3F0E0EC0F6B
:100F0000FD1FEA0DFB1D1082C7010E94050F21E0A5
:100F1000AE01455C5F4F652D742DC7010E943910ED
:100F2000811109C0F601138212828DEC91E0918348
:100F30008083158216C00A0D1B1D852D942D0E94DD
:100F4000050FC2015E2C4F2CE92EF82EBCCF0819DC
:100F50001909F30111830083652D742DC6010E94C8
:100F6000E006C601C95BDF4F0FB6F894DEBF0FBEC7
:100F7000CDBFDF91CF911F910F91FF90EF90DF9048
:100F8000CF90BF90AF909F908F907F906F905F9029
:100F90004F9008959F92AF92BF92CF92DF92EF92BF
:100FA000FF920F931F93CF93DF93CDB7DEB7C95551
:100FB000D1090FB6F894DEBF0FBECDBF7C016B0127
:100FC0005A01922E9E01285A3F4FCE01CB960E9485
:100FD00031076A960EAD1FAD6A970A0D1B1DF80109
:100FE000808181110AC0BE01655C7F4FCE010196F0
:100FF0000E94E00647EC51E041C019A218A28DEC16
:1010000091E09F8F8E8F1BA221968FAD219781112A
:1010100004C0C7010E944F0637C08250823060F47E
:10102000B601665D7F4F292DA801CE014E960E9424
:101030003910811110C0EDCF292DA801BE01655CCA
:101040007F4FCE014E960E943910882311F3CE01B6
:10105000CB960E94050F892D867041F049A95AA9A7
:101060006BA97CA9CE014E960E94220EBE01625E43
:101070007F4FCE0101960E94E006A801BE016F5F7E
:101080007F4FC7010E941606C701C75ADF4F0FB630
:10109000F894DEBF0FBECDBFDF91CF911F910F91AE
:1010A000FF90EF90DF90CF90BF90AF909F9008950A
:1010B00010922C0310922D031092300310923203E1
:1010C00082E090E0A0E0B0E080933303909334039B
:1010D000A0933503B093360310924A031092540341
:1010E000109253038DEC91E090935203809351033F
:1010F0001092560308959FB7F8942091E1028091D1
:10110000DF02213019F48DBB9FBF08958FBF089572
:101110002091E102222399F03FB7F8942091E10257
:10112000213059F42DB32093DF024DB32091E0021A
:10113000209524232DBB3FBF02C03093DF028CBD1E
:101140009DBD08958EBD00000DB407FEFDCF8EB588
:1011500008958FEF0C94A20861E0FC0184810E9445
:10116000812180917003882339F01092700380915F
:10117000E10281110C947B080895CF93DF93EC0179
:1011800080917003811109C081E080937003809188
:101190007103909172030E94880860E08C81DF9156
:1011A000CF910C948121CF93DF93EC018E81882322
:1011B00089F08F8198859C012F5F3F4F38872F835F
:1011C0008230924018F40E94A908F3CFCE010E9409
:1011D000AC081E82DF91CF910895673028F026E198
:1011E000FC01258380E00895623081F030F46623AD
:1011F00059F06130B1F480E515C0643059F040F029
:10120000653079F482E50EC080E505C081E503C054
:1012100081E508C082E58093710381E080937203C9
:10122000089583E5809371031092720381E008951D
:101230000F931F93CF93DF93EB010E94B5208B0197
:101240000E94A9088F3F49F00E94B520601B710BD6
:101250006C177D07A8F380E001C081E0DF91CF919A
:101260001F910F910895CF92DF92FF920F931F93DA
:10127000CF93DF9300D000D0CDB7DEB76C01F62E50
:1012800029833A834B835C830E94D308C6010E9462
:10129000BD086CE271E0C6010E9418098F2D8064C0
:1012A0000E94A20808E110E05C814B813A8129810B
:1012B000DA01C901002E04C0B695A79597958795C8
:1012C0000A94D2F729833A834B835C830E94A20855
:1012D0000850110929813A814B815C81083F8FEFC9
:1012E000180731F7FF2029F0E8E0FE1621F08FEF14
:1012F00003C085E901C087E80E94A20810E00E94AF
:10130000A908F601828787FF04C01F3F11F01F5F05
:10131000F6CF0F900F900F900F90DF91CF911F910C
:101320000F91FF90DF90CF900895BF92CF92DF9200
:10133000EF92FF920F931F93CF93DF93EC01B62EA2
:101340001B8619861E821D824C830E94B5208B014C
:1013500061E08C810E94482161E08C810E948121A2
:101360000E94E70282E580937103109272038091DC
:101370007103909172030E9488082AE0F22E8FEF89
:101380000E94A208FA94D9F78091E10281110E948B
:101390007B08CE010E94BD0820E030E0A90160E09A
:1013A000CE010E943309F82E8A8781E0F81649F0B1
:1013B0000E94B520601B710B613D774068F381E0AE
:1013C0004BC02AEA31E040E050E068E0CE010E94E4
:1013D000330982FF02C0FB860DC094E0F92E0E9403
:1013E000A9088A87FA94D9F78A3A11F082E034C0C2
:1013F00082E08B878B85823031F4C12CD12CE12C9B
:1014000080E4F82E03C0C12CD12C760120E030E01E
:10141000A90167E3CE010E943309A701960169E2A1
:10142000CE010E9433098A87882349F00E94B520A3
:10143000601B710B613D774048F388E00DC08B85E0
:10144000823031F520E030E0A9016AE3CE010E944C
:101450003309882381F086E08D83CE010E94AC0899
:1014600080E0DF91CF911F910F91FF90EF90DF907F
:10147000CF90BF9008950E94A908807C803C11F411
:1014800083E08B870E94A9080E94A9080E94A908EE
:10149000CE010E94AC086B2DCE01DF91CF911F9140
:1014A0000F91FF90EF90DF90CF90BF900C94ED08DC
:1014B0000F931F93CF93DF93EC010E94B5208B0114
:1014C0000E94A9088A878F3F49F40E94B520601BBB
:1014D000710B6D327140A0F38FE003C08E3F39F085
:1014E0008DE08D83CE010E94AC0880E001C081E0D8
:1014F000DF91CF911F910F910895CF92DF92EF92DC
:10150000FF920F931F93CF93DF93EC0169010115B5
:10151000110509F462C0C801820F931F8130924007
:1015200008F05DC08E81882371F088819981AA813D
:10153000BB81481759076A077B0729F48F81988573
:10154000C816D90610F5488359836A837B838B8537
:10155000833039F039E0440F551F661F771F3A95E5
:10156000D1F79A01AB0161E1CE010E9433098823D2
:1015700019F083E08D8333C0CE010E94580A88237E
:1015800071F118861F8281E08E838F8198858C157A
:101590009D0540F40E94A9088F819885019698873F
:1015A0008F83F3CF6701E00EF11ECE14DF0431F01C
:1015B0000E94A908F60181936F01F7CF8F8198856A
:1015C000800F911F98878F832985222319F0811519
:1015D000924018F0CE010E94D30881E004C0CE01F1
:1015E0000E94AC0880E0DF91CF911F910F91FF9096
:1015F000EF90DF90CF900895EF92FF920F931F939B
:10160000790100E012E020E030E00E947D0A1F91A5
:101610000F91FF90EF900895CF92DF92EF92FF929B
:101620000F931F93CF93DF9300D0CDB7DEB78C011C
:10163000862F49835A830E94A2084981C42E5A8169
:10164000D52EE12CF12CF60181916F010E94A208A8
:10165000FFEFEF1AFF0AE11482E0F806A1F78FEF1F
:101660000E94A2088FEF0E94A2080E94A908F80118
:1016700082878F71853039F081E18583C8010E94AE
:10168000AC0880E001C081E00F900F90DF91CF9116
:101690001F910F91FF90EF90DF90CF9008950F93DF
:1016A0001F93CF93DF93EC0189014115510561052B
:1016B000710511F482E132C08B85833039F089E005
:1016C000440F551F661F771F8A95D1F79A01AB010A
:1016D00068E1CE010E943309882311F084E01EC026
:1016E000A8016EEFCE010E940C0B8823C1F068E5C3
:1016F00072E0CE010E941809811102C085E10EC07E
:1017000020E030E0A9016DE0CE010E943309811193
:1017100004C00E94A908882339F084E18D83CE019A
:101720000E94AC0880E004C0CE010E94AC0881E0B9
:10173000DF91CF911F910F91089580E58093710300
:10174000109272030895CF93DF93EC019C012A5FFE
:101750003F4F41E050E060E070E08B8D9C8D0E9437
:10176000FA148823A1F04F89588D698D7A8D452B05
:10177000462B472B71F44E815F81688579854F8BAD
:10178000588F698F7A8F8C8180688C8302C080E04B
:1017900001C081E0DF91CF910895CF92DF92EF9267
:1017A000FF921F93CF93DF93EC010E94A30B811153
:1017B00002C080E04BC0EB8DFC8DCE80DF80E884E2
:1017C000F98482E0C81AD108E108F108058404C050
:1017D000CC0CDD1CEE1CFF1C0A94D2F74685578505
:1017E00060897189C40ED51EE61EF71E148181E042
:1017F000C81AD108E108F108112361F0C701B60148
:10180000610F711D811D911D0E944413882389F26F
:101810001150F2CFEB8DFC8DC12C82E0D82EE12C43
:10182000F12C058404C0CC0CDD1CEE1CFF1C0A94BA
:10183000D2F74B895C896D897E894C0D5D1D6E1DCB
:101840007F1D4B8B5C8B6D8B7E8B81E0DF91CF910D
:101850001F91FF90EF90DF90CF900895CF93DF938B
:10186000EC01462F6E857F85888999890E9409132E
:10187000882341F08A8920E2829FC0011124845884
:101880009C4F02C080E090E0DF91CF910895282F17
:10189000FB018BE030E231938150E9F7A22FB92FA1
:1018A00020E037E09D91992319F19E3219F0E6EC82
:1018B000F0E008C03A3011F128E03AE0F3CF319679
:1018C0004917E1F044914111FACF3217B8F04FEDCA
:1018D000490F4E3598F441E0420FFB01E20FF11D34
:1018E0002FE9290F2A3108F490529083242FDACF60
:1018F00081E0FB019081903209F480E008950F931C
:101900001F93CF93DF93EC018B018D81882311F01E
:1019100080E040C0FB0187898031B1F482E08D8393
:101920001F8A188E198E1A8E408D518D60E070E0DE
:1019300095E0440F551F661F771F9A95D1F74B8B83
:101940005C8B6D8B7E8B15C0803211F783E08D83AD
:10195000FB01428D538D648D758D4F8B588F698F30
:101960007A8F9E012D5E3F4FC8010E94EE1388239F
:1019700079F21C8F0B8F81E08C831E821F82188668
:1019800019861A861B861C861D861E861F86188A47
:10199000198A1A8ADF91CF911F910F9108952F9282
:1019A0003F924F925F926F927F928F929F92AF92EF
:1019B000BF92CF92DF92EF92FF920F931F93CF933C
:1019C000DF93EC016B015A018D81811103C08FEF10
:1019D0009FEFDAC08C8180FFFACF4B895C896D89DB
:1019E0007E898A859B85AC85BD852501612C712CFE
:1019F0008A019B01081B190B2A0B3B0B04151505CB
:101A00002605370518F45A01A81AB90A25011E013E
:101A100026E0220E311C4114510409F47BC04A8592
:101A20005B856C857D854A0181E09822ED818A0184
:101A30009B01F9E03695279517950795FA95D1F70B
:101A40008B8D9C8DE23051F4FC01628D738D848D01
:101A5000958D600F711F821F931F3EC0FC01748023
:101A60007A94702281149104C9F4711017C0452B27
:101A7000462B472B49F48F89988DA98DBA8D8E837B
:101A80009F83A887B9870AC04E815F816885798561
:101A900091010E946A13882309F499CFEB8DFC8D84
:101AA0006E817F81888599856250710981099109CC
:101AB000058404C0660F771F881F991F0A94D2F708
:101AC0000685178520893189600F711F821F931F3A
:101AD000670D711D811D911D20E032E02819390923
:101AE00032012415350508F439012C8126FD04C086
:101AF0006114F2E07F06A1F500910A0110910B013B
:101B000020910C0130910D01601771078207930736
:101B100019F426C0C50138C0760183019401AB01D8
:101B2000BC0180917A0390917B030E947D0A8823F7
:101B300009F44DCFC60CD71C04C0E81BF90BCE0E20
:101B4000DF1E8A859B85AC85BD85860D971DA11DF1
:101B5000B11D8A879B87AC87BD87461857085BCF26
:101B600040E00E940913882309F431CFC40184584E
:101B70009C4FD6019C01260D371DFC01E217F3078F
:101B8000E1F241914D93FACFDF91CF911F910F91E7
:101B9000FF90EF90DF90CF90BF90AF909F908F908D
:101BA0007F906F905F904F903F902F900895FF929D
:101BB0000F931F93CF93DF931F92CDB7DEB78C01A6
:101BC000FC018581823018F480E090E034C0F80197
:101BD0004285538564857585A5E07695679557950B
:101BE0004795AA95D1F7F42FFF70FF2E41E050E002
:101BF000BE016F5F7F4FC8010E94CF0C019719F49F
:101C0000298130E002C02FEF3FEF2F3F3F4FE1F23D
:101C1000F8014285538564857585415E5F4F6F4F3E
:101C20007F4F4287538764877587F0E2FF9EC0012C
:101C3000112484589C4F0F90DF91CF911F910F91E9
:101C4000FF9008954F925F926F927F92AF92BF92F2
:101C5000CF92DF92EF92FF920F931F93CF93DF9378
:101C6000EC016A017B012D81222309F457C08B8985
:101C70009C89AD89BE8984179507A607B70708F424
:101C80004DC04EC08A859B85AC85BD85EB8DFC8D96
:101C9000E585F0E03996AC01BD014150510961097B
:101CA00071090E2E04C076956795579547950A944D
:101CB000D2F797018601015011092109310904C0A9
:101CC0003695279517950795EA95D2F704171507C6
:101CD00026073707B0F58F89988DA98DBA8D8E8329
:101CE0009F83A887B987280139015E0186E0A80E85
:101CF000B11C411451046104710461F14E815F8192
:101D00006885798595018B8D9C8D0E946A1391E081
:101D1000491A5108610871088111EBCF80E01FC09A
:101D20002230C1F0C114D104E104F10409F0AACFBA
:101D30001E821F82188619861A861B861C861D869F
:101D40000DC0892B8A2B8B2B31F2041B150B260B14
:101D5000370BC9CFCA86DB86EC86FD8681E0DF9132
:101D6000CF911F910F91FF90EF90DF90CF90BF9098
:101D7000AF907F906F905F904F9008950F931F9357
:101D8000CF93DF93EC018D818823C9F18C8187FF8C
:101D900030C061E0CE010E942E0C8C01009779F1D9
:101DA0008D81823048F44B895C896D897E89F80188
:101DB000448F558F668F778F4F89588D698D7A8DB7
:101DC000F801538F428F758B648BE0917303F09110
:101DD0007403309759F0B8016A5E7F4FC801489686
:101DE0000995F801808D918D938B828B8C818F77F3
:101DF0008C83DF91CF911F910F910C94CE1280E0D4
:101E0000DF91CF911F910F910895CF93DF93EC0154
:101E10000E94BE0E882319F01D8281E001C080E07F
:101E2000DF91CF9108954F925F926F927F92AF9220
:101E3000BF92CF92DF92EF92FF920F931F93CF93B7
:101E4000DF9300D000D0CDB7DEB75C016A017B0123
:101E5000FC0185818130F1F4848181FF1BC0F50193
:101E600083899489A589B68984179507A607B7073A
:101E700088F0892B8A2B8B2B09F479C0F5014284D9
:101E8000538464847584B701A601C5010E94220EA3
:101E9000811102C080E06CC0F501838D948DC11466
:101EA000D104E104F10471F44789508D618D728D84
:101EB0000E940F16882371F3F501178A108E118E78
:101EC000128E3AC0F50146815781608571859E0169
:101ED0002F5F3F4F0E946A138823E1F249815A81A4
:101EE0006B817C81F501838D948DFC0127892031E4
:101EF00029F408EF1FEF20E030E004C008EF1FEFE7
:101F00002FEF3FE04017510762077307A8F40E94C4
:101F10000F16882309F4BECFF501468157816085ED
:101F200071850FEF1FEF2FEF3FE0838D948D0E949F
:101F30005914882309F4AECFF501C38AD48AE58AFF
:101F4000F68A848180688483C5010E94BE0E88233E
:101F500009F4A0CFB701A6014C145D046E047F0400
:101F600010F4B301A201C5010E94220E01C081E05C
:101F70000F900F900F900F90DF91CF911F910F91C5
:101F8000FF90EF90DF90CF90BF90AF907F906F90D9
:101F90005F904F900895FF920F931F93CF93DF931D
:101FA000EC01F42E80E2689FF0011124E458FC4F0C
:101FB0008385817129F0842F827411F080E053C0F1
:101FC0006A8B80910A0190910B01A0910C01B09154
:101FD0000D018E879F87A88BB98B4489558960E056
:101FE00070E0BA0155274427028D138D20E030E0C0
:101FF000402B512B622B732B4F8B588F698F7A8F0D
:102000008385887151F4048D158D268D378D0B8B4A
:102010001C8B2D8B3E8B81E00CC0803179F69E01AC
:102020002D5E3F4F8B8D9C8D0E94EE13882331F2E5
:1020300084E08D838F2D8F708C831E821F82188683
:1020400019861A861B861C861D86F6FE0BC040E08C
:1020500050E0BA01CE01DF91CF911F910F91FF9017
:102060000C94130F81E0DF91CF911F910F91FF909E
:102070000895AF92BF92CF92DF92EF92FF920F93AB
:102080001F93CF93DF93CDB7DEB72B970FB6F8949E
:10209000DEBF0FBECDBF7C016B01CA01B22EF701BE
:1020A00025812111B9C0BE016F5F7F4F0E94470C8F
:1020B000882309F4B1C0F601838D948DF701948FC4
:1020C000838FF60116821782108611861286138678
:1020D00014861586A12CF601028513852485358585
:1020E00083899489A589B689081719072A073B07A8
:1020F000E8F545E036952795179507954A95D1F768
:102100000F70C6010E94D70D009709F485C0FC012D
:102110002081222311F0253EB9F4A1100EC0F70151
:10212000028B40910A0150910B0160910C0170915A
:102130000D0146875787608B718BFC018081AA2433
:10214000A3948111C8CF12C04BE050E0BC01CE0176
:1021500001960E94192B892B09F0BDCF8B2D80731E
:10216000803309F459C04B2D602F52C08B2D8271E2
:10217000823109F051C0AA2041F061E0C7010E94FC
:102180002E0C8C01009779F447C0F60185818230CE
:1021900009F442C0C6010E94CD0B8823E9F1F70182
:1021A000128A0CE713E080E2F80111928A95E9F7B0
:1021B0008BE0FE013196D80101900D928A95E1F7EE
:1021C000E0917303F0917403309739F0B801625FC6
:1021D0007F4FC8014096099509C081E298E2F80155
:1021E000918B808B80E098E097878687F8018089C3
:1021F0009189938B828B918F808F86859785978B22
:10220000868B0E94CE12882339F04B2DF70162890C
:10221000C7010E94CB0F01C080E02B960FB6F89447
:10222000DEBF0FBECDBFDF91CF911F910F91FF9009
:10223000EF90DF90CF90BF90AF9008952F923F9294
:102240004F925F926F927F928F929F92AF92BF92C6
:10225000CF92DF92EF92FF920F931F93CF93DF9372
:1022600000D000D01F92CDB7DEB78C017B013A01C0
:10227000DC0115968C9115978130C9F414968C91D8
:1022800081FF15C082FF1BC0F8014389548965890D
:10229000768982859385A485B58584179507A607D9
:1022A000B70769F0C8010E94220E811108C081E0C1
:1022B00090E0F8019383828380E090E046C163015F
:1022C00080C0D8015B968D919C915C97FC01F48154
:1022D000F150B501A40129E076956795579547958A
:1022E0002A95D1F7F423FD8321E09222FF2309F4FC
:1022F00074C080E092E08819990956018C159D05FB
:1023000008F45C01D8015B96ED91FC915C97169600
:102310002D903D904D905C901997B2E02B1A3108AA
:1023200041085108058404C0220C331C441C551C70
:102330000A94D2F786859785A089B189280E391E1F
:102340004A1E5B1EED812E0E311C411C511CA11436
:10235000F2E0BF0609F088C080910A0190910B015C
:10236000A0910C01B0910D0182159305A405B5054E
:1023700059F48FEF9FEFDC0180930A0190930B01DA
:10238000A0930C01B0930D019701B201A1018091BE
:102390007A0390917B030E944F0B882309F487CF27
:1023A0009EEFF91ACA18DB08F80182859385A48587
:1023B000B5858A0D9B1DA11DB11D82879387A487BA
:1023C000B587D8011A968D909D90AD90BC901D97C1
:1023D000C114D10409F075CF8AC08114910409F0A9
:1023E00088CF16964D915D916D917C91199741150D
:1023F00051056105710559F457968D919D910D9088
:10240000BC91A02D0097A105B10541F521C09E0109
:102410002F5F3F4F0E946A13882309F44ECF8981B2
:102420009A81AB81BC81F801238D348DF901278914
:10243000203129F448EF5FEF60E070E004C048EF1E
:102440005FEF6FEF7FE084179507A607B70730F0BF
:10245000C8010E94A30B81114CCF29CFF8018683BC
:102460009783A087B18745CF8114910429F5D801BE
:102470001A964D915D916D917C911D9753968D911A
:102480009D910D90BC91A02D481759076A077B07B5
:1024900098F00E94CE12882309F409CF20920A01F5
:1024A00030920B0140920C0150920D018091790302
:1024B00081608093790308C041E0C201B1010E94AC
:1024C0000913882309F4F3CEC40184589C4FD70123
:1024D0009C012A0D3B1DFC01E217F30719F04D91F9
:1024E0004193FACFE81BF90BEE0EFF1E5BCF53961C
:1024F0008D919D910D90BC91A02DF801248188159E
:102500009905AA05BB0538F4838A948AA58AB68AF8
:10251000206824830CC08091730390917403892BED
:1025200031F06114710419F02068F8012483D80196
:1025300014968C9183FD02C0C30107C0C8010E949C
:10254000BE0E882309F4B3CEF7CF0F900F900F90F3
:102550000F900F90DF91CF911F910F91FF90EF900F
:10256000DF90CF90BF90AF909F908F907F906F90B3
:102570005F904F903F902F900895CF93DF931F92DD
:10258000CDB7DEB7698341E050E0BE016F5F7F4F9A
:102590000E941E110F90DF91CF91089580917903D1
:1025A000882399F140910A0150910B0160910C012F
:1025B00070910D012CE733E080917A0390917B03B9
:1025C0000E944F0B882319F14091750350917603B7
:1025D000609177037091780341155105610571058C
:1025E00091F02CE733E080917A0390917B030E9475
:1025F0004F0B882361F010927503109276031092AE
:102600007703109278031092790381E0089580E0B7
:102610000895CF92DF92EF92FF92CF936B017C01EE
:10262000C42F80910A0190910B01A0910C01B091EF
:102630000D018C159D05AE05BF05D1F00E94CE128F
:10264000811102C080E01AC02CE733E0B701A60177
:1026500080917A0390917B030E94FC0A882391F376
:10266000C0920A01D0920B01E0920C01F0920D0190
:10267000809179038C2B8093790381E0CF91FF9037
:10268000EF90DF90CF900895CF92DF92EF92FF927C
:102690006B017C010E94CE128823B1F0ECE7F3E0DD
:1026A000119285E0EC37F807D9F7C0920A01D09271
:1026B0000B01E0920C01F0920D0180917903816091
:1026C0008093790381E001C080E0FF90EF90DF907C
:1026D000CF9008958F929F92AF92BF92CF92DF9248
:1026E000EF92FF920F931F93CF93DF938C016A01B8
:1026F0007B01E901FC0181859285A385B485019662
:10270000A11DB11D84179507A607B70710F480E037
:1027100058C0F80143895489658976898789803151
:1027200029F4BB27AF2D9E2D8D2D09C0D701C601E1
:1027300027E0B695A795979587952A95D1F74C01EF
:102740005D01840E951EA61EB71EC501B4018090C2
:102750000A0190900B01A0900C01B0900D0168153A
:1027600079058A059B0589F4F8018789803199F4F8
:10277000DD24EE24FF24F601EE0FFF1FE458FC4F8A
:1027800080819181A0E0B0E017C040E00E94091371
:102790008111EACFBCCFE894C7F8DD24EE24FF24F2
:1027A000F601EE0FFF1FEE0FFF1FE458FC4F808174
:1027B0009181A281B381BF7088839983AA83BB83EF
:1027C00081E0DF91CF911F910F91FF90EF90DF900B
:1027D000CF90BF90AF909F908F9008954F925F924F
:1027E0006F927F92AF92BF92CF92DF92EF92FF9261
:1027F0000F931F93CF93DF9300D000D0CDB7DEB7F8
:102800008C0149835A836B837C835901C12CD12C61
:102810007601412C42E0542E612C712C49815A8161
:102820006B817C819E012F5F3F4FC8010E946A131C
:10283000882359F1D301C201F801058404C0880F2F
:10284000991FAA1FBB1F0A94D2F7C80ED91EEA1EF1
:10285000FB1E49815A816B817C818789803129F4F3
:1028600088EF9FEFA0E0B0E004C088EF9FEFAFEFEC
:10287000BFE0481759076A077B0780F2F501C0825D
:10288000D182E282F38281E001C080E00F900F905C
:102890000F900F90DF91CF911F910F91FF90EF90CC
:1028A000DF90CF90BF90AF907F906F905F904F90F0
:1028B00008954F925F926F927F928F929F92AF9204
:1028C000BF92CF92DF92EF92FF920F931F93CF931D
:1028D000DF93EC016A017B01280139014230510587
:1028E0006105710508F474C049855A856B857C853E
:1028F0004F5F5F4F6F4F7F4F4C155D056E057F0536
:1029000008F466C08B889C88AD88BE888F8980312A
:1029100029F477276F2D5E2D4D2D09C0B701A60133
:10292000E7E07695679557954795EA95D1F7840E38
:10293000951EA61EB71E40910A0150910B01609191
:102940000C0170910D0184169506A606B70671F468
:102950008F89803199F4DD24EE24FF24F601EE0FF7
:10296000FF1FE458FC4F5182408218C040E0C5016F
:10297000B4010E9409138111EBCF2AC0E894C7F873
:10298000DD24EE24FF24F601EE0FFF1FEE0FFF1FE4
:10299000E458FC4F408251826282738280917903B5
:1029A0008160809379038A89823080F08D819E8155
:1029B000AF81B885880D991DAA1DBB1D8093750335
:1029C00090937603A0937703B093780381E001C0DE
:1029D00080E0DF91CF911F910F91FF90EF90DF90FA
:1029E000CF90BF90AF909F908F907F906F905F90AF
:1029F0004F9008952F923F924F925F926F927F92E5
:102A00009F92AF92BF92CF92DF92EF92FF920F937D
:102A10001F93CF93DF93CDB7DEB760970FB6F894CF
:102A2000DEBF0FBECDBF5C014D875E876F87788BA1
:102A30001901D9014D905D906D907C904114510425
:102A40006104710431F0BFEF4B1A5B0A6B0A7B0A19
:102A500010C0FC014080518062807380992493945F
:102A60000D851E852F853889013011052105310519
:102A700009F0912CD50119962D913D914D915C91C4
:102A80001C972F5F3F4F4F4F5F4F29873A874B87E8
:102A90005C87730162011D821E821F821886F50108
:102AA00081859285A385B4850D811E812F8138850E
:102AB000081719072A073B0708F056C029853A85E9
:102AC0004B855C852C153D054E055F0550F4A2E055
:102AD000CA2ED12CE12CF12CB2E04B2E512C612CC2
:102AE000712C9E012F5F3F4FB701A601C5010E94C7
:102AF0006A138823C9F149815A816B817C81D7018E
:102B0000C6010196A11DB11D452B462B472B19F07F
:102B10002C013D010FC0AC01BD01441955096609E6
:102B200077090D851E852F85388940175107620763
:102B3000730779F02D813E814F8158852F5F3F4F7C
:102B40004F4F5F4F2D833E834F8358876C017D012C
:102B5000A6CF0FEF1FEF2FEF3FE0B701A601C50192
:102B60000E945914811118C080E041C0D701C601EC
:102B70000197A109B1098D839E83AF83B88797011F
:102B80008601AC01BD01C5010E945914882361F37F
:102B9000CD80DE80EF80F8844C145D046E047F04E9
:102BA00028F3D1014D915D916D917C9141155105B5
:102BB0006105710599F4F10140825182628273824C
:102BC0009920A1F0FFEF4F1A5F0A6F0A7F0AD50123
:102BD0004D925D926D927C92139708C09301820191
:102BE000C5010E9459148111E6CFBECF81E06096E5
:102BF0000FB6F894DEBF0FBECDBFDF91CF911F910E
:102C00000F91FF90EF90DF90CF90BF90AF909F908B
:102C10007F906F905F904F903F902F900895AF926C
:102C2000BF92CF92DF92EF92FF920F931F93CF93B9
:102C3000DF9300D000D0CDB7DEB75C016A017B0125
:102C400082E090E0A0E0B0E0F50180839183A28370
:102C5000B3839E012F5F3F4FB701A601C5010E94BC
:102C60006A13882311F100E010E09801B701A60172
:102C7000C5010E9459148823C1F0C980DA80EB8015
:102C8000FC80F5018789803129F488EF9FEFA0E06F
:102C9000B0E004C088EF9FEFAFEFBFE0C816D906E1
:102CA000EA06FB06B0F281E001C080E00F900F90D1
:102CB0000F900F90DF91CF911F910F91FF90EF90A8
:102CC000DF90CF90BF90AF9008958F929F92AF9278
:102CD000BF92CF92DF92EF92FF920F931F93CF9309
:102CE000DF93EC01142F70937B0360937A034423EA
:102CF00041F1453010F080E0EFC040E060E070E06E
:102D0000CB010E9409138823B1F320E1129FF00147
:102D10001124E65DFA4F80818F7769F78485958568
:102D2000A685B78584369105A105B10520F3C08439
:102D3000D184E284F384C114D104E104F10421F4C8
:102D4000DACFC12CD12C760140E0C701B6010E9438
:102D50000913882381F2809187039091880381155C
:102D6000924049F630918C03332329F280918A03F3
:102D700090918B03892B09F4BECF209189032223E4
:102D800009F4B9CF3A8B2C831D8630E041E050E046
:102D90006D85062FCA01062E02C0880F991F0A945E
:102DA000E2F72817390731F081E0860F8D87683008
:102DB00078F3A1CF2091920330919303211531052F
:102DC00019F040E050E008C02091A0033091A10329
:102DD0004091A2035091A3032D833E834F835887D4
:102DE00080918A0390918B0346015701880E991EAA
:102DF000A11CB11C8B8A9C8AAD8ABE8AE0918D038E
:102E0000F0918E03F98FE88FA0918C03B0E00E94BF
:102E10009328680D791D8A1D9B1D6A8F7B8F8C8F6F
:102E20009D8F15E0EE0FFF1F1A95E1F7E150FE4F61
:102E3000EF2FFF27E695DC01CB018E0F9F1FA11D11
:102E4000B11D8E879F87A88BB98B80908F03909040
:102E500090038114910419F0A12CB12C08C080902A
:102E60009C0390909D03A0909E03B0909F03A701A8
:102E70009601281B390B4A0B5B0BDA01C901880D3F
:102E8000991DAA1DBB1D04C0B695A795979587955A
:102E90000A95D2F789879A87AB87BC87853F3FE041
:102EA0009307A105B10510F48CE014C0853F9F4F36
:102EB000A105B10510F480E10DC08091A8039091A7
:102EC000A903A091AA03B091AB038A8F9B8FAC8F0B
:102ED000BD8F80E28F8B81E0DF91CF911F910F91A9
:102EE000FF90EF90DF90CF90BF90AF909F908F902A
:102EF0000895FC0181E08083118213821282158281
:102F000014829FEF9683178211861086828713861C
:102F100092E09487858716861786108A118A08950D
:102F2000CF93DF93EC0188859985009711F00E947B
:102F300045298E8187FD05C060E0DF91CF910C941B
:102F40004821DF91CF910895CF93DF93EC018E81DB
:102F500087FD07C061E00E94482160E08E810E94E9
:102F6000812181E08983DF91CF910895EF92FF92D3
:102F70000F931F93CF93DF93EC017B018885998595
:102F8000009711F00E9445299D858A85981303C0FA
:102F900083E090E002C084E090E08E9D80018F9DF0
:102FA000100D9E9D100D11241D830C83C8010E94DD
:102FB000AD2899878887009741F0A80160E070E00C
:102FC0000E94262BFB82EA8204C01D821C821B8287
:102FD0001A82DF91CF911F910F91FF90EF9008958A
:102FE000FC0121E095858285981320E0CB0136E035
:102FF000969587953A95E1F7482F43704587CB0121
:1030000054E0969587955A95E1F7382F33703287BB
:10301000CB01969587959695879583708387862FA4
:103020008370848781E06F3F710511F008F080E0C4
:10303000808380859185892B51F091E0431390E046
:10304000921729F062817381CF010C94B61708950D
:10305000CF92DF92EF92FF920F931F93CF93DF9364
:10306000CDB7DEB729970FB6F894DEBF0FBECDBF40
:103070008C01DC0118968D919C911997892B09F48C
:103080009AC00E94C120F801C684D784E088F188E4
:103090006C197D098E099F096233710581059105BF
:1030A00080F3F894848195819A838983A085B18582
:1030B0007D01EFEFEE1AFE0A8C918987D8019C9171
:1030C00052960D90BC91A02DF8018489992309F4A2
:1030D0002EC09C91982B98879C91809589238F83F3
:1030E0008F818E8388E08D8358856F8149853D81EE
:1030F0002E8189819A81F7015C9347FD252F3A95AE
:103100002C93262F39F0441F00C000006C93000060
:1031100000C0F2CF38E041916C930000019761F755
:10312000F801B38BA28B49873D832E8338C09C91D5
:10313000982B98879C91809589238F838F818C838E
:1031400088E08B8358856F8149853B812C818981FB
:103150009A81F7015C9347FD252F00C000C02C9396
:1031600000C000C000C000C000C06C930000262F4B
:103170003A9541F0441F000000C000C000C000C0EC
:1031800000C0E8CF38E0419100C06C9300C00197C7
:1031900009F7F801B38BA28B49873B832C839A8371
:1031A000898378940E94C120D8011E966D937D93E7
:1031B0008D939C93519729960FB6F894DEBF0FBE5E
:1031C000CDBFDF91CF911F910F91FF90EF90DF90D6
:1031D000CF9008951F93CF93DF93EC01162F898131
:1031E000882331F08E8187FD03C060E00E94482172
:1031F0001E838981882341F061E0812F0E9448214C
:1032000060E0812F0E948121812F90E0FC01E2503B
:10321000FF4FE491F0E0EE0FFF1FE45EFE4F2591BB
:1032200034913B8B2A8BFC01E651FF4F84918C8BB0
:10323000DF91CF911F910895EF92FF920F931F930B
:10324000CF93DF931F92CDB7DEB77C018B01FC01DA
:10325000118217821186108616861786108A118AA7
:10326000B90149830E94F017B801C7010E94B6173F
:103270004981642FC7010F90DF91CF911F910F916A
:10328000FF90EF900C94EA18CF92DF92EF92FF92AA
:103290000F931F93CF93DF93FC0182819381681773
:1032A000790708F04DC0CA01AA27BB27182FC32EE3
:1032B000D42EE52EFF24DC2DC22F0781002361F0E0
:1032C000809FC0011124192FC09E60011124DD2DA3
:1032D000209FC0011124C92FF5848285A085B18566
:1032E000F81208C0CB01880F991F860F971F8A0F0D
:1032F0009B1F17C0CB01880F991F880F991F8A0F3A
:103300009B1F452F552766277727DC01AF0DB11D81
:10331000002329F0409F90011124232F01C0242F66
:103320002C932285DC01A20FB11D1C932385DC01A7
:10333000A20FB11DDC932485FC01E20FF11DC083B7
:10334000DF91CF911F910F91FF90EF90DF90CF9081
:103350000895962F50E060E070E0592B682BCB0168
:10336000BA010895FF920F931F93CF93DF93EC015F
:10337000FF24F394F60E2F81F21679F10885198552
:103380002150B9F06F3F59F430E040E050E06FEF6A
:103390007FEF80E090E00E946E28B9010CC08F2D75
:1033A00090E0982F88270197622F70E00E942428D0
:1033B00002C060E070E0F8018C819D81AF01401B8C
:1033C000510B4817590740F44081469FC001479F61
:1033D000900D11249193F0CFFF82DF91CF911F9137
:1033E0000F91FF900895FC014481558160E070E0E9
:1033F000808591850C94262B4F925F926F927F92DD
:103400008F929F92AF92BF92CF92DF92EF92FF92F4
:103410000F931F93CF93DF93CDB7DEB728970FB6E7
:10342000F894DEBF0FBECDBF29833A834B835C8304
:1034300020E030E040E05FE30E9440270E94A327A5
:103440009B01AC010E9440276D837E838F83988708
:10345000C801B7010E948D252B013C01C601B501B1
:103460000E948D259B01AC01C301B2010E9440273F
:103470004B015C0120E030E040E05FE369817A814C
:103480008B819C810E9440270E94A3272B013C0135
:103490009B01AC01C501B4010E944027A301920128
:1034A0000E9440274B015C019B01AC0160E070E091
:1034B00080E89FE30E94C2240E94AD272B013C01BB
:1034C000A50194016D817E818F8198850E94C3241E
:1034D0000E94AD27A30192010E9436259B01AC01F9
:1034E0000E94C32420E73DE642EC5AE40E944027B4
:1034F00020E030E040E450E40E94402728960FB6D8
:10350000F894DEBF0FBECDBFDF91CF911F910F9119
:10351000FF90EF90DF90CF90BF90AF909F908F90F3
:103520007F906F905F904F9008954F925F926F924F
:103530007F92AF92BF92CF92DF92EF92FF920F9362
:103540001F93CF93DF93CDB7DEB760970FB6F89494
:10355000DEBF0FBECDBF2B013C0129833A834B83D5
:103560005C83ED82FE820F83188725E33AEF4EE8F5
:103570005CE3C801B7010E94402769877A878B877F
:103580009C8725E33AEF4EE85CE3C301B2010E9459
:1035900040276D877E878F87988B29813A814B8161
:1035A0005C81C601B5010E94C22425E33AEF4EE8D2
:1035B0005CE30E94402769837A838B839C83A30109
:1035C0009201C801B7010E94C22425E33AEF4EE8F8
:1035D0005CE30E944027A984BA84CB84DC84ED8418
:1035E000FE840F85188929813A814B815C810E9474
:1035F000FC1960960FB6F894DEBF0FBECDBFDF9109
:10360000CF911F910F91FF90EF90DF90CF90BF90DF
:10361000AF907F906F905F904F9008954F925F9220
:103620006F927F928F929F92AF92BF92CF92DF92D2
:10363000EF92FF920F931F93CF93DF93CDB7DEB737
:1036400064970FB6F894DEBF0FBECDBF2B013C01CF
:10365000E982FA820B831C83298B3A8B4B8B5C8B20
:103660000E948D256D837E838F839887C801B70163
:103670000E94A32769877A878B879C87C301B20141
:103680000E94A3276D877E878F87988BC801B7011B
:103690000E948D252B013C0129893A894B895C893F
:1036A000C601B5010E94C2244B015C010E948D2518
:1036B00069837A838B839C83C501B4010E94A3270D
:1036C0004B015C0129853A854B855C856D817E8146
:1036D0008F8198850E9440276B017C01A301920194
:1036E0006D857E858F8598890E94402729813A8142
:1036F0004B815C810E9440279B01AC01C701B60150
:103700000E94C2246B017C01A3019201C501B40196
:103710000E944027A70196010E94362520E030E054
:1037200044E353E40E9440272BED3FE049E450E49A
:103730000E94902564960FB6F894DEBF0FBECDBFF1
:10374000DF91CF911F910F91FF90EF90DF90CF907D
:10375000BF90AF909F908F907F906F905F904F90B1
:1037600008954F925F926F927F92AF92BF92CF92E5
:10377000DF92EF92FF920F931F93CF93DF93CDB71A
:10378000DEB728970FB6F894DEBF0FBECDBF2B0172
:103790003C0129833A834B835C83ED82FE820F8355
:1037A0001887C601B50125E33AEF4EE85CE30E94B5
:1037B00040275B016C0125E33AEF4EE85CE3C8016A
:1037C000B7010E9440276D837E838F83988725E30E
:1037D0003AEF4EE85CE369817A818B819C810E949B
:1037E000402769837A838B839C8325E33AEF4EE8F5
:1037F0005CE3C301B2010E944027ED80FE800F818F
:10380000188529813A814B815C810E940E1B2B0116
:103810003C0120E030E0A9010E94892587FF0AC011
:1038200020E030E044EB53E4C301B2010E94C32422
:103830002B013C01298D3A8D4B8D5C8DC301B2016A
:103840000E94C2242B013C0120E030E0A9010E942B
:10385000892587FF0AC020E030E044EB53E4C30130
:10386000B2010E94C3242B013C01C301B20128967E
:103870000FB6F894DEBF0FBECDBFDF91CF911F9181
:103880000F91FF90EF90DF90CF90BF90AF907F901F
:103890006F905F904F9008955F926F927F928F929A
:1038A0009F92AF92BF92CF92DF92EF92FF920F93CF
:1038B0001F93CF93DF938C01EB01642E722EFC01DA
:1038C000C080D180E280F38020E030E048EC52E418
:1038D000688179818A819B810E9490250E94F825C8
:1038E000562E20E030E048EC52E4C701B6010E94B9
:1038F00090250E94F825772767FD7095872F972FD1
:103900000E942B264B015C019B01AC01C701B60153
:103910000E94C224F8016083718382839383652DA2
:10392000772767FD7095872F972F0E942B266B01B5
:103930007C019B01AC01688179818A819B810E9415
:10394000C224688379838A839B8320E030E040E748
:1039500052E4F80160817181828193810E949025F7
:103960009B01AC01C501B4010E94C324F80160832E
:1039700071838283938320E030E040E752E46881E2
:1039800079818A819B810E9490259B01AC01C701AE
:10399000B6010E94C324688379838A839B8366204F
:1039A00051F0F80180819181A281B381B058808368
:1039B0009183A283B383772049F088819981AA817A
:1039C000BB81B05888839983AA83BB83DF91CF9151
:1039D0001F910F91FF90EF90DF90CF90BF90AF902D
:1039E0009F908F907F906F905F9008950C947917BF
:1039F0000C9490170F931F93CF93DF93CDB7DEB73F
:103A000065970FB6F894DEBF0FBECDBF8C0122E5DF
:103A100030E046E06CE370E0CE0101960E941C1994
:103A200085E1FE013196D80101900D928A95E1F76A
:103A3000CE0101960E949017C8010E94A41764E16C
:103A4000C8010E94B219C8010E94281884EF91E0B1
:103A5000F801968B858B81E0878B8FE1808F87E2E1
:103A6000818F86E2828F85E2838F84E2848F83E276
:103A7000858F8BE1868F83E1878F8BE080A383E046
:103A800081A384E082A385E083A386E084A387E00A
:103A900085A38FE086A387E187A365960FB6F89488
:103AA000DEBF0FBECDBFDF91CF911F910F91089563
:103AB0008031910514F04097FBCF97FF02C04096EC
:103AC000FCCF08956F927F929F92AF92BF92CF9258
:103AD000DF92EF92FF920F931F93CF93DF9300D06B
:103AE00000D0CDB7DEB73C018B01415051094930C0
:103AF000510508F0FBC14C5C5F4FFA010C948D2816
:103B00006EEFB62EB00EE12CF12C0E5F1F4FCB2CBA
:103B1000CE0CDD24C7FCD094FFEFEF1AFF0A0C1582
:103B20001D050CF4E3C140E06FEF80E00E94A9198D
:103B30009B01AC01C60129833A834B835C830E94BD
:103B4000581D860D971DFC01608D772767FD7095C8
:103B500029813A814B815C81C3010E944419D7CFEE
:103B60005EEF952E960EE12CF12C5B0182E0A80E03
:103B7000B11CC92CCE0CDD24C7FCD094FFEFEF1A8A
:103B8000FF0A40E06FEFAC14BD040CF484C180E088
:103B90000E94A9199B01AC01C60129833A834B837A
:103BA0005C830E94581D860D971DFC01608D772750
:103BB00067FD709529813A814B815C81C3010E9428
:103BC0004419D7CF4EEF942E960EC12CD12C7B01E9
:103BD000F2E0EF0EF11CA92CAC0CBB24A7FCB094B6
:103BE000FFEFCF1ADF0A40E06FEFEA14FB04DCF0CE
:103BF0008FEF0E94A9199B01AC01C50129833A836B
:103C00004B835C830E94581D860D971DFC01608DBF
:103C1000772767FD709529813A814B815C81C301CB
:103C20000E944419D8CF80E00E94A9199B01AC01E1
:103C3000C70129833A834B835C830E94581D860DFC
:103C4000971DFC01608D772767FD709529813A816A
:103C50004B815C81C3010E94441940E06FEF80E01A
:103C6000B1C03EEFB32EB60EE12CF12C0E5F1F4F0C
:103C7000CB2CCE0CDD24C7FCD094FFEFEF1AFF0A4B
:103C80000C151D050CF432C140E06FEF8FEF0E9460
:103C9000A9199B01AC01C60129833A834B835C833C
:103CA0000E94581D860D971DFC01608D772767FDCA
:103CB000709529813A814B815C81C3010E9444192E
:103CC000D7CF2EEF922E960EE12CF12C5B0182E0E5
:103CD000A80EB11CC92CCE0CDD24C7FCD094FFEF7C
:103CE000EF1AFF0A40E0AC14BD040CF4D3C06FEF30
:103CF0008FEF0E94A9199B01AC01C60129833A8369
:103D00004B835C830E94581D860D971DFC01608DBE
:103D1000772767FD709529813A814B815C81C301CA
:103D20000E944419D7CF9EEF992E960EC12CD12C0C
:103D30007B01F2E0EF0EF11CA92CAC0CBB24A7FC1C
:103D4000B094FFEFCF1ADF0A40E0EA14FB04E4F07E
:103D500060E08FEF0E94A9199B01AC01C501298386
:103D60003A834B835C830E94581D860D971DFC018E
:103D7000608D772767FD709529813A814B815C8141
:103D8000C3010E944419D8CF6FEF8FEF0E94A91989
:103D90009B01AC01C70129833A834B835C830E945A
:103DA000581D860D971DFC01608D772767FD709566
:103DB00029813A814B815C81C3010E94441940E012
:103DC0006FEF8FEF0E94A9199B01AC01C801029708
:103DD00068C08EEFB82EB60EE12CF12C0E5F1F4F8F
:103DE000CB2CCE0CDD24C7FCD094FFEFEF1AFF0ADA
:103DF0000C151D050CF47AC040E060E08FEF0E94C6
:103E0000A9199B01AC01C60129833A834B835C83CA
:103E10000E94581D860D971DFC01608D772767FD58
:103E2000709529813A814B815C81C3010E944419BC
:103E3000D7CFBB24BA94B60EE12CF12C0F5F1F4FE5
:103E4000CB2CCE0CDD24C7FCD094FFEFEF1AFF0A79
:103E50000C151D050CF44AC040E060E08FEF0E9495
:103E6000A9199B01AC01C60129833A834B835C836A
:103E70000E94581D860D971DFC01608D772767FDF8
:103E8000709529813A814B815C81C3010E9444195C
:103E9000D7CF40E060E08FEF0E94A9199B01AC01F1
:103EA000C80129833A834B835C830E94581D860D89
:103EB000971DFC01608D772767FD709529813A81F8
:103EC0004B815C81C3010F900F900F900F90DF9199
:103ED000CF911F910F91FF90EF90DF90CF90BF9007
:103EE000AF909F907F906F900C9444190F900F901B
:103EF0000F900F90DF91CF911F910F91FF90EF9056
:103F0000DF90CF90BF90AF909F907F906F9008957B
:103F10002F923F924F925F926F927F928F929F92D9
:103F2000AF92BF92CF92DF92EF92FF920F931F93C7
:103F3000CF93DF93EC014A01882777FD8095982F76
:103F40001F921F921F9220E12F93A12CB12C65018B
:103F500018E6E12EFF24F39400E010E020E030E0CA
:103F6000A9010E947B242B013C011B01882777FDBE
:103F70008095982F1F921F9221E02F9328E62F9370
:103F800010E1E12EF12C00E010E020E030E0A9018A
:103F90000E947B247E8B6D8B5F894FEF450F8DB721
:103FA0009EB708960FB6F8949EBF0FBE8DBF4930DE
:103FB00078F4842F90E0880F991FFC01ED51FE4F9B
:103FC00020813181FC01EF52FE4F8081918104C03C
:103FD0008AE090E021E030E0881599051CF45F5FED
:103FE0005F8B04C0821693060CF54F8BCE010E94A6
:103FF000F3194F89552747FD5095B201CE010E9414
:10400000621DCE01DF91CF911F910F91FF90EF9034
:10401000DF90CF90BF90AF909F908F907F906F90E8
:104020005F904F903F902F900C9428189FEF291687
:104030003906E4F6DF91CF911F910F91FF90EF9039
:10404000DF90CF90BF90AF909F908F907F906F90B8
:104050005F904F903F902F900895CF93DF93EC01A6
:1040600061307105E9F064F4672B91F540E06FEF82
:1040700080E00E94A9199B01AC0160E070E023C0C0
:1040800062307105B9F06330710511F540E06FEFF2
:1040900080E00E94A9199B01AC0168E170E013C0A7
:1040A00040E06FEF80E00E94A9199B01AC0168E03D
:1040B00070E009C040E06FEF80E00E94A9199B0109
:1040C000AC0160E170E0CE01DF91CF910C94441916
:1040D000DF91CF9108951F920F920FB60F92112486
:1040E0002F933F938F939F93AF93BF9380917D05C1
:1040F00090917E05A0917F05B091800530917C055F
:1041000023E0230F2D3720F40196A11DB11D05C01A
:1041100026E8230F0296A11DB11D20937C058093F4
:104120007D0590937E05A0937F05B09380058091D7
:10413000810590918205A0918305B0918405019637
:10414000A11DB11D8093810590938205A0938305E5
:10415000B0938405BF91AF919F918F913F912F9123
:104160000F900FBE0F901F9018952FB7F894609185
:104170007D0570917E0580917F05909180052FBF10
:1041800008953FB7F8948091810590918205A091A0
:104190008305B091840526B5A89B05C02F3F19F073
:1041A0000196A11DB11D3FBF6627782F892F9A2F39
:1041B000620F711D811D911D42E0660F771F881FE0
:1041C000991F4A95D1F70895789484B5826084BD8B
:1041D00084B5816084BD85B5826085BD85B581600B
:1041E00085BDEEE6F0E0808181608083E1E8F0E06B
:1041F0001082808182608083808181608083E0E89A
:10420000F0E0808181608083E1EBF0E08081846078
:104210008083E0EBF0E0808181608083EAE7F0E07A
:1042200080818460808380818260808380818160DE
:1042300080838081806880831092C10008958330DC
:1042400081F028F4813099F08230A1F00895873010
:10425000A9F08830B9F08430D1F4809180008F7D4E
:1042600003C0809180008F7780938000089584B58B
:104270008F7702C084B58F7D84BD08958091B00092
:104280008F7703C08091B0008F7D8093B000089538
:10429000CF93DF9390E0FC01E651FF4F2491FC01A6
:1042A000E250FF4F8491882349F190E0880F991FD5
:1042B000FC01EA5DFE4FA591B491845E9E4FFC0126
:1042C000C591D4919FB7611108C0F8948C91209545
:1042D00082238C93888182230AC0623051F4F8943F
:1042E0008C91322F309583238C938881822B888305
:1042F00004C0F8948C91822B8C939FBFDF91CF9157
:1043000008950F931F93CF93DF931F92CDB7DEB71E
:10431000282F30E0F901EA52FF4F8491F901E6516C
:10432000FF4F1491F901E250FF4F04910023C9F0AF
:10433000882321F069830E941F216981E02FF0E02A
:10434000EE0FFF1FE45EFE4FA591B4919FB7F89466
:104350008C91611103C01095812301C0812B8C9336
:104360009FBF0F90DF91CF911F910F910895CF9331
:10437000DF93282F30E0F901EA52FF4F8491F901D1
:10438000E651FF4FD491F901E250FF4FC491CC2385
:1043900091F081110E941F21EC2FF0E0EE0FFF1F22
:1043A000EE5EFE4FA591B4912C912D2381E090E01B
:1043B00021F480E002C080E090E0DF91CF91089589
:1043C000FC01818D228D90E0805C9F4F821B9109C2
:1043D0008F7399270895FC01918D828D981731F084
:1043E000828DE80FF11D858D90E008958FEF9FEF8E
:1043F0000895FC01918D828D981761F0828DDF0107
:10440000A80FB11D5D968C91928D9F5F9F73928FC7
:1044100090E008958FEF9FEF0895FC01848DDF01F8
:10442000A80FB11DA35ABF4F2C91848D90E0019627
:104430008F739927848FA689B7892C93A089B18916
:104440008C9180648C93938D848D981306C0028820
:10445000F389E02D80818F7D80830895CF93DF9352
:10446000EC01888D8823C9F0EA89FB89808185FD6C
:1044700005C0A889B9898C9186FD0FC00FB607FCCD
:10448000F5CF808185FFF2CFA889B9898C9185FF0E
:10449000EDCFCE010E940D22E7CFDF91CF9108959D
:1044A000CF92DF92FF920F931F93CF93DF931F92D0
:1044B000CDB7DEB76C0181E0D60158968C93589742
:1044C0005B969C915B975C968C915C97981307C068
:1044D0005096ED91FC915197808185FD2EC0F6019B
:1044E000038D10E00F5F1F4F0F731127F02EF601A1
:1044F000848DF81211C00FB607FCF9CFD601509683
:10450000ED91FC915197808185FFF1CFC6016983C0
:104510000E940D226981EBCF838DE80FF11DE35AD4
:10452000FF4F6083D6015B960C935B975296ED919B
:10453000FC915397808180620CC0D6015696ED9114
:10454000FC91579760835096ED91FC915197808133
:104550008064808381E090E00F90DF91CF911F9184
:104560000F91FF90DF90CF900895BF92CF92DF928E
:10457000EF92FF92CF93DF93EC016A017B01B22EA1
:10458000E889F98982E08083411581EE5807610549
:104590007105A1F060E079E08DE390E0A70196015C
:1045A0000E944C28215031094109510956954795DF
:1045B00037952795211580E1380798F0E889F98922
:1045C000108260E874E88EE190E0A70196010E94F5
:1045D0004C28215031094109510956954795379585
:1045E0002795EC85FD853083EE85FF852083188E29
:1045F000EC89FD89B082EA89FB89808180618083B2
:10460000EA89FB89808188608083EA89FB898081CF
:1046100080688083EA89FB8980818F7D8083DF9138
:10462000CF91FF90EF90DF90CF90BF9008951F92B1
:104630000F920FB60F9211242F938F939F93EF93A6
:10464000FF93E0919505F09196058081E0919B059F
:10465000F0919C0582FD12C0908180919E058F5F34
:104660008F7320919F05821751F0E0919E05F0E035
:10467000EB57FA4F958F80939E0501C08081FF9183
:10468000EF919F918F912F910F900FBE0F901F90E0
:1046900018951F920F920FB60F9211242F933F93EC
:1046A0004F935F936F937F938F939F93AF93BF933A
:1046B000EF93FF9385E895E00E940D22FF91EF9123
:1046C000BF91AF919F918F917F916F915F914F912A
:1046D0003F912F910F900FBE0F901F901895109241
:1046E00088051092870588EE93E0A0E0B0E0809303
:1046F000890590938A05A0938B05B0938C0589EF6B
:1047000091E0909386058093850585EC90E09093E9
:1047100092058093910584EC90E0909394058093AA
:10472000930580EC90E0909396058093950581EC3D
:1047300090E0909398058093970582EC90E0909399
:104740009A058093990586EC90E090939C05809360
:104750009B0510929E0510929F051092A005109245
:10476000A1050895CF92DF92EF92FF920F931F93CE
:10477000CF93DF937C016A01EB0100E010E00C15A0
:104780001D0571F06991D701ED91FC910190F081C7
:10479000E02DC7010995892B19F00F5F1F4FEFCF4F
:1047A000C801DF91CF911F910F91FF90EF90DF90A3
:1047B000CF9008956115710581F0DB010D90002007
:1047C000E9F7AD0141505109461B570BDC01ED9152
:1047D000FC910280F381E02D099480E090E008953F
:1047E0000C94DA2365E072E00C94DA230F931F93A4
:1047F000CF93DF93EC010E94DA238C01CE010E945B
:10480000F223800F911FDF91CF911F910F91089597
:104810008F929F92AF92BF92DF92EF92FF920F938F
:104820001F93CF93DF93CDB7DEB7A1970FB6F89460
:10483000DEBF0FBECDBF7C01F42FD52ECB0119A258
:10484000223008F42AE08E010F5D1F4F822E912C3A
:10485000A12CB12C6F2F7D2DA50194010E944C2815
:10486000F22FD32ECA01015011096A3014F4E0E38B
:1048700001C0E7E3E60FD801EC93232B242B252B73
:1048800049F7B801C7010E94DA23A1960FB6F89440
:10489000DEBF0FBECDBFDF91CF911F910F91FF9073
:1048A000EF90DF90BF90AF909F908F90089521156B
:1048B000310541F4DC01ED91FC910190F081E02D96
:1048C000642F09940C9408240F931F93CF93DF93C4
:1048D000EC019A01462F50E060E070E00E945724FE
:1048E0008C01CE010E94F223800F911FDF91CF91A6
:1048F0001F910F9108954F925F926F927F92AF92A6
:10490000BF92CF92DF92EF92FF920F931F93CF93BC
:10491000DF93CDB7DEB729013A01621B730B840B1D
:10492000950B29893A894B895C892A193B094C09DD
:104930005D09298B3A8B4B8B5C8B9B01AC016989A0
:104940007A898B899C890E941428E418F508060945
:104950001709A80197010E946E282A0D3B1D4C1DC6
:104960005D1DCA01B901DF91CF911F910F91FF9099
:10497000EF90DF90CF90BF90AF907F906F905F905F
:104980004F9008955058BB27AA270ED027C2F0D1C8
:1049900030F0F5D120F031F49F3F11F41EF4C0C186
:1049A0000EF4E095E7FBB6C1E92F3AD280F3BA17CF
:1049B000620773078407950718F071F49EF552C2D9
:1049C0000EF4E0950B2EBA2FA02D0B01B90190012A
:1049D0000C01CA01A0011124FF27591B99F0593F6E
:1049E00050F4503E68F11A16F040A22F232F342FB6
:1049F0004427585FF3CF469537952795A795F04004
:104A00005395C9F77EF41F16BA0B620B730B840B18
:104A1000BAF09150A1F0FF0FBB1F661F771F881FD0
:104A2000C2F70EC0BA0F621F731F841F48F4879528
:104A300077956795B795F7959E3F08F0B3CF939517
:104A4000880F08F09927EE0F97958795089590D1D4
:104A500058F080E891E009F49EEF91D128F040E809
:104A600051E059F45EEF09C05BC1FCC1E92FE07869
:104A7000D7D168F3092E052AC1F32617370748074F
:104A8000590738F00E2E07F8E02569F0E025E064BC
:104A90000AC0EF6307F8009407FADB01B9019D0132
:104AA000DC01CA01AD01EF934AD098D10AD05F91E1
:104AB000552331F02BED3FE049E450FD49EC63CF45
:104AC0000895DF93DD27B92FBF7740E85FE316161F
:104AD000170648075B0710F4D92FCBD19F938F930C
:104AE0007F936F9378D2EAE7F0E01DD177D12F91D1
:104AF0003F914F915F91D0D1DD2349F09058A2EAC8
:104B00002AED3FE049EC5FE3D0785D274DDFDF9190
:104B100065C1DCD008F481E0089539D1E3956FC117
:104B20000CD05CC12CD140F023D130F021F45F3F98
:104B300019F0F0C0511197C1F3C072D198F39923C5
:104B4000C9F35523B1F3951B550BBB27AA27621751
:104B50007307840738F09F5F5F4F220F331F441F96
:104B6000AA1FA9F333D00E2E3AF0E0E830D09150CE
:104B70005040E695001CCAF729D0FE2F27D0660FBB
:104B8000771F881FBB1F261737074807AB07B0E8FA
:104B900009F0BB0B802DBF01FF2793585F4F2AF010
:104BA0009E3F510568F0B6C05EC15F3FECF3983E92
:104BB000DCF3869577956795B795F7959F5FC9F76D
:104BC000880F911D9695879597F90895E1E0660FF6
:104BD000771F881FBB1F621773078407BA0720F06F
:104BE000621B730B840BBA0BEE1F88F7E0950895D8
:104BF00004D06894B11137C108951AD188F09F5735
:104C000090F0B92F9927B751A0F0D1F0660F771F18
:104C1000881F991F1AF0BA95C9F712C0B13081F0F8
:104C200021D1B1E008951EC1672F782F8827B85F82
:104C300039F0B93FCCF3869577956795B395D9F759
:104C40003EF490958095709561957F4F8F4F9F4F63
:104C50000895E89409C097FB3EF49095809570956F
:104C600061957F4F8F4F9F4F9923A9F0F92F96E9B8
:104C7000BB279395F695879577956795B795F1112D
:104C8000F8CFFAF4BB0F11F460FF1BC06F5F7F4FCA
:104C90008F4F9F4F16C0882311F096E911C07723DC
:104CA00021F09EE8872F762F05C0662371F096E8E5
:104CB000862F70E060E02AF09A95660F771F881FB4
:104CC000DAF7880F9695879597F90895990F000858
:104CD000550FAA0BE0E8FEEF16161706E807F907CE
:104CE000C0F012161306E407F50798F0621B730B69
:104CF000840B950B39F40A2661F0232B242B252BEA
:104D000021F408950A2609F4A140A6958FEF811D8C
:104D1000811D089597F99F6780E870E060E008952D
:104D20009FEF80EC0895DF93CF931F930F93FF9233
:104D3000EF92DF927B018C01689405C0DA2EEF01BF
:104D4000ABD0FE01E894A5912591359145915591FF
:104D5000AEF3EF0129DEFE019701A801DA9479F79D
:104D6000DF90EF90FF900F911F91CF91DF91089509
:104D700000240A941616170618060906089500243A
:104D80000A9412161306140605060895C9CF50D0CA
:104D9000E8F3E894E0E0BB279F57F0F02AED3FE00E
:104DA00049EC06C0EE0FBB0F661F771F881F28F067
:104DB000B23A62077307840728F0B25A620B730B8A
:104DC000840BE3959A9572F7803830F49A95BB0F6F
:104DD000661F771F881FD2F7904802C1092E0394DF
:104DE000000C11F4882352F0BB0F40F4BF2B11F4D8
:104DF00060FF04C06F5F7F4F8F4F9F4F0895EF9309
:104E0000E0FF06C0A2EA2AED3FE049EC5FEBCCDD13
:104E1000E5DF0F90039401FC9058E7EAF0E0F3C05F
:104E200057FD9058440F551F59F05F3F71F047955B
:104E3000880F97FB991F61F09F3F79F08795089540
:104E4000121613061406551FF2CF4695F1DF08C05F
:104E5000161617061806991FF1CF8695710561057C
:104E600008940895E894BB2766277727CB0197F924
:104E700008959B01AC0160E070E080E89FE350CEB4
:104E80000BD0ACCF75DF28F07ADF18F0952309F04E
:104E900041CF46CF1124E7CFC3DFA0F3959FD1F3D5
:104EA000950F50E0551F629FF001729FBB27F00DD8
:104EB000B11D639FAA27F00DB11DAA1F649F66272D
:104EC000B00DA11D661F829F2227B00DA11D621F7C
:104ED000739FB00DA11D621F839FA00D611D221F36
:104EE000749F3327A00D611D231F849F600D211D1A
:104EF000822F762F6A2F11249F5750408AF0E1F0BD
:104F000088234AF0EE0FFF1FBB1F661F771F881F05
:104F100091505040A9F79E3F510570F0FBCEA3CFB2
:104F20005F3FECF3983EDCF3869577956795B795F0
:104F3000F795E7959F5FC1F7FE2B880F911D96951A
:104F4000879597F908959F9322DF0F9007FCEE5FF6
:104F500056CF11F40EF4E4CE41C06ADFD0F39923AA
:104F6000D9F3CEF39F57550B87FF46D00024A0E618
:104F700040EA900180585695979528F4805C660F1A
:104F8000771F881F20F026173707480730F4621B69
:104F9000730B840B202931294A2BA695179407946B
:104FA000202531254A2758F7660F771F881F20F0E4
:104FB00026173707480730F4620B730B840B200D5C
:104FC000311D411DA09581F7B901842F9158880F9B
:104FD0009695879508959B01AC0152CF9F3F31F084
:104FE000915020F4879577956795B795880F911D17
:104FF0009695879597F9089591505040660F771FC1
:10500000881FD2F708959F938F937F936F93FF9399
:10501000EF939B01AC0134DFEF91FF9184DE2F9180
:105020003F914F915F912CCFDB018F939F930E9413
:105030009328BF91AF91A29F800D911DA39F900DCA
:10504000B29F900D11240895AA1BBB1B51E107C00C
:10505000AA1FBB1FA617B70710F0A61BB70B881F08
:10506000991F5A95A9F780959095BC01CD01089597
:1050700097FB072E16F4009407D077FD09D00E9405
:10508000242807FC05D03EF4909581959F4F089504
:10509000709561957F4F0895A1E21A2EAA1BBB1B44
:1050A000FD010DC0AA1FBB1FEE1FFF1FA217B307F4
:1050B000E407F50720F0A21BB30BE40BF50B661F0A
:1050C000771F881F991F1A9469F7609570958095CE
:1050D00090959B01AC01BD01CF010895052E97FB72
:1050E0001EF400940E94852857FD07D00E944C288A
:1050F00007FC03D04EF40C948528509540953095CC
:1051000021953F4F4F4F5F4F089590958095709533
:1051100061957F4F8F4F9F4F0895EE0FFF1F0590B2
:10512000F491E02D09940E949E28A59F900DB49FB4
:10513000900DA49F800D911D11240895A29FB00190
:10514000B39FC001A39F700D811D1124911DB29FBB
:10515000700D811D1124911D0895CF93DF9382302E
:10516000910510F482E090E0E0912406F09125068C
:1051700020E030E0A0E0B0E0309739F1408151818B
:1051800048175907B8F04817590771F4828193817D
:10519000109729F013969C938E9312972CC090939E
:1051A00025068093240627C02115310531F04217CA
:1051B000530718F0A901DB0101C0EF019A01BD01FD
:1051C000DF010280F381E02DD7CF21153105F9F001
:1051D000281B390B2430310580F48A819B816115AD
:1051E000710521F0FB019383828304C0909325060F
:1051F00080932406FE01329644C0FE01E20FF31FA5
:105200008193919322503109398328833AC02091A8
:10521000220630912306232B41F420910201309184
:105220000301309323062093220620910001309140
:1052300001012115310541F42DB73EB7409104011C
:1052400050910501241B350BE0912206F0912306B5
:10525000E217F307A0F42E1B3F0B2817390778F04D
:10526000AC014E5F5F4F2417350748F04E0F5F1FAC
:1052700050932306409322068193919302C0E0E06D
:10528000F0E0CF01DF91CF910895CF93DF930097A6
:1052900009F487C0FC01329713821282C091240660
:1052A000D0912506209781F420813181280F391F64
:1052B00080912206909123068217930779F5F09347
:1052C0002306E09322066DC0DE0120E030E0AE1739
:1052D000BF0750F412964D915C9113979D014115B3
:1052E000510509F1DA01F3CFB383A28340815181E3
:1052F000840F951F8A179B0771F48D919C911197CC
:10530000840F951F02969183808312968D919C91B4
:105310001397938382832115310529F4F093250691
:10532000E09324063EC0D9011396FC93EE931297A6
:105330004D915D91A40FB51FEA17FB0779F48081A9
:105340009181840F951F0296D90111969C938E939B
:105350008281938113969C938E931297E0E0F0E004
:105360008A819B81009719F0FE01EC01F9CFCE01F3
:10537000029628813981820F931F20912206309155
:1053800023062817390769F4309729F41092250667
:105390001092240602C013821282D0932306C09377
:1053A0002206DF91CF9108952F923F925F926F92E4
:1053B0007F928F929F92AF92BF92CF92DF92EF92A5
:1053C000FF920F931F93CF93DF938B01EA01611537
:1053D000710521F0DB018C9311969C93209739F095
:1053E0009E01225031092332310508F0FBC07C01B7
:1053F0006701BFEFCB1ADB0A5601F7016080862DEB
:1054000090E00E940C2B892B11F07601F1CFFDE288
:105410006F120AC0570182E0A80EB11CD701119685
:105420006C90772473940BC0BBE26B1207C05701DA
:10543000E2E0AE0EB11CD70111966C90712CCE013A
:105440008F7E892B89F4B0E36B1222C0F501808135
:105450008F7D883541F56180F2E0AF0EB11C872D5C
:105460008260782EC0E1D0E0C830D105F1F04CF474
:10547000C230D10511F5C12CD12CE12CB0E4FB2EAA
:105480002FC0CA30D10531F0C031D10521F115C08E
:10549000209751F7CAE0D0E0ACECCA2EDC2CEC2C03
:1054A000ACE0FA2E1DC02097F9F6C8E0D0E0C12C80
:1054B000D12CE12CF0E1FF2E13C060E070E080E021
:1054C00090E89E01442737FD4095542F0E944C28B8
:1054D00069017A0105C0C12CD12CE12CE8E0FE2E37
:1054E000F50160E020E030E0A9014E01AA2497FC1C
:1054F000A094BA2C1F0170ED572E560CA9E0A515EB
:1055000070F48FEB860D8A3118F499EC592E06C091
:105510008FE9860D8A3130F589EA582E560C852D93
:1055200090E08C179D07F4F467FD18C0C216D306EF
:10553000E406F50680F0C501B4010E9414289B0121
:10554000AC01250D311D411D511D21303105410595
:10555000B0E85B0710F06FEF01C061E03196D10158
:105560006C90C8CF872D81700115110571F06623ED
:1055700029F03197D801ED93FC9307C071FE19C053
:105580003297D801ED93FC9314C067FF12C08823B3
:1055900029F020E030E040E050E804C02FEF3FEF7A
:1055A0004FEF5FE782E290E0909327068093260614
:1055B00016C0882341F050954095309521953F4F76
:1055C0004F4F5F4F0CC057FF0AC082E290E09093AC
:1055D0002706809326062FEF3FEF4FEF5FE7B901D5
:1055E000CA0104C060E070E080E090E0DF91CF91FC
:1055F0001F910F91FF90EF90DF90CF90BF90AF90F1
:105600009F908F907F906F905F903F902F90089524
:10561000662777270C946E2B9111C3C1803219F045
:1056200089508550D0F7089546E152E00E94472BFB
:105630000895FB01DC0104C08D910190801921F4D3
:1056400041505040C8F7881B990B0895DC0101C0F8
:105650006D9341505040E0F70895FC018191861709
:1056600021F08823D9F7992708953197CF0108951C
:10567000FB01DC014150504048F001900D920020A8
:10568000C9F701C01D9241505040E0F70895FA015A
:10569000A191B081009719F41097E1F0CD01DC01E0
:1056A000CD010D90002011F4C00113C0FB01219128
:1056B000222319F02015D9F7F3CFFB0121912015F2
:1056C00019F41E92119606C02223C1F70D900020F6
:1056D000A1F7D001FA01A193B0830895A0E0B0E052
:1056E000E4E7FBE20C94F22C8B016115710521F0CB
:1056F000DB018C9311969C93EC015E01BFEFAB1A1A
:10570000BB0A7501C8808C2D90E00E940C2B892B60
:1057100011F0E501F2CFEDE2CE1208C07E01F2E019
:10572000EF0EF11CC980DD24D39409C02BE2C21214
:1057300005C07E0142E0E40EF11CC980D12CE701D6
:10574000219743E050E068E371E0CE010E94D42C41
:10575000892BC1F4239645E050E063E371E0CE016C
:105760000E94D42C892B09F425960115110519F0F6
:10577000D801CD93DC93D11006C160E070E080E8E1
:105780009FE70AC143E050E060E371E0CE010E9470
:10579000D42C892B59F40115110509F4F9C0B2E094
:1057A000EB0EF11CF801F182E082F2C0F70160E03B
:1057B00070E0CB01C0E0D0E07F01A0EDAA2EAC0CE0
:1057C00029E02A1530F14D2D4260B42E2D2D287080
:1057D000D2FE04C0211125C0219623C0211121979A
:1057E000A5E0B0E09B01AC010E949328660F771FF3
:1057F000881F991F6A0D711D811D911D6839A9E9C6
:105800007A078A07A9E19A0760F0BD2DB660BB2E22
:1058100008C02EEFA2120AC0D3FC50C04D2D486024
:10582000B42E3196D701CC90DB2CC6CF2C2D2F7DFA
:10583000253409F043C0A081AD3241F4BD2DB061E3
:10584000DB2E7F0122E0E20EF11C0CC07F01AB32A7
:1058500031F04FEFE41AF40A21E030E006C0A2E094
:10586000EA0EF11CA18122E030E0A053AA3018F02A
:10587000E21AF30A23C0F70120E030E02038BCE050
:105880003B075CF4A901440F551F440F551F240F1B
:10589000351F220F331F2A0F311DAF014F5F5F4F9E
:1058A0007A01A081A053AA3010F4FA01E7CFD4FE08
:1058B00003C0319521953109C20FD31FD1FE09C014
:1058C0000115110531F0E1E0EE1AF108D801ED9271
:1058D000FC920E9429262D2D2370233019F04B01B4
:1058E0005C0106C04B015C01B7FAB094B7F8B09404
:1058F00020E030E0A901C501B4010E948925882378
:1059000009F43EC0D7FF06C0D195C195D1090FE477
:1059100011E002C007E611E06801B8E1CB1AD10836
:1059200090E2E92EF12CCE15DF0574F0F8012591F7
:10593000359145915491C501B4010E9440274B0116
:105940005C01CE19DF09EFCF04501109F594E794FB
:105950000C151D0541F78A2D880F8B2D881F8F3F51
:1059600049F020E030E0A901C501B4010E94892579
:10597000811106C082E290E090932706809326066C
:10598000C501B40109C060E070E080E89FEF04C089
:1059900060E070E080EC9FE7CDB7DEB7ECE00C9400
:1059A0000E2D992788270895FB01DC0141505040B6
:1059B00088F08D9181341CF08B350CF4805E6591FC
:1059C00061341CF06B350CF4605E861B611171F361
:1059D000990B0895881BFCCF2F923F924F925F92B4
:1059E0006F927F928F929F92AF92BF92CF92DF92EF
:1059F000EF92FF920F931F93CF93DF93CDB7DEB754
:105A0000CA1BDB0B0FB6F894DEBF0FBECDBF0994E7
:105A10002A88398848885F846E847D848C849B843E
:105A2000AA84B984C884DF80EE80FD800C811B814C
:105A3000AA81B981CE0FD11D0FB6F894DEBF0FBE7B
:105A4000CDBFED01089511E0C4E7D1E004C0FE012F
:105A50000E948F282296C637D107C9F7F894FFCF46
:105A600000002806800001000000FFFFFFFF4361E7
:105A70007264204661696C757265004D794D617084
:105A80004E4E2E7478740024504D544B3232302CCC
:105A9000313030302A31460024504D544B333030B1
:105AA0002C313030302C302C302C302C302A3143FB
:105AB0000024504D544B3331342C302C312C302CAD
:105AC000302C302C302C302C302C302C302C302CF6
:105AD000302C302C302C302C302C302C302C302AE8
