:100000000C9464000C948C000C948C000C94FE01F5
:100010000C94FE010C94FE010C948C000C948C004A
:100020000C948C000C948C000C948C000C948C0020
:100030000C948C000C948C000C948C000C948C0010
:100040000C948F030C948C000C94E3050C9415060F
:100050000C948C000C948C000C948C000C948C00F0
:100060000C948C000C948C0000000008000201002D
:100070000003040700000000000000000102040863
:100080001020408001020408102001020408102002
:10009000040404040404040402020202020203032E
:1000A00003030303000000002300260029000000D2
:1000B0000000250028002B0000000000240027007D
:1000C0002A008E003B06950011241FBECFEFD8E01A
:1000D000DEBFCDBF11E0A0E0B1E0EEE6F1E102C08D
:1000E00005900D92A439B107D9F723E0A4E9B1E056
:1000F00001C01D92AF31B207E1F710E0C6ECD0E0CD
:1001000004C02297FE010E943D07C23CD107C9F7F7
:100110000E94EF000C94AA080C94000020E047E035
:1001200068E084E991E00C94D10284E991E00C94B8
:100130007802CF93DF9380E8E3EBF1E0DF011D92DB
:100140008A95E9F7C0E084E991E00E948F01019669
:10015000D1F384E991E00E941B01AC2FB0E0AD54D3
:10016000BE4F8C93CC2329F0843219F48093B301D1
:10017000C0E08091B301843231F781E08C0FEC2F25
:10018000F0E0ED54FE4F90819A3011F0C82FDBCF94
:1001900090E0FC01EF54FE4F1082EC012597FE0128
:1001A000ED54FE4F20812A3269F640E150E060E0D4
:1001B00070E081559E4F0E94410721E0822F90E020
:1001C0008C179D073CF4FC01ED54FE4F808168279D
:1001D0002F5FF4CF6111B6CFDF91CF9108950E94C8
:1001E000D90326E040E052EC61E070E080E892E064
:1001F0000E94810540E855E260E070E084E991E00A
:100200000E94010366E071E084E991E00E94C0066B
:1002100067E171E084E991E00E94C00660E371E06B
:1002200084E991E00E94C0060E94990063EB71E0AE
:1002300080E892E0F7CF209175023091760228177E
:100240003907B9F49091330280913402981789F0FC
:10025000E0913302F0E0EB5CFD4F808120913302AE
:1002600030E02F5F3F4F2F7333272093330290E00E
:1002700008958FEF9FEF08951F93CF93DF93DC01D5
:100280005C968D919C915D97009749F481E090E098
:1002900013969C938E93129780E090E03BC051960A
:1002A000ED91FC91529750962C915097322F3095AA
:1002B0001FB75E964C915E9741FB772770F941FD21
:1002C0006095F8944081772311F0422B01C04323BD
:1002D0004083EC012197F1F748E0508160FF02C0B4
:1002E000522B01C053235083EC012197F1F76695FF
:1002F000415099F78081772311F0832301C0822B2D
:1003000080831FBF5C968D919C915D970197F1F75B
:1003100081E090E0DF91CF911F91089508952091A1
:100320007502309176022817390771F490913302E3
:1003300080913402981741F0E0913302F0E0EB5CD9
:10034000FD4F808190E008958FEF9FEF08952091F9
:100350007502309176022817390771F480913402C2
:100360002091330290E0805C9F4F821B910960E4F2
:1003700070E00E94E606089580E090E00895E09124
:100380007502F0917602E817F90769F4A389B48938
:100390009C918589809589238C9310927602109286
:1003A000750281E0089580E00895CF93DF93EC011A
:1003B0008A8D9B8D892BF1F0809175029091760248
:1003C0008C179D07B9F0009711F00E94BF018E8D28
:1003D0008E7F8E8F1092340210923302D093760269
:1003E000C0937502EB89FC8980819D89892B80836C
:1003F00081E001C080E0DF91CF9108951F920F92BC
:100400000FB60F9211242F933F934F935F936F93E7
:100410007F938F939F93AF93BF93EF93FF93E0915D
:100420007502F0917602309709F451C0868DA68549
:10043000B785958581FF04C08C91892329F447C035
:100440008C91892309F043C0A389B4899C91858943
:10045000809589238C93868997890197F1F7208D60
:10046000318DA685B785758558E040E0C9010197B3
:10047000F1F7842F90E095958795482F6C9167232D
:1004800009F04068515091F7868D81FD409580912B
:10049000340290E001968F73992720913302281738
:1004A00049F0A0913402B0E0AB5CBD4F4C93809317
:1004B000340203C0868D8160868F828D938D019773
:1004C000F1F7A389B4898C919589892B8C93FF913D
:1004D000EF91BF91AF919F918F917F916F915F91BC
:1004E0004F913F912F910F900FBE0F901F90189535
:1004F00026E631E0FC01318320830C94BF011F9379
:10050000CF93DF93EC01162F6E8D6695617081E0BD
:100510006827812F0E94760461E0812F0E943D04AC
:10052000812F90E0FC01E458FF4FE491E88BFC013F
:10053000E057FF4FE491F0E0EE0FFF1FE255FF4F51
:10054000859194919A8B898BDF91CF911F9108951A
:100550001F93CF93DF93EC01162F60E0812F0E9451
:100560003D048E8D81FD04C061E0812F0E947604E0
:100570001C87812F90E0FC01E458FF4FE491ED8748
:10058000FC01E057FF4FE491F0E0EE0FFF1FEC5548
:10059000FF4F859194919F878E87DF91CF911F9117
:1005A0000895FF920F931F93CF93DF93EC01F62EE4
:1005B000522F1B821A8208EE13E020E030E00C83F9
:1005C0001D832E833F8386E691E0998388831F8A6B
:1005D0001E8A198E188E1B8E1A8E1D8E1C8E8E8D65
:1005E0008E7F50FB81F98E8F642FCE010E947F0297
:1005F0006F2DCE01DF91CF911F910F91FF900C9441
:10060000A802CF93DF93EC019A01AB011B8E1A8EE7
:10061000198E188E1F8A1E8A60E079E08DE390E0C3
:100620000E941C07C9012430310520F0B901635034
:10063000710902C061E070E07D8F6C8FEC85E6315E
:1006400008F068C0B901769567956431710518F0B6
:100650006351710902C061E070E07F8B6E8B069779
:1006600018F0C901059702C081E090E0998F888F4A
:10067000C901880F991F820F931F969587959695AC
:1006800087958D30910510F00C9702C081E090E0C5
:100690009B8F8A8F20916800E83050F091E0EE3017
:1006A00008F490E081E001C0880F9A95EAF701C054
:1006B00084E0822B809368002C85283038F02E301F
:1006C00040F0263148F48CE690E008C08DE690E0DA
:1006D00005C08BE690E002C080E090E09C8B8B8BA5
:1006E000283030F481E001C0880F2A95EAF70DC068
:1006F000822F90E02E3010F4089701C00E9791E001
:1007000001C0990F8A95EAF7892F8D8B8C8D9D8D6D
:100710000197F1F7CE01DF91CF910C94D5011F9293
:100720000F920FB60F9211242F933F938F939F93A5
:10073000AF93BF938091780290917902A0917A0251
:10074000B0917B023091770223E0230F2D3720F404
:100750000196A11DB11D05C026E8230F0296A11D1B
:10076000B11D209377028093780290937902A09331
:100770007A02B0937B0280917C0290917D02A091DD
:100780007E02B0917F020196A11DB11D80937C0273
:1007900090937D02A0937E02B0937F02BF91AF91B0
:1007A0009F918F913F912F910F900FBE0F901F90AF
:1007B0001895789484B5826084BD84B5816084BDC9
:1007C00085B5826085BD85B5816085BDEEE6F0E0CA
:1007D000808181608083E1E8F0E010828081826026
:1007E0008083808181608083E0E8F0E080818160A7
:1007F0008083E1EBF0E0808184608083E0EBF0E0D7
:10080000808181608083EAE7F0E08081846080837A
:100810008081826080838081816080838081806824
:1008200080831092C1000895833081F028F48130D4
:1008300099F08230A1F008958730A9F08830B9F09E
:100840008430D1F4809180008F7D03C0809180003E
:100850008F7780938000089584B58F7702C084B528
:100860008F7D84BD08958091B0008F7703C0809103
:10087000B0008F7D8093B0000895CF93DF9390E018
:10088000FC01E458FF4F2491FC01E057FF4F849195
:10089000882349F190E0880F991FFC01E854FF4F2D
:1008A000A591B49182559F4FFC01C591D4919FB7FA
:1008B000611108C0F8948C91209582238C938881D3
:1008C00082230AC0623051F4F8948C91322F309513
:1008D00083238C938881822B888304C0F8948C9125
:1008E000822B8C939FBFDF91CF9108950F931F931D
:1008F000CF93DF931F92CDB7DEB7282F30E0F901F9
:10090000E859FF4F8491F901E458FF4F1491F90120
:10091000E057FF4F04910023C9F0882321F0698339
:100920000E9414046981E02FF0E0EE0FFF1FE255F2
:10093000FF4FA591B4919FB7F8948C91611103C0BA
:100940001095812301C0812B8C939FBF0F90DF9165
:10095000CF911F910F910895FC01818D228D90E020
:10096000805C9F4F821B91098F7399270895FC012A
:10097000918D828D981731F0828DE80FF11D858D54
:1009800090E008958FEF9FEF0895FC01918D828D87
:10099000981761F0828DDF01A80FB11D5D968C91D3
:1009A000928D9F5F9F73928F90E008958FEF9FEFDE
:1009B0000895FC01848DDF01A80FB11DA35ABF4F1C
:1009C0002C91848D90E001968F739927848FA6894E
:1009D000B7892C93A089B1898C9180648C93938D75
:1009E000848D981306C00288F389E02D80818F7D65
:1009F00080830895CF93DF93EC01888D8823C9F01D
:100A0000EA89FB89808185FD05C0A889B9898C9117
:100A100086FD0FC00FB607FCF5CF808185FFF2CFB2
:100A2000A889B9898C9185FFEDCFCE010E94D904A8
:100A3000E7CFDF91CF910895CF92DF92FF920F938E
:100A40001F93CF93DF931F92CDB7DEB76C0181E088
:100A5000D60158968C9358975B969C915B975C96C1
:100A60008C915C97981307C05096ED91FC9151972B
:100A7000808185FD2EC0F601038D10E00F5F1F4FB2
:100A80000F731127F02EF601848DF81211C00FB6E6
:100A900007FCF9CFD6015096ED91FC9151978081DA
:100AA00085FFF1CFC60169830E94D9046981EBCF2C
:100AB000838DE80FF11DE35AFF4F6083D6015B96EB
:100AC0000C935B975296ED91FC91539780818062D5
:100AD0000CC0D6015696ED91FC91579760835096C5
:100AE000ED91FC91519780818064808381E090E05A
:100AF0000F90DF91CF911F910F91FF90DF90CF90DA
:100B00000895BF92CF92DF92EF92FF92CF93DF933F
:100B1000EC016A017B01B22EE889F98982E08083C9
:100B2000411581EE580761057105A1F060E079E09B
:100B30008DE390E0A70196010E94FA062150310949
:100B4000410951095695479537952795211580E11B
:100B5000380798F0E889F989108260E874E88EE136
:100B600090E0A70196010E94FA062150310941093F
:100B700051095695479537952795EC85FD85308326
:100B8000EE85FF852083188EEC89FD89B082EA8985
:100B9000FB89808180618083EA89FB89808188600C
:100BA0008083EA89FB89808180688083EA89FB8968
:100BB00080818F7D8083DF91CF91FF90EF90DF90D8
:100BC000CF90BF9008951F920F920FB60F921124ED
:100BD0002F938F939F93EF93FF93E0919002F09167
:100BE00091028081E0919602F091970282FD12C0FD
:100BF0009081809199028F5F8F7320919A02821762
:100C000051F0E0919902F0E0E058FD4F958F80930C
:100C1000990201C08081FF91EF919F918F912F9157
:100C20000F900FBE0F901F9018951F920F920FB646
:100C30000F9211242F933F934F935F936F937F9362
:100C40008F939F93AF93BF93EF93FF9380E892E0CE
:100C50000E94D904FF91EF91BF91AF919F918F9125
:100C60007F916F915F914F913F912F910F900FBEA8
:100C70000F901F901895109283021092820288EEB6
:100C800093E0A0E0B0E08093840290938502A0936B
:100C90008602B093870286E791E090938102809369
:100CA000800285EC90E090938D0280938C0284EC1E
:100CB00090E090938F0280938E0280EC90E090936E
:100CC00091028093900281EC90E090939302809344
:100CD000920282EC90E0909395028093940286ECCD
:100CE00090E090939702809396021092990210924E
:100CF0009A0210929B0210929C020895CF92DF926A
:100D0000EF92FF920F931F93CF93DF937C016A01C1
:100D1000EB0100E010E00C151D0571F06991D701A1
:100D2000ED91FC910190F081E02DC7010995892B8F
:100D300019F00F5F1F4FEFCFC801DF91CF911F91C7
:100D40000F91FF90EF90DF90CF900895611571059E
:100D500081F0DB010D900020E9F7AD014150510910
:100D6000461B570BDC01ED91FC910280F381E02DD5
:100D7000099480E090E0089562E871E00C94A60682
:100D80000F931F93CF93DF93EC010E94A6068C0173
:100D9000CE010E94BC06800F911FDF91CF911F9161
:100DA0000F910895AA1BBB1B51E107C0AA1FBB1FCF
:100DB000A617B70710F0A61BB70B881F991F5A95E7
:100DC000A9F780959095BC01CD01089597FB072E5A
:100DD00016F4009407D077FD09D00E94D20607FCD4
:100DE00005D03EF4909581959F4F0895709561953B
:100DF0007F4F0895A1E21A2EAA1BBB1BFD010DC057
:100E0000AA1FBB1FEE1FFF1FA217B307E407F507BA
:100E100020F0A21BB30BE40BF50B661F771F881F96
:100E2000991F1A9469F760957095809590959B012C
:100E3000AC01BD01CF010895052E97FB1EF400946F
:100E40000E94330757FD07D00E94FA0607FC03D023
:100E50004EF40C94330750954095309521953F4FB3
:100E60004F4F5F4F089590958095709561957F4F96
:100E70008F4F9F4F0895EE0FFF1F0590F491E02DC7
:100E800009942F923F925F926F927F928F929F92DE
:100E9000AF92BF92CF92DF92EF92FF920F931F9388
:100EA000CF93DF938B01EA016115710521F0DB011E
:100EB0008C9311969C93209739F09E012250310912
:100EC0002332310508F0FBC07C016701BFEFCB1A6C
:100ED000DB0A5601F7016080862D90E00E947508BC
:100EE000892B11F07601F1CFFDE26F120AC0570194
:100EF00082E0A80EB11CD70111966C9077247394F0
:100F00000BC0BBE26B1207C05701E2E0AE0EB11C92
:100F1000D70111966C90712CCE018F7E892B89F4AC
:100F2000B0E36B1222C0F50180818F7D883541F5D9
:100F30006180F2E0AF0EB11C872D8260782EC0E197
:100F4000D0E0C830D105F1F04CF4C230D10511F534
:100F5000C12CD12CE12CB0E4FB2E2FC0CA30D1051E
:100F600031F0C031D10521F115C0209751F7CAE009
:100F7000D0E0ACECCA2EDC2CEC2CACE0FA2E1DC080
:100F80002097F9F6C8E0D0E0C12CD12CE12CF0E19B
:100F9000FF2E13C060E070E080E090E89E014427DF
:100FA00037FD4095542F0E94FA0669017A0105C069
:100FB000C12CD12CE12CE8E0FE2EF50160E020E010
:100FC00030E0A9014E01AA2497FCA094BA2C1F017D
:100FD00070ED572E560CA9E0A51570F48FEB860D19
:100FE0008A3118F499EC592E06C08FE9860D8A31A2
:100FF00030F589EA582E560C852D90E08C179D0708
:10100000F4F467FD18C0C216D306E406F50680F0B6
:10101000C501B4010E9480089B01AC01250D311D62
:10102000411D511D213031054105B0E85B0710F02D
:101030006FEF01C061E03196D1016C90C8CF872D70
:1010400081700115110571F0662329F03197D801DF
:10105000ED93FC9307C071FE19C03297D801ED9350
:10106000FC9314C067FF12C0882329F020E030E011
:1010700040E050E804C02FEF3FEF4FEF5FE782E220
:1010800090E090931E0380931D0316C0882341F0C7
:1010900050954095309521953F4F4F4F5F4F0CC075
:1010A00057FF0AC082E290E090931E0380931D03D5
:1010B0002FEF3FEF4FEF5FE7B901CA0104C060E0D7
:1010C00070E080E090E0DF91CF911F910F91FF9051
:1010D000EF90DF90CF90BF90AF909F908F907F90D8
:1010E0006F905F903F902F900895911106C08032CD
:1010F00019F089508550D0F70895992788270895C9
:10110000DB018F939F930E949008BF91AF91A29FA4
:10111000800D911DA39F900DB29F900D11240895F5
:101120000E949B08A59F900DB49F900DA49F800DD9
:10113000911D11240895A29FB001B39FC001A39FE8
:10114000700D811D1124911DB29F700D811D112400
:10115000911D089510E0C6ECD0E004C0FE010E948D
:0E1160003D072296C83CD107C9F7F894FFCF8F
:10116E0000001F03800024504D544B3232302C317E
:10117E003030302A31460024504D544B3330302C11
:10118E00313030302C302C302C302C302A31430082
:10119E0024504D544B3331342C302C312C302C30D8
:1011AE002C302C302C302C302C302C302C302C3051
:1011BE002C302C302C302C302C302C302C302A3241
:1011CE003900000000003C017E06A7011B018F01C3
:1011DE008E01000000001C057E06AC04C504B70499
:1011EE00FA040D0A006E616E00696E66006F766617
:0411FE00002E0000BF
:00000001FF
