:100000000C94BB000C94E3000C94E3000C94F204F9
:100010000C94F2040C94F2040C94E3000C94E300AE
:100020000C94E3000C94E3000C94E3000C94E300C4
:100030000C94E3000C94E3000C94E3000C94E300B4
:100040000C94A8210C94E3000C9462240C94942446
:100050000C94E3000C94E3000C94E3000C94E30094
:100060000C94E3000C94E300B31EE31E151F641F01
:10007000941FC61F1C204C207C20084AD73B3BCE37
:10008000016E84BCBFFDC12F3D6C74319ABD568397
:100090003DDA3D00C77F11BED9E4BB4C3E916BAA4F
:1000A000AABE000000803F05A84CCDB2D44EB9389E
:1000B00036A9020C50B9918688083CA6AAAA2ABE85
:1000C000000000803F007C3C3E5E2B3D3F2F5B5D8F
:1000D0003B2C2A225C000000000800020100000303
:1000E00004070000000000000000010204081020C6
:1000F00040800102040810200102040810200404BA
:1001000004040404040402020202020203030303BF
:100110000303000000002300260029000000000067
:10012000250028002B0000000000240027002A00E2
:100130004E414E494E495459494E46CDCCCC3D0ACC
:10014000D7233C17B7D13877CC2B329595E6241FAF
:10015000B14F0A000020410000C84200401C462068
:10016000BCBE4CCA1B0E5AAEC59D74006501690920
:10017000AE0CC424740111241FBECFEFD8E0DEBF43
:10018000CDBF12E0A0E0B1E0EAEDFFE502C00590CE
:100190000D92A237B107D9F726E0A2E7B2E001C07D
:1001A0001D92A83AB207E1F711E0C4E7D1E004C01C
:1001B0002297FE010E944C2BCC36D107C9F70E9432
:1001C00008250C94E02F0C9400008F929F92AF9220
:1001D000BF92CF92DF92EF92FF920F931F93CF9334
:1001E000C82F4A015B01C901B8010E94AD286B010B
:1001F0007C01C501B4010E94AD28A60188E992E006
:100200000E94BB206C2F70E088E992E0CF911F9193
:100210000F91FF90EF90DF90CF90BF90AF909F90A5
:100220008F900C946A211F93CF93DF93182FC8EE01
:10023000D3E0812F0E94F422019721F02197C9F782
:1002400081E001C080E0DF91CF911F9108950E946D
:10025000212262E082E00E94852226E040E855E209
:1002600060E070E085E096E00E94002488E992E07A
:100270000E942D1E61E08AE00E9485226AE087EAE2
:1002800093E00E94C207882331F06EE071E085E0C0
:1002900096E00E94622540E855E260E070E080EC64
:1002A00092E00E94F5056BE171E080EC92E00E9423
:1002B00062256CE271E080EC92E00E94622565E4C8
:1002C00071E080EC92E00C94622520E047E068E069
:1002D00080EC92E00E94C50588E992E00E94291E08
:1002E00084E792E00C94410788E992E00E942B1E7B
:1002F00080EC92E00C946C05CF93DF9380E8EFEDF7
:10030000F2E0DF011D928A95E9F7C0E080EC92E00F
:100310000E9483040196D1F380EC92E00E940F04C6
:10032000AC2FB0E0A152BD4F8C93CC2329F0843286
:1003300019F48093DF02C0E08091DF02843231F74C
:1003400081E08C0FEC2FF0E0E152FD4F90819A306C
:1003500011F0C82FDBCF90E0FC01E352FD4F10827B
:10036000EC012597FE01E152FD4F20812A3269F60A
:1003700040E150E060E070E085529D4F0E94912C7A
:1003800021E0822F90E08C179D073CF4FC01E152A4
:10039000FD4F808168272F5FF4CF6111B6CFDF91C9
:1003A000CF9108956F927F928F929F92AF92BF925A
:1003B000CF92DF92EF92FF920F931F93CF93DF9331
:1003C000CDB7DEB7A3970FB6F894DEBF0FBECDBF93
:1003D00082E00E94F422892BE1F482E090E00E9406
:1003E00013018823B1F06BEB71E085E096E00E9489
:1003F00055254AE050E06091970285E096E00E9422
:100400001A26809197028F5F843008F4CFC1109232
:1004100097020E947C018091E202823509F097C127
:100420006FED72E085E096E00E94622567E771E07B
:100430008FED92E00E94D12D67E771E080E090E0BF
:100440000E94D12D67E771E080E090E00E94D12DFD
:10045000BC0185E096E00E94622567E771E080E0DC
:1004600090E00E94D12D4C0167E771E080E090E0C0
:100470000E94D12D5C01BC0185E096E00E946225BE
:1004800067E771E080E090E00E94D12D6C0167E7A2
:1004900071E080E090E00E94D12D7C01BC0185E0FC
:1004A00096E00E94622567E771E080E090E00E949C
:1004B000D12D67E771E080E090E00E94D12D8C01A2
:1004C00067E771E080E090E00E94D12D67E771E07E
:1004D00080E090E00E94D12D67E771E080E090E03D
:1004E0000E94D12D6BE771E080E090E00E94D12D59
:1004F0006FE771E080E090E00E94D12DF501B080BF
:10050000F701F080C4010E94C52D68A379A38AA3D6
:100510009BA3C6010E94C52D6C8F7D8F8E8F9F8FF0
:10052000C8010E94C52D962E872E782E692E21E0B7
:10053000F7E5FF1220E041E083E5B81240E0BE019C
:10054000645E7F4FCE0180960E945D1D8091970270
:1005500090E08430910598F4880F991F880F991FB7
:10056000FC01EC53FE4FA080B180C280D380FC011F
:10057000EC52FE4FE080F1800281138105C0A12C76
:10058000B12C6501860175012C8D3D8D4E8D5F8DE1
:1005900068A179A18AA19BA10E94A61B60939302E6
:1005A000709394028093950290939602E091970243
:1005B000F0E0E430F10558F4EE0FFF1FEE0FFF1FDF
:1005C000EC52FE4FE080F1800281138103C0E12CE8
:1005D000F12C87012C8D3D8D4E8D5F8D68A179A109
:1005E0008AA19BA16F927F928F929F92570168017F
:1005F0000E94C21C60938F027093900280939102BC
:100600009093920248A159A16AA17BA122E030E017
:1006100085E096E00E941E274C8D5D8D6E8D7F8D4E
:1006200022E030E085E096E00E941E274091930290
:1006300050919402609195027091960222E030E010
:1006400085E096E00E941E2723E146E851E067EA34
:1006500073E0CE0101960E94DB088B819C81909310
:100660007702809376028D819E81AF81B8858093D9
:10067000780290937902A0937A02B0937B028985E5
:100680009A85AB85BC8580937C0290937D02A09374
:100690007E02B0937F028DE0FE013D96A0E8B2E0BD
:1006A00001900D928A95E1F78A8D9B8D90938E0231
:1006B00080938D0284E792E00E94B5070F900F901F
:1006C0000F900F908823E9F14C8D5D8D6E8D7F8D9D
:1006D00026E030E084E792E00E941C2767E771E0A3
:1006E00084E792E00E94552548A159A16AA17BA107
:1006F00026E030E084E792E00E941C2767E771E083
:1007000084E792E00E945525409193025091940213
:10071000609195027091960226E030E084E792E0C5
:100720000E941E2762E971E085E096E00E94622542
:1007300084E792E00E94B40684E792E00E94A30757
:1007400006C06EE971E085E096E00E9462250091A6
:10075000930210919402209195023091960240915B
:100760008F0250919002609191027091920280915B
:1007700097020E94E5006FED72E085E096E00E942E
:100780006225A3960FB6F894DEBF0FBECDBFDF91F2
:10079000CF911F910F91FF90EF90DF90CF90BF907E
:1007A000AF909F908F907F906F9008958093970265
:1007B00030CECF93CFB7F89480916203811127C0D8
:1007C000E8E0F1E08491E4EFF0E09491E82FF0E0CC
:1007D000EE0FFF1FEA5DFE4FA591B4918C91892326
:1007E00021F461E08AE00E94BE2261E08AE00E947A
:1007F00085228CB580618CBD8CB580648CBD61E038
:100800008DE00E94852261E08BE00E94852280912C
:1008100062038F5F80936203CFBFCF9108952091D1
:10082000A5033091A60328173907B9F49091630303
:1008300080916403981789F0E0916303F0E0EB592D
:10084000FC4F80812091630330E02F5F3F4F2F7377
:1008500033272093630390E008958FEF9FEF08956F
:100860001F93CF93DF93DC015C968D919C915D97F4
:10087000009749F481E090E013969C938E93129731
:1008800080E090E03BC05196ED91FC9152975096DC
:100890002C915097322F30951FB75E964C915E97F2
:1008A00041FB772770F941FD6095F89440817723EB
:1008B00011F0422B01C043234083EC012197F1F753
:1008C00048E0508160FF02C0522B01C05323508387
:1008D000EC012197F1F76695415099F780817723D4
:1008E00011F0832301C0822B80831FBF5C968D9102
:1008F0009C915D970197F1F781E090E0DF91CF91B6
:100900001F91089508952091A5033091A6032817FB
:10091000390771F49091630380916403981741F053
:10092000E0916303F0E0EB59FC4F808190E0089583
:100930008FEF9FEF08952091A5033091A60328170C
:10094000390771F4809164032091630390E0805C27
:100950009F4F821B910960E470E00E94F52A089580
:1009600080E090E00895E091A503F091A603E817D8
:10097000F90769F4A389B4899C91858980958923B5
:100980008C931092A6031092A50381E0089580E055
:100990000895CF93DF93EC018A8D9B8D892BF1F025
:1009A0008091A5039091A6038C179D07B9F000973D
:1009B00011F00E94B3048E8D8E7F8E8F109264038F
:1009C00010926303D093A603C093A503EB89FC891F
:1009D00080819D89892B808381E001C080E0DF9147
:1009E000CF9108951F920F920FB60F9211242F935B
:1009F0003F934F935F936F937F938F939F93AF93A7
:100A0000BF93EF93FF93E091A503F091A603309776
:100A100009F451C0868DA685B785958581FF04C0F0
:100A20008C91892329F447C08C91892309F043C014
:100A3000A389B4899C918589809589238C93868923
:100A400097890197F1F7208D318DA685B78575853A
:100A500058E040E0C9010197F1F7842F90E09595A7
:100A60008795482F6C91672309F04068515091F7A2
:100A7000868D81FD40958091640390E001968F738F
:100A8000992720916303281749F0A0916403B0E0EF
:100A9000AB59BC4F4C938093640303C0868D816037
:100AA000868F828D938D0197F1F7A389B4898C91FC
:100AB0009589892B8C93FF91EF91BF91AF919F9175
:100AC0008F917F916F915F914F913F912F910F90F7
:100AD0000FBE0F901F90189528EE31E0FC01318376
:100AE00020830C94B3041F93CF93DF93EC01162F54
:100AF0006E8D6695617081E06827812F0E94BE220D
:100B000061E0812F0E948522812F90E0FC01E65157
:100B1000FF4FE491E88BFC01E250FF4FE491F0E0DD
:100B2000EE0FFF1FE45EFE4F859194919A8B898BA7
:100B3000DF91CF911F9108951F93CF93DF93EC0125
:100B4000162F60E0812F0E9485228E8D81FD04C0CA
:100B500061E0812F0E94BE221C87812F90E0FC0162
:100B6000E651FF4FE491ED87FC01E250FF4FE49125
:100B7000F0E0EE0FFF1FEE5EFE4F859194919F8790
:100B80008E87DF91CF911F910895FF920F931F934E
:100B9000CF93DF93EC01F62E522F1B821A8208EEC0
:100BA00013E020E030E00C831D832E833F8388EE2A
:100BB00091E0998388831F8A1E8A198E188E1B8E56
:100BC0001A8E1D8E1C8E8E8D8E7F50FB81F98E8F1E
:100BD000642FCE010E9473056F2DCE01DF91CF915E
:100BE0001F910F91FF900C949C05CF93DF93EC0124
:100BF0009A01AB011B8E1A8E198E188E1F8A1E8ABF
:100C000060E079E08DE390E00E942B2BC901243055
:100C1000310520F0B9016350710902C061E070E054
:100C20007D8F6C8FEC85E63108F068C0B901769550
:100C300067956431710518F06351710902C061E074
:100C400070E07F8B6E8B069718F0C901059702C084
:100C500081E090E0998F888FC901880F991F820FDA
:100C6000931F96958795969587958D30910510F0F1
:100C70000C9702C081E090E09B8F8A8F20916800E2
:100C8000E83050F091E0EE3008F490E081E001C0EF
:100C9000880F9A95EAF701C084E0822B8093680060
:100CA0002C85283038F02E3040F0263148F48CE680
:100CB00090E008C08DE690E005C08BE690E002C0B1
:100CC00080E090E09C8B8B8B283030F481E001C079
:100CD000880F2A95EAF70DC0822F90E02E3010F48D
:100CE000089701C00E9791E001C0990F8A95EAF725
:100CF000892F8D8B8C8D9D8D0197F1F7CE01DF9122
:100D0000CF910C94C904CF93DF931F92CDB7DEB778
:100D10006983DC01ED91FC910280F381E02D41E0DB
:100D200050E0BE016F5F7F4F09950F90DF91CF912B
:100D30000895CF93DF93EC01898D9A8D009759F038
:100D4000FC01138212820E942F12E98DFA8D2281FA
:100D50003381232B31F081E090E09B838A8380E014
:100D600090E0DF91CF910895FC01818D928D0097E5
:100D700011F00C94CF0F0895CF93DF931F92CDB74E
:100D8000DEB741E050E0BE016F5F7F4F0E94E00D93
:100D9000019719F4898190E002C08FEF9FEF0F90C7
:100DA000DF91CF910895FC01818D928D009711F014
:100DB0000C94BC068FEF9FEF08950F931F93CF9372
:100DC000DF938C01FC01818D928D0097B9F00E9418
:100DD000BC06EC018F3FFFEF9F0799F0F801818D72
:100DE000928DFC014285538564857585415051097A
:100DF000610971090E94330FCE0105C080E090E0C7
:100E000002C08FEF9FEFDF91CF911F910F91089557
:100E1000CF92DF92EF92FF920F931F93CF93DF93C6
:100E2000EC017B016A011B821A8208EE13E020E0CC
:100E300030E00C831D832E833F8388EF91E09983FC
:100E400088838DE190E00E946A2B9A8F898F0097AA
:100E500079F02DE1F701DC0101900D922A95E1F77F
:100E60004CE050E0B601CE010C960E94F52D188E94
:100E7000DF91CF911F910F91FF90EF90DF90CF9076
:100E80000895FC011382128248EE53E060E070E0A6
:100E9000448355836683778388EF91E091838083D1
:100EA000128E118E14860895DC015996ED91FC91F5
:100EB0005A97309729F062857385848595850895C2
:100EC0006FEF7FEFCB010895DC015996ED91FC9116
:100ED0005A97309729F0638974898589968908958E
:100EE00060E070E0CB010895CF92DF92EF92FF9225
:100EF000CF93DF93EC01898D9A8D892BD9F0CE01A8
:100F00000E9464076B017C01CE010E945407A70177
:100F10009601261B370B480B590BDA01C9018115C5
:100F200030E89307A105B10538F08FEF9FE7A0E007
:100F3000B0E002C080E090E0DF91CF91FF90EF90B1
:100F4000DF90CF900895CF93DF93EC01898D9A8D38
:100F5000009741F00E941610898D9A8D0E94022CF4
:100F60001A8E198EDF91CF910895DC015996ED917B
:100F7000FC915A97309721F081E09581911101C041
:100F800080E008950F931F93CF93DF93EC01462FDA
:100F900061E00E94A60A811102C080E01DC08E019E
:100FA000045F1F4F41E0BE01C8010E9476178823ED
:100FB00059F0B801CE018A960E94900D91E08111FE
:100FC00001C090E0892F08C040E0BE01C8010E9426
:100FD0007617882311F3EDCFDF91CF911F910F91F9
:100FE0000895FC01DB0112968D919C9113979383D8
:100FF00082838AE092E09183808314968C91149787
:10100000848315968C911597858316964D915D91E5
:101010006D917C91199746835783608771871A96E3
:101020004D915D916D917C911D97428753876487A7
:1010300075871E964D915D916D917C915197468774
:101040005787608B718B52968C915297828B5396F7
:101050004D915D916D917C915697438B548B658B2F
:10106000768B57964D915D916D917C915A97478BF8
:10107000508F618F728F5B968D919C915C97948F4E
:10108000838F08954F925F926F927F928F929F927B
:10109000AF92BF92CF92DF92EF92FF920F931F9386
:1010A000CF93DF93CDB7DEB7C754D1090FB6F8940D
:1010B000DEBF0FBECDBF6C014A013901665D7F4FB7
:1010C0005E018EE1A80EB11CC5010E94F1071C82D1
:1010D0001B828AE092E09A8389831E828401FE014A
:1010E00031967F015A2C4B2C6FE270E0C8010E94B0
:1010F000EA2D0097E9F1F80120812F3219F40F5FF2
:101100001F4FF2CF801B8D3008F08CE0A82EB12C41
:10111000A501B801CE01CB960E94F52DEBE3F0E0DE
:10112000EC0FFD1FEA0DFB1D1082C7010E94161077
:1011300021E0AE01455C5F4F652D742DC7010E9413
:101140004A11811109C0F601138212828AE092E0ED
:1011500091838083158216C00A0D1B1D852D942D49
:101160000E941610C2015E2C4F2CE92EF82EBCCF27
:1011700008191909F30111830083652D742DC60127
:101180000E94F107C601C95BDF4F0FB6F894DEBFBE
:101190000FBECDBFDF91CF911F910F91FF90EF90C8
:1011A000DF90CF90BF90AF909F908F907F906F9087
:1011B0005F904F9008959F92AF92BF92CF92DF922F
:1011C000EF92FF920F931F93CF93DF93CDB7DEB7CC
:1011D000C955D1090FB6F894DEBF0FBECDBF7C0153
:1011E0006B015A01922E9E01285A3F4FCE01CB9699
:1011F0000E9442086A960EAD1FAD6A970A0D1B1D2C
:10120000F801808181110AC0BE01655C7F4FCE016B
:1012100001960E94F10744E052E041C019A218A2D1
:101220008AE092E09F8F8E8F1BA221968FAD21972F
:10123000811104C0C7010E94410737C0825082302B
:1012400060F4B601665D7F4F292DA801CE014E9650
:101250000E944A11811110C0EDCF292DA801BE01B5
:10126000655C7F4FCE014E960E944A11882311F390
:10127000CE01CB960E941610892D867041F049A9A7
:101280005AA96BA97CA9CE014E960E94330FBE01CC
:10129000625E7F4FCE0101960E94F107A801BE0158
:1012A0006F5F7F4FC7010E940807C701C75ADF4F12
:1012B0000FB6F894DEBF0FBECDBFDF91CF911F9167
:1012C0000F91FF90EF90DF90CF90BF90AF909F90E5
:1012D00008951092AC031092AD031092B0031092D7
:1012E000B20382E090E0A0E0B0E08093B30390937B
:1012F000B403A093B503B093B6031092CA0310923F
:10130000D4031092D3038AE092E09093D2038093A7
:10131000D1031092D60308959FB7F89420916103EA
:1013200080915F03213019F48DBB9FBF08958FBF5B
:10133000089520916103222399F03FB7F8942091FA
:101340006103213059F42DB320935F034DB32091F5
:101350006003209524232DBB3FBF02C030935F0361
:101360008CBD9DBD08958EBD00000DB407FEFDCF60
:101370008EB508958FEF0C94B30961E0FC01848170
:101380000E94BE228091F003882339F01092F0036E
:101390008091610381110C948C090895CF93DF93A0
:1013A000EC018091F003811109C081E08093F0038A
:1013B0008091F1039091F2030E94990960E08C8181
:1013C000DF91CF910C94BE22CF93DF93EC018E81FD
:1013D000882389F08F8198859C012F5F3F4F388744
:1013E0002F838230924018F40E94BA09F3CFCE01C5
:1013F0000E94BD091E82DF91CF910895673028F0C9
:1014000026E1FC01258380E00895623081F030F40C
:10141000662359F06130B1F480E515C0643059F0AD
:1014200040F0653079F482E50EC080E505C081E5C5
:1014300003C081E508C082E58093F10381E08093D9
:10144000F203089583E58093F1031092F20381E0A3
:1014500008950F931F93CF93DF93EB010E94F22126
:101460008B010E94BA098F3F49F00E94F221601B54
:10147000710B6C177D07A8F380E001C081E0DF915C
:10148000CF911F910F910895CF92DF92FF920F930A
:101490001F93CF93DF9300D000D0CDB7DEB76C01A0
:1014A000F62E29833A834B835C830E94E409C601AC
:1014B0000E94CE096CE271E0C6010E94290A8F2DBC
:1014C00080640E94B30908E110E05C814B813A819D
:1014D0002981DA01C901002E04C0B695A795979518
:1014E00087950A94D2F729833A834B835C830E94C1
:1014F000B3090850110929813A814B815C81083F69
:101500008FEF180731F7FF2029F0E8E0FE1621F0F1
:101510008FEF03C085E901C087E80E94B30910E09E
:101520000E94BA09F601828787FF04C01F3F11F0AD
:101530001F5FF6CF0F900F900F900F90DF91CF911C
:101540001F910F91FF90DF90CF900895BF92CF929F
:10155000DF92EF92FF920F931F93CF93DF93EC01F3
:10156000B62E1B8619861E821D824C830E94F22194
:101570008B0161E08C810E94852261E08C810E9458
:10158000BE220E94D90382E58093F1031092F203F8
:101590008091F1039091F2030E9499092AE0F22EC2
:1015A0008FEF0E94B309FA94D9F7809161038111FA
:1015B0000E948C09CE010E94CE0920E030E0A901F2
:1015C00060E0CE010E94440AF82E8A8781E0F81676
:1015D00049F00E94F221601B710B613D774068F376
:1015E00081E04BC02AEA31E040E050E068E0CE0103
:1015F0000E94440A82FF02C0FB860DC094E0F92ECF
:101600000E94BA098A87FA94D9F78A3A11F082E0DF
:1016100034C082E08B878B85823031F4C12CD12C91
:10162000E12C80E4F82E03C0C12CD12C760120E0FF
:1016300030E0A90167E3CE010E94440AA7019601A8
:1016400069E2CE010E94440A8A87882349F00E94F9
:10165000F221601B710B613D774048F388E00DC0BB
:101660008B85823031F520E030E0A9016AE3CE01BC
:101670000E94440A882381F086E08D83CE010E9477
:10168000BD0980E0DF91CF911F910F91FF90EF9006
:10169000DF90CF90BF9008950E94BA09807C803C73
:1016A00011F483E08B870E94BA090E94BA090E9454
:1016B000BA09CE010E94BD096B2DCE01DF91CF91F9
:1016C0001F910F91FF90EF90DF90CF90BF900C94FF
:1016D000FE090F931F93CF93DF93EC010E94F22139
:1016E0008B010E94BA098A878F3F49F40E94F22138
:1016F000601B710B6D327140A0F38FE003C08E3F11
:1017000039F08DE08D83CE010E94BD0980E001C0DB
:1017100081E0DF91CF911F910F910895CF92DF92D9
:10172000EF92FF920F931F93CF93DF93EC01690128
:101730000115110509F462C0C801820F931F8130A1
:10174000924008F05DC08E81882371F08881998174
:10175000AA81BB81481759076A077B0729F48F8143
:101760009885C816D90610F5488359836A837B8308
:101770008B85833039F039E0440F551F661F771F82
:101780003A95D1F79A01AB0161E1CE010E94440A7A
:10179000882319F083E08D8333C0CE010E94690B4A
:1017A000882371F118861F8281E08E838F8198854E
:1017B0008C159D0540F40E94BA098F819885019689
:1017C00098878F83F3CF6701E00EF11ECE14DF04FC
:1017D00031F00E94BA09F60181936F01F7CF8F8132
:1017E0009885800F911F98878F832985222319F070
:1017F0008115924018F0CE010E94E40981E004C0F6
:10180000CE010E94BD0980E0DF91CF911F910F9121
:10181000FF90EF90DF90CF900895EF92FF920F939B
:101820001F93790100E012E020E030E00E948E0B6F
:101830001F910F91FF90EF900895CF92DF92EF925A
:10184000FF920F931F93CF93DF9300D0CDB7DEB7F6
:101850008C01862F49835A830E94B3094981C42E83
:101860005A81D52EE12CF12CF60181916F010E9455
:10187000B309FFEFEF1AFF0AE11482E0F806A1F7BF
:101880008FEF0E94B3098FEF0E94B3090E94BA093B
:10189000F80182878F71853039F081E18583C80135
:1018A0000E94BD0980E001C081E00F900F90DF91A0
:1018B000CF911F910F91FF90EF90DF90CF900895FF
:1018C0000F931F93CF93DF93EC01890141155105CD
:1018D0006105710511F482E132C08B85833039F0E6
:1018E00089E0440F551F661F771F8A95D1F79A012B
:1018F000AB0168E1CE010E94440A882311F084E024
:101900001EC0A8016EEFCE010E941D0C8823C1F0FD
:1019100068E572E0CE010E94290A811102C085E1CA
:101920000EC020E030E0A9016DE0CE010E94440A23
:10193000811104C00E94BA09882339F084E18D83A3
:10194000CE010E94BD0980E004C0CE010E94BD0905
:1019500081E0DF91CF911F910F91089580E58093F1
:10196000F1031092F2030895CF93DF93EC019C01F1
:101970002A5F3F4F41E050E060E070E08B8D9C8D2E
:101980000E940B168823A1F04F89588D698D7A8D9E
:10199000452B462B472B71F44E815F8168857985F5
:1019A0004F8B588F698F7A8F8C8180688C8302C0AF
:1019B00080E001C081E0DF91CF910895CF92DF9266
:1019C000EF92FF921F93CF93DF93EC010E94B40C30
:1019D000811102C080E04BC0EB8DFC8DCE80DF809A
:1019E000E884F98482E0C81AD108E108F108058486
:1019F00004C0CC0CDD1CEE1CFF1C0A94D2F74685FB
:101A0000578560897189C40ED51EE61EF71E1481A4
:101A100081E0C81AD108E108F108112361F0C7017B
:101A2000B601610F711D811D911D0E9455148823FF
:101A300089F21150F2CFEB8DFC8DC12C82E0D82EB3
:101A4000E12CF12C058404C0CC0CDD1CEE1CFF1C29
:101A50000A94D2F74B895C896D897E894C0D5D1D96
:101A60006E1D7F1D4B8B5C8B6D8B7E8B81E0DF91C0
:101A7000CF911F91FF90EF90DF90CF900895CF937B
:101A8000DF93EC01462F6E857F85888999890E94B6
:101A90001A14882341F08A8920E2829FC001112410
:101AA00084509C4F02C080E090E0DF91CF91089578
:101AB000282FFB018BE030E231938150E9F7A22F10
:101AC000B92F20E037E09D91992319F19E3219F04A
:101AD000E6ECF0E008C03A3011F128E03AE0F3CF4C
:101AE00031964917E1F044914111FACF3217B8F01D
:101AF0004FED490F4E3598F441E0420FFB01E20FE4
:101B0000F11D2FE9290F2A3108F490529083242FD8
:101B1000DACF81E0FB019081903209F480E00895F2
:101B20000F931F93CF93DF93EC018B018D8188235B
:101B300011F080E040C0FB0187898031B1F482E080
:101B40008D831F8A188E198E1A8E408D518D60E0FC
:101B500070E095E0440F551F661F771F9A95D1F7E7
:101B60004B8B5C8B6D8B7E8B15C0803211F783E0C5
:101B70008D83FB01428D538D648D758D4F8B588FF6
:101B8000698F7A8F9E012D5E3F4FC8010E94FF141E
:101B9000882379F21C8F0B8F81E08C831E821F8239
:101BA000188619861A861B861C861D861E861F8629
:101BB000188A198A1A8ADF91CF911F910F9108957F
:101BC0002F923F924F925F926F927F928F929F924D
:101BD000AF92BF92CF92DF92EF92FF920F931F933B
:101BE000CF93DF93EC016B015A018D81811103C00A
:101BF0008FEF9FEFDAC08C8180FFFACF4B895C8931
:101C00006D897E898A859B85AC85BD852501612C82
:101C1000712C8A019B01081B190B2A0B3B0B041525
:101C200015052605370518F45A01A81AB90A250121
:101C30001E0126E0220E311C4114510409F47BC020
:101C40004A855B856C857D854A0181E09822ED811E
:101C50008A019B01F9E03695279517950795FA9526
:101C6000D1F78B8D9C8DE23051F4FC01628D738D28
:101C7000848D958D600F711F821F931F3EC0FC01E4
:101C800074807A94702281149104C9F4711017C081
:101C9000452B462B472B49F48F89988DA98DBA8DFA
:101CA0008E839F83A887B9870AC04E815F8168852C
:101CB000798591010E947B14882309F499CFEB8DDB
:101CC000FC8D6E817F8188859985625071098109BB
:101CD0009109058404C0660F771F881F991F0A9415
:101CE000D2F70685178520893189600F711F821F01
:101CF000931F670D711D811D911D20E032E0281991
:101D0000390932012415350508F439012C8126FDE5
:101D100004C06114F2E07F06A1F500910A01109160
:101D20000B0120910C0130910D01601771078207A2
:101D3000930719F426C0C50138C0760183019401C8
:101D4000AB01BC018091FA039091FB030E948E0BC2
:101D5000882309F44DCFC60CD71C04C0E81BF90B2F
:101D6000CE0EDF1E8A859B85AC85BD85860D971DB1
:101D7000A11DB11D8A879B87AC87BD874618570870
:101D80005BCF40E00E941A14882309F431CFC401CC
:101D900084509C4FD6019C01260D371DFC01E21793
:101DA000F307E1F241914D93FACFDF91CF911F916B
:101DB0000F91FF90EF90DF90CF90BF90AF909F90EA
:101DC0008F907F906F905F904F903F902F900895ED
:101DD000FF920F931F93CF93DF931F92CDB7DEB780
:101DE0008C01FC018581823018F480E090E034C0E1
:101DF000F8014285538564857585A5E076956795DC
:101E000057954795AA95D1F7F42FFF70FF2E41E023
:101E100050E0BE016F5F7F4FC8010E94E00D019747
:101E200019F4298130E002C02FEF3FEF2F3F3F4FE1
:101E3000E1F2F8014285538564857585415E5F4F07
:101E40006F4F7F4F4287538764877587F0E2FF9E0D
:101E5000C001112484509C4F0F90DF91CF911F91AE
:101E60000F91FF9008954F925F926F927F92AF9281
:101E7000BF92CF92DF92EF92FF920F931F93CF9377
:101E8000DF93EC016A017B012D81222309F457C005
:101E90008B899C89AD89BE8984179507A607B707EA
:101EA00008F44DC04EC08A859B85AC85BD85EB8D01
:101EB000FC8DE585F0E03996AC01BD01415051093A
:101EC000610971090E2E04C076956795579547955F
:101ED0000A94D2F7970186010150110921093109AD
:101EE00004C03695279517950795EA95D2F70417FC
:101EF000150726073707B0F58F89988DA98DBA8DFC
:101F00008E839F83A887B987280139015E0186E007
:101F1000A80EB11C411451046104710461F14E8199
:101F20005F816885798595018B8D9C8D0E947B14DE
:101F300091E0491A5108610871088111EBCF80E0E6
:101F40001FC02230C1F0C114D104E104F10409F032
:101F5000AACF1E821F82188619861A861B861C86A7
:101F60001D860DC0892B8A2B8B2B31F2041B150B80
:101F7000260B370BC9CFCA86DB86EC86FD8681E04F
:101F8000DF91CF911F910F91FF90EF90DF90CF9055
:101F9000BF90AF907F906F905F904F9008950F9398
:101FA0001F93CF93DF93EC018D818823C9F18C813E
:101FB00087FF30C061E0CE010E943F0D8C01009789
:101FC00079F18D81823048F44B895C896D897E89F5
:101FD000F801448F558F668F778F4F89588D698DA3
:101FE0007A8DF801538F428F758B648BE091F303E8
:101FF000F091F403309759F0B8016A5E7F4FC80141
:1020000048960995F801808D918D938B828B8C81F8
:102010008F778C83DF91CF911F910F910C94DF13F9
:1020200080E0DF91CF911F910F910895CF93DF93BF
:10203000EC010E94CF0F882319F01D8281E001C0BE
:1020400080E0DF91CF9108954F925F926F927F92DF
:10205000AF92BF92CF92DF92EF92FF920F931F93B6
:10206000CF93DF9300D000D0CDB7DEB75C016A011B
:102070007B01FC0185818130F1F4848181FF1BC0EB
:10208000F50183899489A589B68984179507A607E0
:10209000B70788F0892B8A2B8B2B09F479C0F501BF
:1020A0004284538464847584B701A601C5010E94EB
:1020B000330F811102C080E06CC0F501838D948DD7
:1020C000C114D104E104F10471F44789508D618D8C
:1020D000728D0E942017882371F3F501178A108EE4
:1020E000118E128E3AC0F501468157816085718547
:1020F0009E012F5F3F4F0E947B148823E1F24981AC
:102100005A816B817C81F501838D948DFC01278937
:10211000203129F408EF1FEF20E030E004C008EF81
:102120001FEF2FEF3FE04017510762077307A8F436
:102130000E942017882309F4BECFF50146815781FC
:10214000608571850FEF1FEF2FEF3FE0838D948D3A
:102150000E946A15882309F4AECFF501C38AD48A98
:10216000E58AF68A848180688483C5010E94CF0F46
:10217000882309F4A0CFB701A6014C145D046E04B6
:102180007F0410F4B301A201C5010E94330F01C006
:1021900081E00F900F900F900F90DF91CF911F91E2
:1021A0000F91FF90EF90DF90CF90BF90AF907F9016
:1021B0006F905F904F900895FF920F931F93CF936E
:1021C000DF93EC01F42E80E2689FF0011124E450CB
:1021D000FC4F8385817129F0842F827411F080E097
:1021E00053C06A8B80910A0190910B01A0910C0160
:1021F000B0910D018E879F87A88BB98B4489558933
:1022000060E070E0BA0155274427028D138D20E06D
:1022100030E0402B512B622B732B4F8B588F698FE3
:102220007A8F8385887151F4048D158D268D378DB5
:102230000B8B1C8B2D8B3E8B81E00CC0803179F693
:102240009E012D5E3F4F8B8D9C8D0E94FF14882335
:1022500031F284E08D838F2D8F708C831E821F82DC
:10226000188619861A861B861C861D86F6FE0BC0EC
:1022700040E050E0BA01CE01DF91CF911F910F9164
:10228000FF900C94241081E0DF91CF911F910F916A
:10229000FF900895AF92BF92CF92DF92EF92FF929C
:1022A0000F931F93CF93DF93CDB7DEB72B970FB666
:1022B000F894DEBF0FBECDBF7C016B01CA01B22E08
:1022C000F70125812111B9C0BE016F5F7F4F0E94C8
:1022D000580D882309F4B1C0F601838D948DF70160
:1022E000948F838FF60116821782108611861286CC
:1022F000138614861586A12CF60102851385248584
:10230000358583899489A589B689081719072A070D
:102310003B07E8F545E036952795179507954A95CB
:10232000D1F70F70C6010E94E80E009709F485C02E
:10233000FC012081222311F0253EB9F4A1100EC02A
:10234000F701028B40910A0150910B0160910C0141
:1023500070910D0146875787608B718BFC018081DE
:10236000AA24A3948111C8CF12C04BE050E0BC0155
:10237000CE0101960E94D62D892B09F0BDCF8B2D61
:102380008073803309F459C04B2D602F52C08B2DC0
:102390008271823109F051C0AA2041F061E0C70189
:1023A0000E943F0D8C01009779F447C0F6018581AA
:1023B000823009F442C0C6010E94DE0C8823E9F194
:1023C000F701128A0CEF13E080E2F80111928A956E
:1023D000E9F78BE0FE013196D80101900D928A95C4
:1023E000E1F7E091F303F091F403309739F0B8018D
:1023F000625F7F4FC8014096099509C081E298E26B
:10240000F801918B808B80E098E097878687F801B0
:1024100080899189938B828B918F808F8685978518
:10242000978B868B0E94DF13882339F04B2DF701A1
:102430006289C7010E94DC1001C080E02B960FB6B4
:10244000F894DEBF0FBECDBFDF91CF911F910F91EA
:10245000FF90EF90DF90CF90BF90AF9008952F92B4
:102460003F924F925F926F927F928F929F92AF9224
:10247000BF92CF92DF92EF92FF920F931F93CF9371
:10248000DF9300D000D01F92CDB7DEB78C017B0167
:102490003A01DC0115968C9115978130C9F4149698
:1024A0008C9181FF15C082FF1BC0F80143895489BC
:1024B0006589768982859385A485B5858417950776
:1024C000A607B70769F0C8010E94330F811108C041
:1024D00081E090E0F8019383828380E090E046C140
:1024E000630180C0D8015B968D919C915C97FC0143
:1024F000F481F150B501A40129E0769567955795CF
:1025000047952A95D1F7F423FD8321E09222FF23FA
:1025100009F474C080E092E08819990956018C157D
:102520009D0508F45C01D8015B96ED91FC915C97E8
:1025300016962D903D904D905C901997B2E02B1A15
:10254000310841085108058404C0220C331C441C86
:10255000551C0A94D2F786859785A089B189280EE3
:10256000391E4A1E5B1EED812E0E311C411C511C72
:10257000A114F2E0BF0609F088C080910A01909191
:102580000B01A0910C01B0910D0182159305A405DA
:10259000B50559F48FEF9FEFDC0180930A0190930A
:1025A0000B01A0930C01B0930D019701B201A101A1
:1025B0008091FA039091FB030E94600C882309F438
:1025C00087CF9EEFF91ACA18DB08F8018285938538
:1025D000A485B5858A0D9B1DA11DB11D828793879A
:1025E000A487B587D8011A968D909D90AD90BC9028
:1025F0001D97C114D10409F075CF8AC081149104CC
:1026000009F088CF16964D915D916D917C91199747
:10261000411551056105710559F457968D919D91AC
:102620000D90BC91A02D0097A105B10541F521C0E9
:102630009E012F5F3F4F0E947B14882309F44ECFE9
:1026400089819A81AB81BC81F801238D348DF90198
:102650002789203129F448EF5FEF60E070E004C083
:1026600048EF5FEF6FEF7FE084179507A607B70786
:1026700030F0C8010E94B40C81114CCF29CFF80171
:1026800086839783A087B18745CF8114910429F56C
:10269000D8011A964D915D916D917C911D9753963D
:1026A0008D919D910D90BC91A02D481759076A07F7
:1026B0007B0798F00E94DF13882309F409CF20924A
:1026C0000A0130920B0140920C0150920D01809151
:1026D000F90381608093F90308C041E0C201B101B0
:1026E0000E941A14882309F4F3CEC40184509C4F2D
:1026F000D7019C012A0D3B1DFC01E217F30719F0DD
:102700004D914193FACFE81BF90BEE0EFF1E5BCF04
:1027100053968D919D910D90BC91A02DF80124812F
:1027200088159905AA05BB0538F4838A948AA58A79
:10273000B68A206824830CC08091F3039091F4033F
:10274000892B31F06114710419F02068F801248399
:10275000D80114968C9183FD02C0C30107C0C80143
:102760000E94CF0F882309F4B3CEF7CF0F900F90BC
:102770000F900F900F90DF91CF911F910F91FF90CD
:10278000EF90DF90CF90BF90AF909F908F907F9011
:102790006F905F904F903F902F900895CF93DF936D
:1027A0001F92CDB7DEB7698341E050E0BE016F5F95
:1027B0007F4F0E942F120F90DF91CF91089580914B
:1027C000F903882399F140910A0150910B0160911E
:1027D0000C0170910D012CEF33E08091FA03909180
:1027E000FB030E94600C882319F14091F50350917E
:1027F000F6036091F7037091F803411551056105E7
:10280000710591F02CEF33E08091FA039091FB0376
:102810000E94600C882361F01092F5031092F60379
:102820001092F7031092F8031092F90381E00895D3
:1028300080E00895CF92DF92EF92FF92CF936B01E9
:102840007C01C42F80910A0190910B01A0910C0191
:10285000B0910D018C159D05AE05BF05D1F00E940C
:10286000DF13811102C080E01AC02CEF33E0B70102
:10287000A6018091FA039091FB030E940D0C88231E
:1028800091F3C0920A01D0920B01E0920C01F092F8
:102890000D018091F9038C2B8093F90381E0CF9196
:1028A000FF90EF90DF90CF900895CF92DF92EF925C
:1028B000FF926B017C010E94DF138823B1F0ECEFE3
:1028C000F3E0119285E0EC3FF807D9F7C0920A01D6
:1028D000D0920B01E0920C01F0920D018091F9036E
:1028E00081608093F90381E001C080E0FF90EF9068
:1028F000DF90CF9008958F929F92AF92BF92CF9228
:10290000DF92EF92FF920F931F93CF93DF938C018F
:102910006A017B01E901FC0181859285A385B4856B
:102920000196A11DB11D84179507A607B70710F4DE
:1029300080E058C0F8014389548965897689878980
:10294000803129F4BB27AF2D9E2D8D2D09C0D701D5
:10295000C60127E0B695A795979587952A95D1F753
:102960004C015D01840E951EA61EB71EC501B40163
:1029700080900A0190900B01A0900C01B0900D0185
:10298000681579058A059B0589F4F80187898031E6
:1029900099F4DD24EE24FF24F601EE0FFF1FE4502E
:1029A000FC4F80819181A0E0B0E017C040E00E9420
:1029B0001A148111EACFBCCFE894C7F8DD24EE24C5
:1029C000FF24F601EE0FFF1FEE0FFF1FE450FC4F38
:1029D00080819181A281B381BF7088839983AA830A
:1029E000BB8381E0DF91CF911F910F91FF90EF901A
:1029F000DF90CF90BF90AF909F908F9008954F92AF
:102A00005F926F927F92AF92BF92CF92DF92EF92DE
:102A1000FF920F931F93CF93DF9300D000D0CDB7D9
:102A2000DEB78C0149835A836B837C835901C12CA7
:102A3000D12C7601412C42E0542E612C712C49811D
:102A40005A816B817C819E012F5F3F4FC8010E949C
:102A50007B14882359F1D301C201F801058404C015
:102A6000880F991FAA1FBB1F0A94D2F7C80ED91E40
:102A7000EA1EFB1E49815A816B817C8187898031E6
:102A800029F488EF9FEFA0E0B0E004C088EF9FEF4B
:102A9000AFEFBFE0481759076A077B0780F2F501DF
:102AA000C082D182E282F38281E001C080E00F9097
:102AB0000F900F900F90DF91CF911F910F91FF908A
:102AC000EF90DF90CF90BF90AF907F906F905F902E
:102AD0004F9008954F925F926F927F928F929F9244
:102AE000AF92BF92CF92DF92EF92FF920F931F931C
:102AF000CF93DF93EC016A017B0128013901423059
:102B000051056105710508F474C049855A856B85C6
:102B10007C854F5F5F4F6F4F7F4F4C155D056E0596
:102B20007F0508F466C08B889C88AD88BE888F8935
:102B3000803129F477276F2D5E2D4D2D09C0B70107
:102B4000A601E7E07695679557954795EA95D1F701
:102B5000840E951EA61EB71E40910A0150910B01CE
:102B600060910C0170910D0184169506A606B706BA
:102B700071F48F89803199F4DD24EE24FF24F6016D
:102B8000EE0FFF1FE450FC4F5182408218C040E01E
:102B9000C501B4010E941A148111EBCF2AC0E89438
:102BA000C7F8DD24EE24FF24F601EE0FFF1FEE0F21
:102BB000FF1FE450FC4F40825182628273828091F9
:102BC000F90381608093F9038A89823080F08D81D6
:102BD0009E81AF81B885880D991DAA1DBB1D80936C
:102BE000F5039093F603A093F703B093F80381E005
:102BF00001C080E0DF91CF911F910F91FF90EF9086
:102C0000DF90CF90BF90AF909F908F907F906F900C
:102C10005F904F9008952F923F924F925F926F92E4
:102C20007F929F92AF92BF92CF92DF92EF92FF92EC
:102C30000F931F93CF93DF93CDB7DEB760970FB697
:102C4000F894DEBF0FBECDBF5C014D875E876F87F6
:102C5000788B1901D9014D905D906D907C90411455
:102C600051046104710431F0BFEF4B1A5B0A6B0A27
:102C70007B0A10C0FC0140805180628073809924DF
:102C800093940D851E852F85388901301105210506
:102C9000310509F0912CD50119962D913D914D9159
:102CA0005C911C972F5F3F4F4F4F5F4F29873A87AB
:102CB0004B875C87730162011D821E821F8218860A
:102CC000F50181859285A385B4850D811E812F81B3
:102CD0003885081719072A073B0708F056C02985C9
:102CE0003A854B855C852C153D054E055F0550F4F6
:102CF000A2E0CA2ED12CE12CF12CB2E04B2E512CAB
:102D0000612C712C9E012F5F3F4FB701A601C501B9
:102D10000E947B148823C9F149815A816B817C818F
:102D2000D701C6010196A11DB11D452B462B472B8E
:102D300019F02C013D010FC0AC01BD01441955092A
:102D4000660977090D851E852F853889401751073B
:102D50006207730779F02D813E814F8158852F5F7F
:102D60003F4F4F4F5F4F2D833E834F8358876C01FA
:102D70007D01A6CF0FEF1FEF2FEF3FE0B701A601B8
:102D8000C5010E946A15811118C080E041C0D701B9
:102D9000C6010197A109B1098D839E83AF83B887CE
:102DA00097018601AC01BD01C5010E946A15882307
:102DB00061F3CD80DE80EF80F8844C145D046E04F6
:102DC0007F0428F3D1014D915D916D917C91411566
:102DD00051056105710599F4F101408251826282C9
:102DE00073829920A1F0FFEF4F1A5F0A6F0A7F0AE2
:102DF000D5014D925D926D927C92139708C093011C
:102E00008201C5010E946A158111E6CFBECF81E023
:102E100060960FB6F894DEBF0FBECDBFDF91CF91A5
:102E20001F910F91FF90EF90DF90CF90BF90AF90E8
:102E30009F907F906F905F904F903F902F9008955C
:102E4000AF92BF92CF92DF92EF92FF920F931F93B8
:102E5000CF93DF9300D000D0CDB7DEB75C016A011D
:102E60007B0182E090E0A0E0B0E0F50180839183F7
:102E7000A283B3839E012F5F3F4FB701A601C50117
:102E80000E947B14882311F100E010E09801B70143
:102E9000A601C5010E946A158823C1F0C980DA80A5
:102EA000EB80FC80F5018789803129F488EF9FEF62
:102EB000A0E0B0E004C088EF9FEFAFEFBFE0C8161E
:102EC000D906EA06FB06B0F281E001C080E00F906F
:102ED0000F900F900F90DF91CF911F910F91FF9066
:102EE000EF90DF90CF90BF90AF9008958F929F9218
:102EF000AF92BF92CF92DF92EF92FF920F931F9308
:102F0000CF93DF93EC01142F7093FB036093FA03CC
:102F1000442341F1453010F080E0EFC040E060E034
:102F200070E0CB010E941A148823B1F320E1129FB4
:102F3000F0011124E655FA4F80818F7769F7848577
:102F40009585A685B78584369105A105B10520F341
:102F5000C084D184E284F384C114D104E104F10477
:102F600021F4DACFC12CD12C760140E0C701B601A3
:102F70000E941A14882381F280910704909108041A
:102F80008115924049F630910C04332329F2809147
:102F90000A0490910B04892B09F4BECF20910904F7
:102FA000222309F4B9CF3A8B2C831D8630E041E00F
:102FB00050E06D85062FCA01062E02C0880F991FAA
:102FC0000A94E2F72817390731F081E0860F8D87E0
:102FD000683078F3A1CF20911204309113042115A9
:102FE000310519F040E050E008C0209120043091F4
:102FF000210440912204509123042D833E834F836A
:10300000588780910A0490910B0446015701880E5D
:10301000991EA11CB11C8B8A9C8AAD8ABE8AE09144
:103020000D04F0910E04F98FE88FA0910C04B0E02C
:103030000E94502B680D791D8A1D9B1D6A8F7B8F06
:103040008C8F9D8F15E0EE0FFF1F1A95E1F7E15071
:10305000FE4FEF2FFF27E695DC01CB018E0F9F1F60
:10306000A11DB11D8E879F87A88BB98B80900F04FF
:10307000909010048114910419F0A12CB12C08C077
:1030800080901C0490901D04A0901E04B0901F041A
:10309000A7019601281B390B4A0B5B0BDA01C9010A
:1030A000880D991DAA1DBB1D04C0B695A7959795BF
:1030B00087950A95D2F789879A87AB87BC87853F22
:1030C0003FE09307A105B10510F48CE014C0853FE3
:1030D0009F4FA105B10510F480E10DC08091280437
:1030E00090912904A0912A04B0912B048A8F9B8F80
:1030F000AC8FBD8F80E28F8B81E0DF91CF911F91EC
:103100000F91FF90EF90DF90CF90BF90AF909F9086
:103110008F900895FC0181E08083118213821282D6
:10312000158214829FEF96831782118610868287FC
:10313000138692E09487858716861786108A118AEF
:103140000895CF93DF93EC0188859985009711F05E
:103150000E94022C8E8187FD05C060E0DF91CF9137
:103160000C948522DF91CF910895CF93DF93EC01EA
:103170008E8187FD07C061E00E94852260E08E811C
:103180000E94BE2281E08983DF91CF910895EF9262
:10319000FF920F931F93CF93DF93EC017B01888500
:1031A0009985009711F00E94022C9D858A859813BD
:1031B00003C083E090E002C084E090E08E9D800137
:1031C0008F9D100D9E9D100D11241D830C83C80131
:1031D0000E946A2B99878887009741F0A80160E0D8
:1031E00070E00E94E32DFB82EA8204C01D821C82F3
:1031F0001B821A82DF91CF911F910F91FF90EF9068
:103200000895FC0121E095858285981320E0CB018B
:1032100036E0969587953A95E1F7482F43704587B4
:10322000CB0154E0969587955A95E1F7382F337086
:103230003287CB019695879596958795837083877E
:10324000862F8370848781E06F3F710511F008F04D
:1032500080E0808380859185892B51F091E0431334
:1032600090E0921729F062817381CF010C94C71806
:103270000895CF92DF92EF92FF920F931F93CF9317
:10328000DF93CDB7DEB729970FB6F894DEBF0FBE38
:10329000CDBF8C01DC0118968D919C911997892BDB
:1032A00009F49AC00E94FE21F801C684D784E08800
:1032B000F1886C197D098E099F09623371058105BA
:1032C000910580F3F894848195819A838983A08500
:1032D000B1857D01EFEFEE1AFE0A8C918987D80146
:1032E0009C9152960D90BC91A02DF8018489992350
:1032F00009F42EC09C91982B98879C9180958923E6
:103300008F838F818E8388E08D8358856F81498577
:103310003D812E8189819A81F7015C9347FD252F9C
:103320003A952C93262F39F0441F00C000006C936F
:10333000000000C0F2CF38E041916C93000001978B
:1033400061F7F801B38BA28B49873D832E8338C088
:103350009C91982B98879C91809589238F838F814E
:103360008C8388E08B8358856F8149853B812C81D4
:1033700089819A81F7015C9347FD252F00C000C029
:103380002C9300C000C000C000C000C06C930000BF
:10339000262F3A9541F0441F000000C000C000C035
:1033A00000C000C0E8CF38E0419100C06C9300C07D
:1033B000019709F7F801B38BA28B49873B832C83D4
:1033C0009A83898378940E94FE21D8011E966D937A
:1033D0007D938D939C93519729960FB6F894DEBFF9
:1033E0000FBECDBFDF91CF911F910F91FF90EF9056
:1033F000DF90CF9008951F93CF93DF93EC01162FAA
:103400008981882331F08E8187FD03C060E00E94AE
:1034100085221E838981882341F061E0812F0E94EB
:10342000852260E0812F0E94BE22812F90E0FC0166
:10343000E250FF4FE491F0E0EE0FFF1FE45EFE4F1D
:10344000259134913B8B2A8BFC01E651FF4F8491EF
:103450008C8BDF91CF911F910895EF92FF920F9384
:103460001F93CF93DF931F92CDB7DEB77C018B0103
:10347000FC01118217821186108616861786108A23
:10348000118AB90149830E940119B801C7010E943C
:10349000C7184981642FC7010F90DF91CF911F9109
:1034A0000F91FF90EF900C94FB19CF92DF92EF9267
:1034B000FF920F931F93CF93DF93FC01828193813F
:1034C0006817790708F04DC0CA01AA27BB27182F33
:1034D000C32ED42EE52EFF24DC2DC22F078100231E
:1034E00061F0809FC0011124192FC09E600111243A
:1034F000DD2D209FC0011124C92FF5848285A08570
:10350000B185F81208C0CB01880F991F860F971F4D
:103510008A0F9B1F17C0CB01880F991F880F991F17
:103520008A0F9B1F452F552766277727DC01AF0D94
:10353000B11D002329F0409F90011124232F01C0C9
:10354000242F2C932285DC01A20FB11D1C9323850F
:10355000DC01A20FB11DDC932485FC01E20FF11DFB
:10356000C083DF91CF911F910F91FF90EF90DF907B
:10357000CF900895962F50E060E070E0592B682BB3
:10358000CB01BA010895FF920F931F93CF93DF935E
:10359000EC01FF24F394F60E2F81F21679F10885E1
:1035A00019852150B9F06F3F59F430E040E050E008
:1035B0006FEF7FEF80E090E00E942B2BB9010CC0F1
:1035C0008F2D90E0982F88270197622F70E00E943E
:1035D000E12A02C060E070E0F8018C819D81AF01BA
:1035E000401B510B4817590740F44081469FC001CA
:1035F000479F900D11249193F0CFFF82DF91CF91DF
:103600001F910F91FF900895FC014481558160E066
:1036100070E0808591850C94E32D4F925F926F92BC
:103620007F928F929F92AF92BF92CF92DF92EF9252
:10363000FF920F931F93CF93DF93CDB7DEB72897F9
:103640000FB6F894DEBF0FBECDBF29833A834B83FC
:103650005C8320E030E040E05FE30E94F9290E94B3
:103660005C2A9B01AC010E94F9296D837E838F83C4
:103670009887C801B7010E9442282B013C01C6016E
:10368000B5010E9442289B01AC01C301B2010E9416
:10369000F9294B015C0120E030E040E05FE3698103
:1036A0007A818B819C810E94F9290E945C2A2B01DE
:1036B0003C019B01AC01C501B4010E94F929A301A1
:1036C00092010E94F9294B015C019B01AC0160E071
:1036D00070E080E89FE30E9477270E94662A2B0112
:1036E0003C01A50194016D817E818F8198850E94A6
:1036F00078270E94662AA30192010E94EB279B0172
:10370000AC010E94782720E73DE642EC5AE40E9493
:10371000F92921EA38EF41E550E40E94F929289679
:103720000FB6F894DEBF0FBECDBFDF91CF911F91D2
:103730000F91FF90EF90DF90CF90BF90AF909F9050
:103740008F907F906F905F904F9008954F925F920F
:103750006F927F92AF92BF92CF92DF92EF92FF92E1
:103760000F931F93CF93DF93CDB7DEB760970FB65C
:10377000F894DEBF0FBECDBF2B013C0129833A83F5
:103780004B835C83ED82FE820F83188725E33AEF3B
:103790004EE85CE3C801B7010E94F92969877A877E
:1037A0008B879C8725E33AEF4EE85CE3C301B201C7
:1037B0000E94F9296D877E878F87988B29813A81AE
:1037C0004B815C81C601B5010E94772725E33AEF62
:1037D0004EE85CE30E94F92969837A838B839C839A
:1037E000A3019201C801B7010E94772725E33AEFB0
:1037F0004EE85CE30E94F929A984BA84CB84DC8476
:10380000ED84FE840F85188929813A814B815C8182
:103810000E940D1B60960FB6F894DEBF0FBECDBFA1
:10382000DF91CF911F910F91FF90EF90DF90CF909C
:10383000BF90AF907F906F905F904F9008954F92A0
:103840005F926F927F928F929F92AF92BF92CF9230
:10385000DF92EF92FF920F931F93CF93DF93CDB739
:10386000DEB764970FB6F894DEBF0FBECDBF2B0155
:103870003C01E982FA820B831C83298B3A8B4B8BA8
:103880005C8B0E9442286D837E838F839887C8015A
:10389000B7010E945C2A69877A878B879C87C3015E
:1038A000B2010E945C2A6D877E878F87988BC80142
:1038B000B7010E9442282B013C0129893A894B8992
:1038C0005C89C601B5010E9477274B015C010E940B
:1038D000422869837A838B839C83C501B4010E944B
:1038E0005C2A4B015C0129853A854B855C856D819D
:1038F0007E818F8198850E94F9296B017C01A3014B
:1039000092016D857E858F8598890E94F92929818C
:103910003A814B815C810E94F9299B01AC01C7016E
:10392000B6010E9477276B017C01A3019201C501BA
:10393000B4010E94F929A70196010E94EB2720E01B
:1039400030E044E353E40E94F9292BED3FE049E4E1
:1039500050E40E94452864960FB6F894DEBF0FBE6F
:10396000CDBFDF91CF911F910F91FF90EF90DF902E
:10397000CF90BF90AF909F908F907F906F905F900F
:103980004F9008954F925F926F927F92AF92BF9245
:10399000CF92DF92EF92FF920F931F93CF93DF931B
:1039A000CDB7DEB728970FB6F894DEBF0FBECDBFF8
:1039B0002B013C0129833A834B835C83ED82FE8299
:1039C0000F831887C601B50125E33AEF4EE85CE3A3
:1039D0000E94F9295B016C0125E33AEF4EE85CE3B4
:1039E000C801B7010E94F9296D837E838F83988770
:1039F00025E33AEF4EE85CE369817A818B819C8113
:103A00000E94F92969837A838B839C8325E33AEFAB
:103A10004EE85CE3C301B2010E94F929ED80FE800B
:103A20000F81188529813A814B815C810E941F1C7E
:103A30002B013C0120E030E0A9010E943E2887FFD5
:103A40000AC020E030E044EB53E4C301B2010E941D
:103A500078272B013C01298D3A8D4B8D5C8DC3015C
:103A6000B2010E9477272B013C0120E030E0A90140
:103A70000E943E2887FF0AC020E030E044EB53E478
:103A8000C301B2010E9478272B013C01C301B2019E
:103A900028960FB6F894DEBF0FBECDBFDF91CF9151
:103AA0001F910F91FF90EF90DF90CF90BF90AF905C
:103AB0007F906F905F904F9008958F929F92AF92FA
:103AC000BF92CF92DF92EF92FF920F931F93CF930B
:103AD000DF938C01EB01A42EB22E6EE072E085E044
:103AE00096E00E946225488159816A817B8122E0AB
:103AF00030E085E096E00E941E27F801C080D1806A
:103B0000E280F38020E030E048EC52E4C701B601E7
:103B10000E9445280E94AD28862E20E030E048EC27
:103B200052E4688179818A819B810E9445280E94A4
:103B3000AD28962EF82D84E6F802B00111248827CE
:103B400077FD8095982F0E94E0289B01AC01C7016A
:103B5000B6010E947727F801608371838283938383
:103B6000F92D84E6F802B0011124882777FD8095AD
:103B7000982F0E94E0289B01AC01688179818A819D
:103B80009B810E947727688379838A839B83682D32
:103B9000772767FD7095872F972F0E94E0286B018C
:103BA0007C0120E030E040E752E4F801608171815F
:103BB000828193810E9445289B01AC01C701B60117
:103BC0000E947827F8016083718382839383692D33
:103BD000772767FD7095872F972F0E94E0286B014C
:103BE0007C0120E030E040E752E4688179818A81FD
:103BF0009B810E9445289B01AC01C701B6010E9430
:103C00007827688379838A839B83AA2051F0F801FF
:103C100080819181A281B381B05880839183A283F6
:103C2000B383BB2049F088819981AA81BB81B058B8
:103C300088839983AA83BB83DF91CF911F910F91D2
:103C4000FF90EF90DF90CF90BF90AF909F908F90BC
:103C500008950C948A180C94A1180F931F93CF9376
:103C6000DF93CDB7DEB765970FB6F894DEBF0FBE12
:103C7000CDBF8C0122E530E046E06CE370E0CE0180
:103C800001960E942D1A85E1FE013196D80101901E
:103C90000D928A95E1F7CE0101960E94A118C80104
:103CA0000E94B51864E1C8010E94C31AC8010E94AD
:103CB000391984EF91E0F801968B858B81E0878B31
:103CC0008FE1808F87E2818F86E2828F85E2838F0A
:103CD00084E2848F83E2858F8BE1868F83E1878FF7
:103CE0008BE080A383E081A384E082A385E083A3AB
:103CF00086E084A387E085A38FE086A387E187A37E
:103D000065960FB6F894DEBF0FBECDBFDF91CF91A1
:103D10001F910F9108958031910514F04097FBCFCA
:103D200097FF02C04096FCCF08956F927F929F92BA
:103D3000AF92BF92CF92DF92EF92FF920F931F93B9
:103D4000CF93DF9300D000D0CDB7DEB73C018B011D
:103D5000415051094930510508F0FBC14C5C5F4F9F
:103D6000FA010C944A2B6EEFB62EB00EE12CF12C1A
:103D70000E5F1F4FCB2CCE0CDD24C7FCD094FFEF81
:103D8000EF1AFF0A0C151D050CF4E3C140E06FEFBC
:103D900080E00E94BA1A9B01AC01C60129833A83D4
:103DA0004B835C830E948B1E860D971DFC01608DEA
:103DB000772767FD709529813A814B815C81C3012A
:103DC0000E94551AD7CF5EEF952E960EE12CF12C5E
:103DD0005B0182E0A80EB11CC92CCE0CDD24C7FC0F
:103DE000D094FFEFEF1AFF0A40E06FEFAC14BD0470
:103DF0000CF484C180E00E94BA1A9B01AC01C60198
:103E000029833A834B835C830E948B1E860D971D0A
:103E1000FC01608D772767FD709529813A814B8180
:103E20005C81C3010E94551AD7CF4EEF942E960E97
:103E3000C12CD12C7B01F2E0EF0EF11CA92CAC0CB3
:103E4000BB24A7FCB094FFEFCF1ADF0A40E06FEF6E
:103E5000EA14FB04DCF08FEF0E94BA1A9B01AC015C
:103E6000C50129833A834B835C830E948B1E860D98
:103E7000971DFC01608D772767FD709529813A8138
:103E80004B815C81C3010E94551AD8CF80E00E940B
:103E9000BA1A9B01AC01C70129833A834B835C8327
:103EA0000E948B1E860D971DFC01608D772767FD94
:103EB000709529813A814B815C81C3010E94551A1A
:103EC00040E06FEF80E0B1C03EEFB32EB60EE12CC4
:103ED000F12C0E5F1F4FCB2CCE0CDD24C7FCD094F1
:103EE000FFEFEF1AFF0A0C151D050CF432C140E07C
:103EF0006FEF8FEF0E94BA1A9B01AC01C6012983B4
:103F00003A834B835C830E948B1E860D971DFC01B8
:103F1000608D772767FD709529813A814B815C819F
:103F2000C3010E94551AD7CF2EEF922E960EE12C88
:103F3000F12C5B0182E0A80EB11CC92CCE0CDD2453
:103F4000C7FCD094FFEFEF1AFF0A40E0AC14BD04A9
:103F50000CF4D3C06FEF8FEF0E94BA1A9B01AC0133
:103F6000C60129833A834B835C830E948B1E860D96
:103F7000971DFC01608D772767FD709529813A8137
:103F80004B815C81C3010E94551AD7CF9EEF992EB9
:103F9000960EC12CD12C7B01F2E0EF0EF11CA92C66
:103FA000AC0CBB24A7FCB094FFEFCF1ADF0A40E0B3
:103FB000EA14FB04E4F060E08FEF0E94BA1A9B0160
:103FC000AC01C50129833A834B835C830E948B1E1D
:103FD000860D971DFC01608D772767FD70952981FF
:103FE0003A814B815C81C3010E94551AD8CF6FEF93
:103FF0008FEF0E94BA1A9B01AC01C70129833A8353
:104000004B835C830E948B1E860D971DFC01608D87
:10401000772767FD709529813A814B815C81C301C7
:104020000E94551A40E06FEF8FEF0E94BA1A9B0171
:10403000AC01C801029768C08EEFB82EB60EE12C15
:10404000F12C0E5F1F4FCB2CCE0CDD24C7FCD0947F
:10405000FFEFEF1AFF0A0C151D050CF47AC040E0C3
:1040600060E08FEF0E94BA1A9B01AC01C601298360
:104070003A834B835C830E948B1E860D971DFC0147
:10408000608D772767FD709529813A814B815C812E
:10409000C3010E94551AD7CFBB24BA94B60EE12CA7
:1040A000F12C0F5F1F4FCB2CCE0CDD24C7FCD0941E
:1040B000FFEFEF1AFF0A0C151D050CF44AC040E093
:1040C00060E08FEF0E94BA1A9B01AC01C601298300
:1040D0003A834B835C830E948B1E860D971DFC01E7
:1040E000608D772767FD709529813A814B815C81CE
:1040F000C3010E94551AD7CF40E060E08FEF0E94C5
:10410000BA1A9B01AC01C80129833A834B835C83B3
:104110000E948B1E860D971DFC01608D772767FD21
:10412000709529813A814B815C81C3010F900F907A
:104130000F900F90DF91CF911F910F91FF90EF9013
:10414000DF90CF90BF90AF909F907F906F900C9436
:10415000551A0F900F900F900F90DF91CF911F91F4
:104160000F91FF90EF90DF90CF90BF90AF909F9016
:104170007F906F9008952F923F924F925F926F922F
:104180007F928F929F92AF92BF92CF92DF92EF92E7
:10419000FF920F931F93CF93DF93EC014A0188277F
:1041A00077FD8095982F1F921F921F9220E12F93E9
:1041B000A12CB12C650118E6E12EFF24F39400E058
:1041C00010E020E030E0A9010E9430272B013C01E3
:1041D0001B01882777FD8095982F1F921F9221E061
:1041E0002F9328E62F9310E1E12EF12C00E010E050
:1041F00020E030E0A9010E9430277E8B6D8B5F8923
:104200004FEF450F8DB79EB708960FB6F8949EBF37
:104210000FBE8DBF493078F4842F90E0880F991F2E
:10422000FC01E25CFD4F20813181FC01E45DFD4F2A
:104230008081918104C08AE090E021E030E088151F
:1042400099051CF45F5F5F8B04C0821693061CF413
:104250004F8B81E001C080E09F899A3014F099E093
:104260009F8B811104C09FEF2916390604F1CE01FE
:104270000E94041B4F89552747FD5095B201CE017E
:104280000E94951ECE01DF91CF911F910F91FF905B
:10429000EF90DF90CF90BF90AF909F908F907F90E6
:1042A0006F905F904F903F902F900C943919DF9151
:1042B000CF911F910F91FF90EF90DF90CF90BF9023
:1042C000AF909F908F907F906F905F904F903F90B6
:1042D0002F900895CF93DF93EC0161307105E9F0E1
:1042E00064F4672B81F540E06FEF80E00E94BA1A1A
:1042F0009B01AC0160E070E023C062307105B9F051
:104300006330710501F540E06FEF80E00E94BA1A5A
:104310009B01AC0168E170E013C040E06FEF80E00A
:104320000E94BA1A9B01AC0168E070E009C040E04D
:104330006FEF80E00E94BA1A9B01AC0160E170E06F
:10434000CE010E94551ACE01DF91CF910C943919FC
:104350001F920F920FB60F9211242F933F938F93BA
:104360009F93AF93BF938091FD059091FE05A0911F
:10437000FF05B09100063091FC0523E0230F2D3797
:1043800020F40196A11DB11D05C026E8230F029659
:10439000A11DB11D2093FC058093FD059093FE05A2
:1043A000A093FF05B093000680910106909102064C
:1043B000A0910306B09104060196A11DB11D809342
:1043C000010690930206A0930306B0930406BF91E2
:1043D000AF919F918F913F912F910F900FBE0F90B2
:1043E0001F9018952FB7F8946091FD057091FE0508
:1043F0008091FF05909100062FBF08953FB7F89474
:104400008091010690910206A0910306B0910406E6
:1044100026B5A89B05C02F3F19F00196A11DB11D1F
:104420003FBF6627782F892F9A2F620F711D811D3C
:10443000911D42E0660F771F881F991F4A95D1F79B
:104440000895789484B5826084BD84B5816084BD0C
:1044500085B5826085BD85B5816085BDEEE6F0E0FD
:10446000808181608083E1E8F0E010828081826059
:104470008083808181608083E0E8F0E080818160DA
:104480008083E1EBF0E0808184608083E0EBF0E00A
:10449000808181608083EAE7F0E0808184608083AE
:1044A0008081826080838081816080838081806858
:1044B00080831092C1000895833081F028F4813008
:1044C00099F08230A1F008958730A9F08830B9F0D2
:1044D0008430D1F4809180008F7D03C08091800072
:1044E0008F7780938000089584B58F7702C084B55C
:1044F0008F7D84BD08958091B0008F7703C0809137
:10450000B0008F7D8093B0000895CF93DF9390E04B
:10451000FC01E651FF4F2491FC01E250FF4F8491D2
:10452000882349F190E0880F991FFC01EA5DFE4F56
:10453000A591B491845E9E4FFC01C591D4919FB723
:10454000611108C0F8948C91209582238C93888106
:1045500082230AC0623051F4F8948C91322F309546
:1045600083238C938881822B888304C0F8948C9158
:10457000822B8C939FBFDF91CF9108950F931F9350
:10458000CF93DF931F92CDB7DEB7282F30E0F9012C
:10459000EA52FF4F8491F901E651FF4F1491F9015E
:1045A000E250FF4F04910023C9F0882321F0698372
:1045B0000E945C226981E02FF0E0EE0FFF1FE45EB5
:1045C000FE4FA591B4919FB7F8948C91611103C0EF
:1045D0001095812301C0812B8C939FBF0F90DF9199
:1045E000CF911F910F910895CF93DF93282F30E043
:1045F000F901EA52FF4F8491F901E651FF4FD4913E
:10460000F901E250FF4FC491CC2391F081110E9437
:104610005C22EC2FF0E0EE0FFF1FEE5EFE4FA59147
:10462000B4912C912D2381E090E021F480E002C030
:1046300080E090E0DF91CF910895FC01818D228D83
:1046400090E0805C9F4F821B91098F73992708959A
:10465000FC01918D828D981731F0828DE80FF11D4C
:10466000858D90E008958FEF9FEF0895FC01918D67
:10467000828D981761F0828DDF01A80FB11D5D96C4
:104680008C91928D9F5F9F73928F90E008958FEF32
:104690009FEF08958AEB94E2892B49F080E090E047
:1046A000892B29F00E94BA2481110C9400000895EE
:1046B000FC01848DDF01A80FB11DA35ABF4F2C91BF
:1046C000848D90E001968F739927848FA689B7898E
:1046D0002C93A089B1898C9180648C93938D848D67
:1046E000981306C00288F389E02D80818F7D808336
:1046F0000895CF93DF93EC01888D8823C9F0EA8970
:10470000FB89808185FD05C0A889B9898C9186FDCA
:104710000FC00FB607FCF5CF808185FFF2CFA889C7
:10472000B9898C9185FFEDCFCE010E945823E7CF48
:10473000DF91CF910895CF92DF92FF920F931F9355
:10474000CF93DF931F92CDB7DEB76C0181E0D60126
:1047500058968C9358975B969C915B975C968C913E
:104760005C97981307C05096ED91FC91519780810A
:1047700085FD2EC0F601038D10E00F5F1F4F0F73F4
:104780001127F02EF601848DF81211C00FB607FC28
:10479000F9CFD6015096ED91FC915197808185FF1C
:1047A000F1CFC60169830E9458236981EBCF838DC5
:1047B000E80FF11DE35AFF4F6083D6015B960C931F
:1047C0005B975296ED91FC915397808180620CC06B
:1047D000D6015696ED91FC91579760835096ED91D6
:1047E000FC91519780818064808381E090E00F90FC
:1047F000DF91CF911F910F91FF90DF90CF9008959F
:10480000BF92CF92DF92EF92FF92CF93DF93EC01B2
:104810006A017B01B22EE889F98982E08083411523
:1048200081EE580761057105A1F060E079E08DE344
:1048300090E0A70196010E94092B215031094109FE
:1048400051095695479537952795211580E13807E9
:1048500098F0E889F989108260E874E88EE190E0C8
:10486000A70196010E94092B2150310941095109E4
:104870005695479537952795EC85FD853083EE85D0
:10488000FF852083188EEC89FD89B082EA89FB8937
:10489000808180618083EA89FB8980818860808350
:1048A000EA89FB89808180688083EA89FB8980812D
:1048B0008F7D8083DF91CF91FF90EF90DF90CF903D
:1048C000BF9008951F920F920FB60F9211242F934D
:1048D0008F939F93EF93FF93E0911506F091160647
:1048E0008081E0911B06F0911C0682FD12C0908130
:1048F00080911E068F5F8F7320911F06821751F0E3
:10490000E0911E06F0E0EB5FF94F958F80931E0655
:1049100001C08081FF91EF919F918F912F910F9016
:104920000FBE0F901F9018951F920F920FB60F9207
:1049300011242F933F934F935F936F937F938F93A4
:104940009F93AF93BF93EF93FF9385E096E00E9410
:104950005823FF91EF91BF91AF919F918F917F91DC
:104960006F915F914F913F912F910F900FBE0F90DC
:104970001F90189585E096E00E941D2321E0892B69
:1049800009F420E0822F089510920806109207067D
:1049900088EE93E0A0E0B0E08093090690930A06C9
:1049A000A0930B06B0930C0684E592E09093060664
:1049B0008093050685EC90E0909312068093110693
:1049C00084EC90E0909314068093130680EC90E0C2
:1049D000909316068093150681EC90E0909318064C
:1049E0008093170682EC90E090931A068093190644
:1049F00086EC90E090931C0680931B0610921E0696
:104A000010921F0610922006109221060895089514
:104A10000E9421220E9407250E942701CAE4D3E2B6
:104A20000E94D2012097E1F30E944A23F9CFCF924E
:104A3000DF92EF92FF920F931F93CF93DF937C014E
:104A40006A01EB0100E010E00C151D0571F06991A1
:104A5000D701ED91FC910190F081E02DC7010995FE
:104A6000892B19F00F5F1F4FEFCFC801DF91CF9156
:104A70001F910F91FF90EF90DF90CF9008956115F7
:104A8000710581F0DB010D900020E9F7AD01415087
:104A90005109461B570BDC01ED91FC910280F3811B
:104AA000E02D099480E090E008950C943F25DC010E
:104AB000ED91FC910190F081E02D099460E672E0A7
:104AC0000C943F250F931F93CF93DF93EC010E942B
:104AD0003F258C01CE010E945E25800F911FDF9142
:104AE000CF911F910F9108958F929F92AF92BF9295
:104AF000DF92EF92FF920F931F93CF93DF93CDB787
:104B0000DEB7A1970FB6F894DEBF0FBECDBF7C0114
:104B1000F42FD52ECB0119A2223008F42AE08E0101
:104B20000F5D1F4F822E912CA12CB12C6F2F7D2D4C
:104B3000A50194010E94092BF22FD32ECA01015026
:104B400011096A3014F4E0E301C0E7E3E60FD8018D
:104B5000EC93232B242B252B49F7B801C7010E9486
:104B60003F25A1960FB6F894DEBF0FBECDBFDF91F3
:104B7000CF911F910F91FF90EF90DF90BF90AF907A
:104B80009F908F900895CF92DF92EF92FF920F93B4
:104B90001F93CF93DF93EC016A017B01211531054F
:104BA00079F4E881F9810190F081E02D642FDF91A3
:104BB000CF911F910F91FF90EF90DF90CF900994CC
:104BC0002A303105E9F477FF1AC06DE20E945725BB
:104BD0008C0144275527BA014C195D096E097F09DC
:104BE0002AE0CE010E947425800F911FDF91CF91A2
:104BF0001F910F91FF90EF90DF90CF9008952AE0E2
:104C0000B701A601CE01DF91CF911F910F91FF90C7
:104C1000EF90DF90CF900C9474252115310541F46D
:104C2000DC01ED91FC910190F081E02D642F09945D
:104C30000C9474250F931F93CF93DF93EC019A018B
:104C4000462F50E060E070E00E940D268C01CE01FE
:104C50000E945E25800F911FDF91CF911F910F91D0
:104C600008954F925F926F927F928F929F92AF9230
:104C7000BF92CF92DF92EF92FF920F931F93CF9349
:104C8000DF93EC016A017B01B22E9A01AB01C701EF
:104C9000B6010E94A72A882319F063E672E027C0B4
:104CA00026013701E89477F82FEF3FEF4FE75FE7F2
:104CB000C301B2010E94A72A81110DC02FEF3FEF5F
:104CC0004FE75FE7C301B2010E943E2818161CF4AB
:104CD00067E672E00CC02FEF3FEF4FE75FE4C701DC
:104CE000B6010E94EE291816ACF46BE672E0CE0114
:104CF000DF91CF911F910F91FF90EF90DF90CF90B8
:104D0000BF90AF909F908F907F906F905F904F90EB
:104D10000C943F252FEF3FEF4FE75FECC701B60143
:104D20000E943E2887FDE1CF20E030E0A901C701C5
:104D3000B6010E943E2887FF0AC06DE2CE010E94A4
:104D400057258C01F7FAF094F7F8F09402C000E0D0
:104D500010E0A12C60E070E080E09FE3AB1441F034
:104D600020E030E040E251E40E944528A394F6CFD1
:104D70009B01AC01C701B6010E9478276B017C0141
:104D80000E94B2282B013C010E94DE289B01AC014D
:104D9000C701B6010E9477276B017C012AE0B301AD
:104DA000A201CE010E947425080F191FBB2039F003
:104DB0006FE672E0CE010E943F25080F191F7B2C81
:104DC000772041F120E030E040E251E4C701B60134
:104DD0000E94F9296B017C010E94AD284B01AA2495
:104DE00097FCA094BA2C2AE030E0B501A401CE01D2
:104DF0000E94C325080F191FC501B4010E94E028B5
:104E00009B01AC01C701B6010E9477276B017C01B1
:104E10007A94D6CFC801DF91CF911F910F91FF9067
:104E2000EF90DF90CF90BF90AF909F908F907F904A
:104E30006F905F904F9008950C9431260F931F93BD
:104E4000CF93DF93EC010E9431268C01CE010E94AA
:104E50005E25800F911FDF91CF911F910F910895D3
:104E60004F925F926F927F92AF92BF92CF92DF92FA
:104E7000EF92FF920F931F93CF93DF93CDB7DEB7DF
:104E800029013A01621B730B840B950B29893A891E
:104E90004B895C892A193B094C095D09298B3A8B9E
:104EA0004B8B5C8B9B01AC0169897A898B899C89CE
:104EB0000E94D12AE418F50806091709A8019701EC
:104EC0000E942B2B2A0D3B1D4C1D5D1DCA01B901F3
:104ED000DF91CF911F910F91FF90EF90DF90CF90D6
:104EE000BF90AF907F906F905F904F900895505813
:104EF000BB27AA270ED027C2F0D130F0F5D120F081
:104F000031F49F3F11F41EF4C0C10EF4E095E7FBAD
:104F1000B6C1E92F3AD280F3BA1762077307840744
:104F2000950718F071F49EF552C20EF4E0950B2E21
:104F3000BA2FA02D0B01B90190010C01CA01A001EB
:104F40001124FF27591B99F0593F50F4503E68F146
:104F50001A16F040A22F232F342F4427585FF3CF87
:104F6000469537952795A795F0405395C9F77EF458
:104F70001F16BA0B620B730B840BBAF09150A1F0A1
:104F8000FF0FBB1F661F771F881FC2F70EC0BA0F27
:104F9000621F731F841F48F4879577956795B795AF
:104FA000F7959E3F08F0B3CF9395880F08F09927A7
:104FB000EE0F97958795089590D158F080E891E08D
:104FC00009F49EEF91D128F040E851E059F45EEFEA
:104FD00009C05BC1FCC1E92FE078D7D168F3092E85
:104FE000052AC1F3261737074807590738F00E2E50
:104FF00007F8E02569F0E025E0640AC0EF6307F8F0
:10500000009407FADB01B9019D01DC01CA01AD0181
:10501000EF934AD098D10AD05F91552331F02BED10
:105020003FE049E450FD49EC63CF0895DF93DD276D
:10503000B92FBF7740E85FE31616170648075B07EE
:1050400010F4D92FCFD19F938F937F936F937CD2FE
:10505000EAE7F0E01DD177D12F913F914F915F9119
:10506000D4D1DD2349F09058A2EA2AED3FE049EC83
:105070005FE3D0785D274DDFDF9165C1DCD008F4B8
:1050800081E0089539D1E3956FC10CD05CC12CD17A
:1050900040F023D130F021F45F3F19F0F0C05111FE
:1050A00097C1F3C072D198F39923C9F35523B1F393
:1050B000951B550BBB27AA2762177307840738F087
:1050C0009F5F5F4F220F331F441FAA1FA9F333D0E6
:1050D0000E2E3AF0E0E830D091505040E695001C9A
:1050E000CAF729D0FE2F27D0660F771F881FBB1F56
:1050F000261737074807AB07B0E809F0BB0B802D30
:10510000BF01FF2793585F4F2AF09E3F510568F07B
:10511000B6C05EC15F3FECF3983EDCF386957795B1
:105120006795B795F7959F5FC9F7880F911D96957D
:10513000879597F90895E1E0660F771F881FBB1FD9
:10514000621773078407BA0720F0621B730B840B86
:10515000BA0BEE1F88F7E095089504D06894B1115A
:1051600037C108951AD188F09F5790F0B92F992729
:10517000B751A0F0D1F0660F771F881F991F1AF062
:10518000BA95C9F712C0B13081F021D1B1E00895CC
:105190001EC1672F782F8827B85F39F0B93FCCF34D
:1051A000869577956795B395D9F73EF49095809558
:1051B000709561957F4F8F4F9F4F0895E89409C078
:1051C00097FB3EF490958095709561957F4F8F4F3A
:1051D0009F4F9923A9F0F92F96E9BB279395F69550
:1051E000879577956795B795F111F8CFFAF4BB0FCE
:1051F00011F460FF1BC06F5F7F4F8F4F9F4F16C032
:10520000882311F096E911C0772321F09EE8872FBB
:10521000762F05C0662371F096E8862F70E060E077
:105220002AF09A95660F771F881FDAF7880F9695F0
:10523000879597F90895990F0008550FAA0BE0E894
:10524000FEEF16161706E807F907C0F01216130648
:10525000E407F50798F0621B730B840B950B39F488
:105260000A2661F0232B242B252B21F408950A26EE
:1052700009F4A140A6958FEF811D811D089597F92E
:105280009F6780E870E060E008959FEF80EC0895EC
:10529000DF93CF931F930F93FF92EF92DF927B01E7
:1052A0008C01689405C0DA2EEF01AFD0FE01E894BE
:1052B000A5912591359145915591AEF3EF0129DEE8
:1052C000FE019701A801DA9479F7DF90EF90FF9043
:1052D0000F911F91CF91DF91089500240A94161623
:1052E000170618060906089500240A9412161306D4
:1052F000140605060895C9CF50D0E8F3E894E0E01D
:10530000BB279F57F0F02AED3FE049EC06C0EE0FB7
:10531000BB0F661F771F881F28F0B23A620773071A
:10532000840728F0B25A620B730B840BE3959A95AD
:1053300072F7803830F49A95BB0F661F771F881F6D
:10534000D2F790480AC1092E0394000C11F4882367
:1053500052F0BB0F40F4BF2B11F460FF04C06F5F2D
:105360007F4F8F4F9F4F0895EF93E0FF06C0A2EA53
:105370002AED3FE049EC5FEBCCDDE5DF0F900394D5
:1053800001FC9058E7EAF0E0FBC057FD9058440F4D
:10539000551F59F05F3F71F04795880F97FB991F94
:1053A00061F09F3F79F08795089512161306140651
:1053B000551FF2CF4695F1DF08C0161617061806DE
:1053C000991FF1CF86957105610508940895E894B9
:1053D000BB2766277727CB0197F908952CDF08F4C0
:1053E0008FEF08959B01AC0160E070E080E89FE3DF
:1053F0004CCE0BD0A8CF71DF28F076DF18F09523C4
:1054000009F03DCF42CF1124E3CFBFDFA0F3959F3A
:10541000D1F3950F50E0551F629FF001729FBB279B
:10542000F00DB11D639FAA27F00DB11DAA1F649F47
:105430006627B00DA11D661F829F2227B00DA11DFA
:10544000621F739FB00DA11D621F839FA00D611D80
:10545000221F749F3327A00D611D231F849F600DA1
:10546000211D822F762F6A2F11249F5750408AF0DA
:10547000E1F088234AF0EE0FFF1FBB1F661F771F66
:10548000881F91505040A9F79E3F510570F0F7CE0C
:105490009FCF5F3FECF3983EDCF386957795679559
:1054A000B795F795E7959F5FC1F7FE2B880F911D84
:1054B0009695879597F908959F931EDF0F9007FCA7
:1054C000EE5F52CF11F40EF4E0CE45C066DFD0F3AC
:1054D0009923D9F3CEF39F57550B87FF4AD0002469
:1054E000A0E640EA900180585695979528F4805C94
:1054F000660F771F881F20F026173707480730F4FC
:10550000621B730B840B202931294A2BA695179413
:105510000794202531254A2758F7660F771F881FE3
:1055200020F026173707480730F4620B730B840B03
:10553000200D311D411DA09581F7B901842F91588F
:10554000880F9695879508959B01AC0152CF73DE25
:10555000880B990B08959F3F31F0915020F4879567
:1055600077956795B795880F911D9695879597F9CB
:10557000089591505040660F771F881FD2F7089505
:105580009F938F937F936F93FF93EF939B01AC0156
:1055900030DFEF91FF917CDE2F913F914F915F9132
:1055A00028CFDB018F939F930E94502BBF91AF9127
:1055B000A29F800D911DA39F900DB29F900D11246D
:1055C0000895AA1BBB1B51E107C0AA1FBB1FA6174A
:1055D000B70710F0A61BB70B881F991F5A95A9F79C
:1055E00080959095BC01CD01089597FB072E16F488
:1055F000009407D077FD09D00E94E12A07FC05D06E
:105600003EF4909581959F4F0895709561957F4FD9
:105610000895A1E21A2EAA1BBB1BFD010DC0AA1FF3
:10562000BB1FEE1FFF1FA217B307E407F50720F00B
:10563000A21BB30BE40BF50B661F771F881F991F86
:105640001A9469F760957095809590959B01AC01CF
:10565000BD01CF010895052E97FB1EF400940E9412
:10566000422B57FD07D00E94092B07FC03D04EF4B4
:105670000C94422B50954095309521953F4F4F4FBC
:105680005F4F089590958095709561957F4F8F4FEE
:105690009F4F0895EE0FFF1F0590F491E02D0994A0
:1056A0000E945B2BA59F900DB49F900DA49F800D31
:1056B000911D11240895A29FB001B39FC001A39F23
:1056C000700D811D1124911DB29F700D811D11243B
:1056D000911D0895CF93DF938230910510F482E0FD
:1056E00090E0E091A406F091A50620E030E0A0E073
:1056F000B0E0309739F14081518148175907B8F02F
:105700004817590771F482819381109729F01396F5
:105710009C938E9312972CC09093A5068093A40619
:1057200027C02115310531F04217530718F0A901A0
:10573000DB0101C0EF019A01BD01DF010280F381AD
:10574000E02DD7CF21153105F9F0281B390B243076
:10575000310580F48A819B816115710521F0FB017F
:105760009383828304C09093A5068093A406FE01D0
:10577000329644C0FE01E20FF31F819391932250B1
:105780003109398328833AC02091A2063091A306BB
:10579000232B41F420910201309103013093A306A1
:1057A0002093A206209100013091010121153105BD
:1057B00041F42DB73EB74091040150910501241BDF
:1057C000350BE091A206F091A306E217F307A0F4CF
:1057D0002E1B3F0B2817390778F0AC014E5F5F4F47
:1057E0002417350748F04E0F5F1F5093A3064093D0
:1057F000A2068193919302C0E0E0F0E0CF01DF9137
:10580000CF910895CF93DF93009709F487C0FC01EF
:10581000329713821282C091A406D091A5062097D8
:1058200081F420813181280F391F8091A206909147
:10583000A3068217930779F5F093A306E093A206D7
:105840006DC0DE0120E030E0AE17BF0750F41296C5
:105850004D915C9113979D014115510509F1DA01B4
:10586000F3CFB383A28340815181840F951F8A17A0
:105870009B0771F48D919C911197840F951F02964F
:105880009183808312968D919C9113979383828349
:105890002115310529F4F093A506E093A4063EC036
:1058A000D9011396FC93EE9312974D915D91A40F3D
:1058B000B51FEA17FB0779F480819181840F951F4A
:1058C0000296D90111969C938E93828193811396AF
:1058D0009C938E931297E0E0F0E08A819B81009781
:1058E00019F0FE01EC01F9CFCE0102962881398131
:1058F000820F931F2091A2063091A3062817390723
:1059000069F4309729F41092A5061092A40602C0FB
:1059100013821282D093A306C093A206DF91CF9187
:1059200008952F923F925F926F927F928F929F92F3
:10593000AF92BF92CF92DF92EF92FF920F931F939D
:10594000CF93DF938B01EA016115710521F0DB0133
:105950008C9311969C93209739F09E012250310927
:105960002332310508F0FBC07C016701BFEFCB1A81
:10597000DB0A5601F7016080862D90E00E94C92D58
:10598000892B11F07601F1CFFDE26F120AC05701A9
:1059900082E0A80EB11CD70111966C907724739405
:1059A0000BC0BBE26B1207C05701E2E0AE0EB11CA8
:1059B000D70111966C90712CCE018F7E892B89F4C2
:1059C000B0E36B1222C0F50180818F7D883541F5EF
:1059D0006180F2E0AF0EB11C872D8260782EC0E1AD
:1059E000D0E0C830D105F1F04CF4C230D10511F54A
:1059F000C12CD12CE12CB0E4FB2E2FC0CA30D10534
:105A000031F0C031D10521F115C0209751F7CAE01E
:105A1000D0E0ACECCA2EDC2CEC2CACE0FA2E1DC095
:105A20002097F9F6C8E0D0E0C12CD12CE12CF0E1B0
:105A3000FF2E13C060E070E080E090E89E014427F4
:105A400037FD4095542F0E94092B69017A0105C04A
:105A5000C12CD12CE12CE8E0FE2EF50160E020E025
:105A600030E0A9014E01AA2497FCA094BA2C1F0192
:105A700070ED572E560CA9E0A51570F48FEB860D2E
:105A80008A3118F499EC592E06C08FE9860D8A31B7
:105A900030F589EA582E560C852D90E08C179D071D
:105AA000F4F467FD18C0C216D306E406F50680F0CC
:105AB000C501B4010E94D12A9B01AC01250D311D05
:105AC000411D511D213031054105B0E85B0710F043
:105AD0006FEF01C061E03196D1016C90C8CF872D86
