:100000000C94BB000C94E3000C94E3000C942F05BB
:100010000C942F050C942F050C94E3000C94E30032
:100020000C94E3000C94E3000C94E3000C94E300C4
:100030000C94E3000C94E3000C94E3000C94E300B4
:100040000C946B220C94E3000C945F250C94912586
:100050000C94E3000C94E3000C94E3000C94E30094
:100060000C94E3000C94E300801FB01FE21F3120CA
:1000700061209320E92019214921084AD73B3BCE32
:10008000016E84BCBFFDC12F3D6C74319ABD568397
:100090003DDA3D00C77F11BED9E4BB4C3E916BAA4F
:1000A000AABE000000803F05A84CCDB2D44EB9389E
:1000B00036A9020C50B9918688083CA6AAAA2ABE85
:1000C000000000803F007C3C3E5E2B3D3F2F5B5D8F
:1000D0003B2C2A225C000000000800020100000303
:1000E00004070000000000000000010204081020C6
:1000F00040800102040810200102040810200404BA
:1001000004040404040402020202020203030303BF
:100110000303000000002300260029000000000067
:10012000250028002B0000000000240027002A00E2
:100130004E414E494E495459494E46CDCCCC3D0ACC
:10014000D7233C17B7D13877CC2B329595E6241FAF
:10015000B14F0A000020410000C84200401C462068
:10016000BCBE4CCA1B0E5AAEC59D7400D801940982
:10017000D90CC125E70111241FBECFEFD8E0DEBFA7
:10018000CDBF12E0A0E0B1E0E4E3FFE502C00590DE
:100190000D92A43BB107D9F727E0A4EBB2E001C070
:1001A0001D92AB32B207E1F711E0C4E7D1E004C021
:1001B0002297FE010E94F92ACC36D107C9F70E9486
:1001C00005260C948D2F0C9400008F929F92AF9275
:1001D000BF92CF92DF92EF92FF920F931F93CF9334
:1001E000C82F4A015B01C901B8010E9462286B0156
:1001F0007C01C501B4010E946228A6018CED92E049
:100200000E9488216C2F70E08CED92E0CF911F91BD
:100210000F91FF90EF90DF90CF90BF90AF909F90A5
:100220008F900C942D221F93CF93DF93182FC8EE3D
:10023000D3E0812F0E94F123019721F02197C9F784
:1002400081E001C080E0DF91CF911F910895CF93AD
:10025000DF93CDB7DEB76B970FB6F894DEBF0FBE56
:10026000CDBF40ED57E060E070E088E496E00E948A
:10027000631B20E032EC41E050E068E876E088E47F
:1002800096E00E94761B88E496E00E94601B6EE078
:1002900071E08091790690917A060E9452266AE078
:1002A00070E080E090E00E94E42241E060E088E4B9
:1002B00096E00E94E11B8CED92E00E94FA1E0E94E3
:1002C0001E2360E082E00E94822326E040E052ECA0
:1002D00061E070E088E896E00E94FD2461E08AE039
:1002E0000E9482236AE083EF93E00E94ED07882357
:1002F00031F060E271E088E896E00E94582623E140
:100300004DE251E063EF73E0CE0101960E940609D1
:100310008B819C819093B9028093B8028D819E81DC
:10032000AF81B8858093BA029093BB02A093BC02C0
:10033000B093BD0289859A85AB85BC858093BE024A
:100340009093BF02A093C002B093C1028DE0FE0162
:100350003D96A2ECB2E001900D928A95E1F78A8D6C
:100360009B8D9093D0028093CF0240E855E260E0ED
:1003700070E084E093E00E94320669E371E084E07B
:1003800093E00E9458266AE471E084E093E00E94C2
:10039000582663E671E084E093E00E9458266B964D
:1003A0000FB6F894DEBF0FBECDBFDF91CF91089599
:1003B00020E047E068E084E093E00E9402068CEDD4
:1003C00092E00E94F61E86EB92E00C947E078CED84
:1003D00092E00E94F81E84E093E00C94A905CF936C
:1003E000DF9380E8E3E2F3E0DF011D928A95E9F70D
:1003F000C0E084E093E00E94C0040196D1F384E061
:1004000093E00E944C04AC2FB0E0AD5DBC4F8C93E8
:10041000CC2329F0843219F480932303C0E0809127
:100420002303843231F781E08C0FEC2FF0E0ED5D97
:10043000FC4F90819A3011F0C82FDBCF90E0FC0187
:10044000EF5DFC4F1082EC012597FE01ED5DFC4F46
:1004500020812A3269F640E150E060E070E0815E80
:100460009C4F0E943E2C21E0822F90E08C179D072C
:100470003CF4FC01ED5DFC4F808168272F5FF4CFD9
:100480006111B6CFDF91CF9108956F927F928F92D5
:100490009F92AF92BF92CF92DF92EF92FF920F9313
:1004A0001F93CF93DF93CDB7DEB728970FB6F8949D
:1004B000DEBF0FBECDBF0E94B522672B682B692B14
:1004C00041F40E94B522623071058105910508F45E
:1004D00077C00E94B5226093A3037093A403809316
:1004E000A5039093A603C090A703D090A803E09023
:1004F000A903F090AA036C157D058E059F0540F4B5
:100500006093A7037093A8038093A9039093AA0311
:10051000C090A703D090A803E090A903F090AA038D
:100520009B01AC012C193D094E095F0969017A0153
:100530003AEFC316D104E104F10408F441C060931A
:10054000A7037093A8038093A9039093AA0388E458
:1005500096E00E94601B65E971E0809179069091B8
:100560007A060E9452266DE971E080917906909199
:100570007A060E9452260E94B522AB01BC012AE0F5
:1005800030E08091790690917A060E94B9266FE951
:1005900071E08091790690917A060E94522665E07A
:1005A00070E080E090E00E94E4226AE070E080E089
:1005B00090E00E94E42261E088E496E00E94A31BA0
:1005C0008091DB028093DA0282E090E00E941301C6
:1005D0008093DB028823D9F082E00E94F123892BEB
:1005E000B1F066EE71E088E896E00E9452264AE09B
:1005F00050E06091D90288E896E00E94CD26809173
:10060000D9028F5F843008F40EC11092D9020E9483
:10061000EF0180912603823509F09CC063E273E00C
:1006200088E896E00E94582668EA71E083E293E049
:100630000E947E2D68EA71E080E090E00E947E2DAD
:1006400068EA71E080E090E00E947E2DBC0188E8BD
:1006500096E00E94582668EA71E080E090E00E94EF
:100660007E2D3C0168EA71E080E090E00E947E2DE2
:100670008C01BC0188E896E00E94582668EA71E087
:1006800080E090E00E947E2D6C0168EA71E080E0DD
:1006900090E00E947E2D4C01BC0188E896E00E940B
:1006A000582668EA71E080E090E00E947E2D68EABA
:1006B00071E080E090E00E947E2D7C0168EA71E0AC
:1006C00080E090E00E947E2D68EA71E080E090E09A
:1006D0000E947E2D68EA71E080E090E00E947E2D0D
:1006E0006CEA71E080E090E00E947E2D60EB71E0AA
:1006F00080E090E00E947E2DF8011081F4010081DD
:10070000C3010E94722D6D837E838F839887C601FB
:100710000E94722D69837A838B839C83C7010E9418
:10072000722D962E872E782E692E86EB92E00E94EF
:10073000E007882349F067EB71E086EB92E00E94C6
:1007400058266DEB71E002C069EC71E088E896E034
:100750000E94582621E0073509F020E041E01335DA
:1007600009F040E0BE016F5F7F4FCE0105960E9409
:100770004C1E29813A814B815C816D817E818F8104
:100780009885A12CB12C6501860175010E94951CEC
:100790006093D5027093D6028093D7029093D802CB
:1007A00029813A814B815C816D817E818F81988521
:1007B0006F927F928F929F920E94B11DAB01BC01FC
:1007C0004093D1025093D2026093D3027093D4022B
:1007D0000091D5021091D6022091D7023091D80213
:1007E0008091D9020E94E50063E273E088E896E018
:1007F0000E9458260F900F900F900F9028960FB6DA
:10080000F894DEBF0FBECDBFDF91CF911F910F9146
:10081000FF90EF90DF90CF90BF90AF909F908F9020
:100820007F906F9008958093D902F1CECF93CFB788
:10083000F8948091AE03811127C0E8E0F1E0849143
:10084000E4EFF0E09491E82FF0E0EE0FFF1FEA5D97
:10085000FE4FA591B4918C91892321F461E08AE047
:100860000E94BB2361E08AE00E9482238CB58061F4
:100870008CBD8CB580648CBD61E08DE00E948223CC
:1008800061E08BE00E9482238091AE038F5F8093B2
:10089000AE03CFBFCF9108952091F1033091F203C1
:1008A00028173907B9F49091AF038091B0039817D6
:1008B00089F0E091AF03F0E0EF54FC4F808120918C
:1008C000AF0330E02F5F3F4F2F7333272093AF03E9
:1008D00090E008958FEF9FEF08951F93CF93DF93DC
:1008E000DC015C968D919C915D97009749F481E0C5
:1008F00090E013969C938E93129780E090E03BC01B
:100900005196ED91FC91529750962C915097322F21
:1009100030951FB75E964C915E9741FB772770F933
:1009200041FD6095F8944081772311F0422B01C07E
:1009300043234083EC012197F1F748E0508160FFA9
:1009400002C0522B01C053235083EC012197F1F7D1
:100950006695415099F78081772311F0832301C078
:10096000822B80831FBF5C968D919C915D97019730
:10097000F1F781E090E0DF91CF911F910895089504
:100980002091F1033091F2032817390771F4909107
:10099000AF038091B003981741F0E091AF03F0E00E
:1009A000EF54FC4F808190E008958FEF9FEF089502
:1009B0002091F1033091F2032817390771F48091E7
:1009C000B0032091AF0390E0805C9F4F821B9109A0
:1009D00060E470E00E94A22A089580E090E008950B
:1009E000E091F103F091F203E817F90769F4A389A4
:1009F000B4899C918589809589238C931092F20308
:100A00001092F10381E0089580E00895CF93DF9381
:100A1000EC018A8D9B8D892BF1F08091F1039091EF
:100A2000F2038C179D07B9F0009711F00E94F004B3
:100A30008E8D8E7F8E8F1092B0031092AF03D09365
:100A4000F203C093F103EB89FC8980819D89892B96
:100A5000808381E001C080E0DF91CF9108951F92F3
:100A60000F920FB60F9211242F933F934F935F93E2
:100A70006F937F938F939F93AF93BF93EF93FF9366
:100A8000E091F103F091F203309709F451C0868DA3
:100A9000A685B785958581FF04C08C91892329F4AB
:100AA00047C08C91892309F043C0A389B4899C91E4
:100AB0008589809589238C93868997890197F1F799
:100AC000208D318DA685B785758558E040E0C90138
:100AD0000197F1F7842F90E095958795482F6C91B9
:100AE000672309F04068515091F7868D81FD40954C
:100AF0008091B00390E001968F7399272091AF0306
:100B0000281749F0A091B003B0E0AF54BC4F4C930C
:100B10008093B00303C0868D8160868F828D938D14
:100B20000197F1F7A389B4898C919589892B8C93CE
:100B3000FF91EF91BF91AF919F918F917F916F91B5
:100B40005F914F913F912F910F900FBE0F901F908B
:100B5000189523EF31E0FC01318320830C94F004DD
:100B60001F93CF93DF93EC01162F6E8D6695617006
:100B700081E06827812F0E94BB2361E0812F0E94C2
:100B80008223812F90E0FC01E651FF4FE491E88B36
:100B9000FC01E250FF4FE491F0E0EE0FFF1FE45E36
:100BA000FE4F859194919A8B898BDF91CF911F9104
:100BB00008951F93CF93DF93EC01162F60E0812FF0
:100BC0000E9482238E8D81FD04C061E0812F0E94EE
:100BD000BB231C87812F90E0FC01E651FF4FE4917D
:100BE000ED87FC01E250FF4FE491F0E0EE0FFF1FB4
:100BF000EE5EFE4F859194919F878E87DF91CF9116
:100C00001F910895FF920F931F93CF93DF93EC01F1
:100C1000F62E522F1B821A8208EE13E020E030E0FD
:100C20000C831D832E833F8383EF91E09983888318
:100C30001F8A1E8A198E188E1B8E1A8E1D8E1C8E70
:100C40008E8D8E7F50FB81F98E8F642FCE010E9496
:100C5000B0056F2DCE01DF91CF911F910F91FF90C5
:100C60000C94D905CF93DF93EC019A01AB011B8E55
:100C70001A8E198E188E1F8A1E8A60E079E08DE325
:100C800090E00E94D82AC9012430310520F0B90132
:100C90006350710902C061E070E07D8F6C8FEC855C
:100CA000E63108F068C0B901769567956431710541
:100CB00018F06351710902C061E070E07F8B6E8BA8
:100CC000069718F0C901059702C081E090E0998F5E
:100CD000888FC901880F991F820F931F969587955A
:100CE000969587958D30910510F00C9702C081E0A4
:100CF00090E09B8F8A8F20916800E83050F091E05F
:100D0000EE3008F490E081E001C0880F9A95EAF790
:100D100001C084E0822B809368002C85283038F055
:100D20002E3040F0263148F48CE690E008C08DE685
:100D300090E005C08BE690E002C080E090E09C8BE4
:100D40008B8B283030F481E001C0880F2A95EAF7B8
:100D50000DC0822F90E02E3010F4089701C00E973E
:100D600091E001C0990F8A95EAF7892F8D8B8C8DC0
:100D70009D8D0197F1F7CE01DF91CF910C9406057F
:100D8000CF93DF931F92CDB7DEB76983DC01ED917E
:100D9000FC910280F381E02D41E050E0BE016F5FE5
:100DA0007F4F09950F90DF91CF910895CF93DF93F7
:100DB000EC01898D9A8D009759F0FC011382128203
:100DC0000E945A12E98DFA8D22813381232B31F052
:100DD00081E090E09B838A8380E090E0DF91CF9177
:100DE0000895FC01818D928D009711F00C94FA0FFB
:100DF0000895CF93DF931F92CDB7DEB741E050E067
:100E0000BE016F5F7F4F0E940B0E019719F489811D
:100E100090E002C08FEF9FEF0F90DF91CF91089588
:100E2000FC01818D928D009711F00C94F9068FEFE3
:100E30009FEF08950F931F93CF93DF938C01FC01D5
:100E4000818D928D0097B9F00E94F906EC018F3FD9
:100E5000FFEF9F0799F0F801818D928DFC0142858B
:100E600053856485758541505109610971090E9456
:100E70005E0FCE0105C080E090E002C08FEF9FEFD3
:100E8000DF91CF911F910F910895CF92DF92EF9252
:100E9000FF920F931F93CF93DF93EC017B016A01C5
:100EA0001B821A8208EE13E020E030E00C831D83E1
:100EB0002E833F8383E092E0998388838DE190E0E5
:100EC0000E94172B9A8F898F009779F02DE1F701F7
:100ED000DC0101900D922A95E1F74CE050E0B6015B
:100EE000CE010C960E94A22D188EDF91CF911F91FA
:100EF0000F91FF90EF90DF90CF900895FC01138247
:100F0000128248EE53E060E070E0448355836683CC
:100F1000778383E092E091838083128E118E148612
:100F20000895DC015996ED91FC915A97309729F07C
:100F3000628573858485958508956FEF7FEFCB017A
:100F40000895DC015996ED91FC915A97309729F05C
:100F50006389748985899689089560E070E0CB0182
:100F60000895CF92DF92EF92FF92CF93DF93EC013F
:100F7000898D9A8D892BD9F0CE010E94A1076B0132
:100F80007C01CE010E949107A7019601261B370B19
:100F9000480B590BDA01C901811530E89307A10507
:100FA000B10538F08FEF9FE7A0E0B0E002C080E02D
:100FB00090E0DF91CF91FF90EF90DF90CF90089578
:100FC000DC015996ED91FC915A97309721F081E020
:100FD0009581911101C080E008950F931F93CF93E5
:100FE000DF93EC01462F61E00E94D10A811102C01B
:100FF00080E01DC08E01045F1F4F41E0BE01C801AB
:101000000E94A117882359F0B801CE018A960E9448
:10101000BB0D91E0811101C090E0892F08C040E034
:10102000BE01C8010E94A117882311F3EDCFDF9103
:10103000CF911F910F910895FC01DB0112968D91C4
:101040009C9113979383828385E192E091838083BF
:1010500014968C911497848315968C91159785839B
:1010600016964D915D916D917C91199746835783AA
:10107000608771871A964D915D916D917C911D9756
:1010800042875387648775871E964D915D916D9158
:101090007C91519746875787608B718B52968C91C4
:1010A0005297828B53964D915D916D917C9156979D
:1010B000438B548B658B768B57964D915D916D91DB
:1010C0007C915A97478B508F618F728F5B968D9171
:1010D0009C915C97948F838F08954F925F926F924B
:1010E0007F928F929F92AF92BF92CF92DF92EF92B8
:1010F000FF920F931F93CF93DF93CDB7DEB7C75403
:10110000D1090FB6F894DEBF0FBECDBF6C014A0106
:101110003901665D7F4F5E018EE1A80EB11CC501ED
:101120000E941C081C821B8285E192E09A838983BD
:101130001E828401FE0131967F015A2C4B2C6FE2F6
:1011400070E0C8010E94972D0097E9F1F801208115
:101150002F3219F40F5F1F4FF2CF801B8D3008F034
:101160008CE0A82EB12CA501B801CE01CB960E942F
:10117000A22DEBE3F0E0EC0FFD1FEA0DFB1D10824A
:10118000C7010E94411021E0AE01455C5F4F652D13
:10119000742DC7010E947511811109C0F6011382D7
:1011A000128285E192E091838083158216C00A0D38
:1011B0001B1D852D942D0E944110C2015E2C4F2CC9
:1011C000E92EF82EBCCF08191909F3011183008309
:1011D000652D742DC6010E941C08C601C95BDF4F36
:1011E0000FB6F894DEBF0FBECDBFDF91CF911F9138
:1011F0000F91FF90EF90DF90CF90BF90AF909F90B6
:101200008F907F906F905F904F9008959F92AF92D4
:10121000BF92CF92DF92EF92FF920F931F93CF93E3
:10122000DF93CDB7DEB7C955D1090FB6F894DEBF4D
:101230000FBECDBF7C016B015A01922E9E01285A30
:101240003F4FCE01CB960E946D086A960EAD1FAD42
:101250006A970A0D1B1DF801808181110AC0BE0129
:10126000655C7F4FCE0101960E941C084FE052E062
:1012700041C019A218A285E192E09F8F8E8F1BA218
:1012800021968FAD2197811104C0C7010E947E076E
:1012900037C08250823060F4B601665D7F4F292DE1
:1012A000A801CE014E960E947511811110C0EDCF9C
:1012B000292DA801BE01655C7F4FCE014E960E948C
:1012C0007511882311F3CE01CB960E944110892D10
:1012D000867041F049A95AA96BA97CA9CE014E9606
:1012E0000E945E0FBE01625E7F4FCE0101960E949A
:1012F0001C08A801BE016F5F7F4FC7010E94450710
:10130000C701C75ADF4F0FB6F894DEBF0FBECDBF7F
:10131000DF91CF911F910F91FF90EF90DF90CF90D1
:10132000BF90AF909F9008951092F8031092F90328
:101330001092FC031092FE0382E090E0A0E0B0E087
:101340008093FF0390930004A0930104B0930204E0
:10135000109216041092200410921F0485E192E06E
:1013600090931E0480931D041092220408959FB749
:10137000F8942091AD038091AB03213019F48DBB1B
:101380009FBF08958FBF08952091AD03222399F048
:101390003FB7F8942091AD03213059F42DB3209339
:1013A000AB034DB32091AC03209524232DBB3FBF4D
:1013B00002C03093AB038CBD9DBD08958EBD00006F
:1013C0000DB407FEFDCF8EB508958FEF0C94DE09A6
:1013D00061E0FC0184810E94BB2380913C0488234E
:1013E00039F010923C048091AD0381110C94B7093F
:1013F0000895CF93DF93EC0180913C04811109C0E3
:1014000081E080933C0480913D0490913E040E94D1
:10141000C40960E08C81DF91CF910C94BB23CF9302
:10142000DF93EC018E81882389F08F8198859C0160
:101430002F5F3F4F38872F838230924018F40E94ED
:10144000E509F3CFCE010E94E8091E82DF91CF911A
:101450000895673028F026E1FC01258380E0089597
:10146000623081F030F4662359F06130B1F480E5E8
:1014700015C0643059F040F0653079F482E50EC053
:1014800080E505C081E503C081E508C082E5809361
:101490003D0481E080933E04089583E580933D04FC
:1014A00010923E0481E008950F931F93CF93DF9332
:1014B000EB010E94B5228B010E94E5098F3F49F0A4
:1014C0000E94B522601B710B6C177D07A8F380E0AA
:1014D00001C081E0DF91CF911F910F910895CF92CC
:1014E000DF92FF920F931F93CF93DF9300D000D032
:1014F000CDB7DEB76C01F62E29833A834B835C832C
:101500000E940F0AC6010E94F9096CE271E0C6014F
:101510000E94540A8F2D80640E94DE0908E110E0C9
:101520005C814B813A812981DA01C901002E04C016
:10153000B695A795979587950A94D2F729833A830C
:101540004B835C830E94DE090850110929813A818E
:101550004B815C81083F8FEF180731F7FF2029F09E
:10156000E8E0FE1621F08FEF03C085E901C087E8AF
:101570000E94DE0910E00E94E509F601828787FFDC
:1015800004C01F3F11F01F5FF6CF0F900F900F9018
:101590000F90DF91CF911F910F91FF90DF90CF902F
:1015A0000895BF92CF92DF92EF92FF920F931F9315
:1015B000CF93DF93EC01B62E1B8619861E821D8207
:1015C0004C830E94B5228B0161E08C810E948223B2
:1015D00061E08C810E94BB230E94160482E5809307
:1015E0003D0410923E0480913D0490913E040E947F
:1015F000C4092AE0F22E8FEF0E94DE09FA94D9F78F
:101600008091AD0381110E94B709CE010E94F909B2
:1016100020E030E0A90160E0CE010E946F0AF82EC0
:101620008A8781E0F81649F00E94B522601B710B91
:10163000613D774068F381E04BC02AEA31E040E049
:1016400050E068E0CE010E946F0A82FF02C0FB8674
:101650000DC094E0F92E0E94E5098A87FA94D9F723
:101660008A3A11F082E034C082E08B878B85823029
:1016700031F4C12CD12CE12C80E4F82E03C0C12C14
:10168000D12C760120E030E0A90167E3CE010E9471
:101690006F0AA701960169E2CE010E946F0A8A874C
:1016A000882349F00E94B522601B710B613D774091
:1016B00048F388E00DC08B85823031F520E030E0C2
:1016C000A9016AE3CE010E946F0A882381F086E0B7
:1016D0008D83CE010E94E80980E0DF91CF911F91B8
:1016E0000F91FF90EF90DF90CF90BF9008950E94F0
:1016F000E509807C803C11F483E08B870E94E5093A
:101700000E94E5090E94E509CE010E94E8096B2DBF
:10171000CE01DF91CF911F910F91FF90EF90DF905D
:10172000CF90BF900C94290A0F931F93CF93DF9310
:10173000EC010E94B5228B010E94E5098A878F3F48
:1017400049F40E94B522601B710B6D327140A0F309
:101750008FE003C08E3F39F08DE08D83CE010E9473
:10176000E80980E001C081E0DF91CF911F910F91E6
:101770000895CF92DF92EF92FF920F931F93CF9332
:10178000DF93EC0169010115110509F462C0C8017C
:10179000820F931F8130924008F05DC08E818823B4
:1017A00071F088819981AA81BB81481759076A071E
:1017B0007B0729F48F819885C816D90610F54883D0
:1017C00059836A837B838B85833039F039E0440FFA
:1017D000551F661F771F3A95D1F79A01AB0161E15A
:1017E000CE010E946F0A882319F083E08D8333C0F5
:1017F000CE010E94940B882371F118861F8281E02C
:101800008E838F8198858C159D0540F40E94E50993
:101810008F819885019698878F83F3CF6701E00EBB
:10182000F11ECE14DF0431F00E94E509F601819328
:101830006F01F7CF8F819885800F911F98878F83D5
:101840002985222319F08115924018F0CE010E94BB
:101850000F0A81E004C0CE010E94E80980E0DF9118
:10186000CF911F910F91FF90EF90DF90CF9008954F
:10187000EF92FF920F931F93790100E012E020E0B6
:1018800030E00E94B90B1F910F91FF90EF900895E7
:10189000CF92DF92EF92FF920F931F93CF93DF933C
:1018A00000D0CDB7DEB78C01862F49835A830E94C2
:1018B000DE094981C42E5A81D52EE12CF12CF60186
:1018C00081916F010E94DE09FFEFEF1AFF0AE11418
:1018D00082E0F806A1F78FEF0E94DE098FEF0E94E9
:1018E000DE090E94E509F80182878F71853039F0A1
:1018F00081E18583C8010E94E80980E001C081E0A0
:101900000F900F90DF91CF911F910F91FF90EF906B
:10191000DF90CF9008950F931F93CF93DF93EC0147
:101920008901411551056105710511F482E132C04B
:101930008B85833039F089E0440F551F661F771F70
:101940008A95D1F79A01AB0168E1CE010E946F0A36
:10195000882311F084E01EC0A8016EEFCE010E9422
:10196000480C8823C1F068E572E0CE010E94540A59
:10197000811102C085E10EC020E030E0A9016DE0D8
:10198000CE010E946F0A811104C00E94E5098823DC
:1019900039F084E18D83CE010E94E80980E004C023
:1019A000CE010E94E80981E0DF91CF911F910F9154
:1019B000089580E580933D0410923E040895CF93EE
:1019C000DF93EC019C012A5F3F4F41E050E060E073
:1019D00070E08B8D9C8D0E9436168823A1F04F8974
:1019E000588D698D7A8D452B462B472B71F44E818E
:1019F0005F81688579854F8B588F698F7A8F8C814D
:101A000080688C8302C080E001C081E0DF91CF91CB
:101A10000895CF92DF92EF92FF921F93CF93DF93BF
:101A2000EC010E94DF0C811102C080E04BC0EB8D05
:101A3000FC8DCE80DF80E884F98482E0C81AD1086A
:101A4000E108F108058404C0CC0CDD1CEE1CFF1C71
:101A50000A94D2F74685578560897189C40ED51ED0
:101A6000E61EF71E148181E0C81AD108E108F108CA
:101A7000112361F0C701B601610F711D811D911D18
:101A80000E948014882389F21150F2CFEB8DFC8DD7
:101A9000C12C82E0D82EE12CF12C058404C0CC0CA2
:101AA000DD1CEE1CFF1C0A94D2F74B895C896D8902
:101AB0007E894C0D5D1D6E1D7F1D4B8B5C8B6D8B70
:101AC0007E8B81E0DF91CF911F91FF90EF90DF90AF
:101AD000CF900895CF93DF93EC01462F6E857F85DD
:101AE000888999890E944514882341F08A8920E2D7
:101AF000829FC0011124885B9B4F02C080E090E070
:101B0000DF91CF910895282FFB018BE030E23193D4
:101B10008150E9F7A22FB92F20E037E09D9199235A
:101B200019F19E3219F0E6ECF0E008C03A3011F1FC
:101B300028E03AE0F3CF31964917E1F044914111A2
:101B4000FACF3217B8F04FED490F4E3598F441E017
:101B5000420FFB01E20FF11D2FE9290F2A3108F492
:101B600090529083242FDACF81E0FB019081903254
:101B700009F480E008950F931F93CF93DF93EC0156
:101B80008B018D81882311F080E040C0FB018789A3
:101B90008031B1F482E08D831F8A188E198E1A8EDF
:101BA000408D518D60E070E095E0440F551F661F39
:101BB000771F9A95D1F74B8B5C8B6D8B7E8B15C005
:101BC000803211F783E08D83FB01428D538D648D4C
:101BD000758D4F8B588F698F7A8F9E012D5E3F4F89
:101BE000C8010E942A15882379F21C8F0B8F81E08F
:101BF0008C831E821F82188619861A861B861C8675
:101C00001D861E861F86188A198A1A8ADF91CF912F
:101C10001F910F9108952F923F924F925F926F9272
:101C20007F928F929F92AF92BF92CF92DF92EF926C
:101C3000FF920F931F93CF93DF93EC016B015A0137
:101C40008D81811103C08FEF9FEFDAC08C8180FFFF
:101C5000FACF4B895C896D897E898A859B85AC85A5
:101C6000BD852501612C712C8A019B01081B190B74
:101C70002A0B3B0B041515052605370518F45A01E8
:101C8000A81AB90A25011E0126E0220E311C4114B2
:101C9000510409F47BC04A855B856C857D854A01CA
:101CA00081E09822ED818A019B01F9E03695279524
:101CB00017950795FA95D1F78B8D9C8DE23051F4ED
:101CC000FC01628D738D848D958D600F711F821F55
:101CD000931F3EC0FC0174807A9470228114910499
:101CE000C9F4711017C0452B462B472B49F48F8937
:101CF000988DA98DBA8D8E839F83A887B9870AC0D6
:101D00004E815F816885798591010E94A6148823A0
:101D100009F499CFEB8DFC8D6E817F818885998543
:101D20006250710981099109058404C0660F771F0B
:101D3000881F991F0A94D2F7068517852089318953
:101D4000600F711F821F931F670D711D811D911DF3
:101D500020E032E02819390932012415350508F44C
:101D600039012C8126FD04C06114F2E07F06A1F543
:101D700000910A0110910B0120910C0130910D018D
:101D8000601771078207930719F426C0C50138C090
:101D9000760183019401AB01BC01809146049091CE
:101DA00047040E94B90B882309F44DCFC60CD71CF9
:101DB00004C0E81BF90BCE0EDF1E8A859B85AC851F
:101DC000BD85860D971DA11DB11D8A879B87AC8798
:101DD000BD87461857085BCF40E00E944514882312
:101DE00009F431CFC401885B9B4FD6019C01260DBD
:101DF000371DFC01E217F307E1F241914D93FACF51
:101E0000DF91CF911F910F91FF90EF90DF90CF90D6
:101E1000BF90AF909F908F907F906F905F904F900A
:101E20003F902F900895FF920F931F93CF93DF93CE
:101E30001F92CDB7DEB78C01FC018581823018F48A
:101E400080E090E034C0F801428553856485758553
:101E5000A5E07695679557954795AA95D1F7F42F04
:101E6000FF70FF2E41E050E0BE016F5F7F4FC80161
:101E70000E940B0E019719F4298130E002C02FEF68
:101E80003FEF2F3F3F4FE1F2F801428553856485D4
:101E90007585415E5F4F6F4F7F4F428753876487E1
:101EA0007587F0E2FF9EC0011124885B9B4F0F9065
:101EB000DF91CF911F910F91FF9008954F925F9204
:101EC0006F927F92AF92BF92CF92DF92EF92FF928A
:101ED0000F931F93CF93DF93EC016A017B012D8158
:101EE000222309F457C08B899C89AD89BE89841748
:101EF0009507A607B70708F44DC04EC08A859B8595
:101F0000AC85BD85EB8DFC8DE585F0E03996AC01A7
:101F1000BD0141505109610971090E2E04C0769529
:101F20006795579547950A94D2F797018601015016
:101F300011092109310904C0369527951795079590
:101F4000EA95D2F70417150726073707B0F58F89EA
:101F5000988DA98DBA8D8E839F83A887B987280114
:101F600039015E0186E0A80EB11C411451046104E0
:101F7000710461F14E815F816885798595018B8D52
:101F80009C8D0E94A61491E0491A510861087108BD
:101F90008111EBCF80E01FC02230C1F0C114D10409
:101FA000E104F10409F0AACF1E821F821886198667
:101FB0001A861B861C861D860DC0892B8A2B8B2BAF
:101FC00031F2041B150B260B370BC9CFCA86DB86F3
:101FD000EC86FD8681E0DF91CF911F910F91FF90FC
:101FE000EF90DF90CF90BF90AF907F906F905F9019
:101FF0004F9008950F931F93CF93DF93EC018D8142
:102000008823C9F18C8187FF30C061E0CE010E9436
:102010006A0D8C01009779F18D81823048F44B89EB
:102020005C896D897E89F801448F558F668F778F23
:102030004F89588D698D7A8DF801538F428F758B3A
:10204000648BE0913F04F0914004309759F0B8015F
:102050006A5E7F4FC80148960995F801808D918D81
:10206000938B828B8C818F778C83DF91CF911F91A3
:102070000F910C940A1480E0DF91CF911F910F9182
:102080000895CF93DF93EC010E94FA0F882319F093
:102090001D8281E001C080E0DF91CF9108954F92D1
:1020A0005F926F927F92AF92BF92CF92DF92EF9248
:1020B000FF920F931F93CF93DF9300D000D0CDB743
:1020C000DEB75C016A017B01FC0185818130F1F49E
:1020D000848181FF1BC0F50183899489A589B68914
:1020E00084179507A607B70788F0892B8A2B8B2BB7
:1020F00009F479C0F5014284538464847584B7017E
:10210000A601C5010E945E0F811102C080E06CC073
:10211000F501838D948DC114D104E104F10471F4AF
:102120004789508D618D728D0E944B17882371F302
:10213000F501178A108E118E128E3AC0F501468174
:102140005781608571859E012F5F3F4F0E94A614C5
:102150008823E1F249815A816B817C81F501838D6D
:10216000948DFC012789203129F408EF1FEF20E02E
:1021700030E004C008EF1FEF2FEF3FE0401751079A
:1021800062077307A8F40E944B17882309F4BECF97
:10219000F50146815781608571850FEF1FEF2FEFA5
:1021A0003FE0838D948D0E949515882309F4AECF6E
:1021B000F501C38AD48AE58AF68A8481806884839B
:1021C000C5010E94FA0F882309F4A0CFB701A60128
:1021D0004C145D046E047F0410F4B301A201C50128
:1021E0000E945E0F01C081E00F900F900F900F9042
:1021F000DF91CF911F910F91FF90EF90DF90CF90E3
:10220000BF90AF907F906F905F904F900895FF9236
:102210000F931F93CF93DF93EC01F42E80E2689F1E
:10222000F0011124E85BFB4F8385817129F0842F35
:10223000827411F080E053C06A8B80910A01909102
:102240000B01A0910C01B0910D018E879F87A88B87
:10225000B98B4489558960E070E0BA01552744275D
:10226000028D138D20E030E0402B512B622B732B1D
:102270004F8B588F698F7A8F8385887151F4048DC5
:10228000158D268D378D0B8B1C8B2D8B3E8B81E016
:102290000CC0803179F69E012D5E3F4F8B8D9C8D59
:1022A0000E942A15882331F284E08D838F2D8F7050
:1022B0008C831E821F82188619861A861B861C86AE
:1022C0001D86F6FE0BC040E050E0BA01CE01DF9162
:1022D000CF911F910F91FF900C944F1081E0DF91EF
:1022E000CF911F910F91FF900895AF92BF92CF921F
:1022F000DF92EF92FF920F931F93CF93DF93CDB7AF
:10230000DEB72B970FB6F894DEBF0FBECDBF7C01B2
:102310006B01CA01B22EF70125812111B9C0BE019E
:102320006F5F7F4F0E94830D882309F4B1C0F601CF
:10233000838D948DF701948F838FF6011682178217
:10234000108611861286138614861586A12CF60136
:10235000028513852485358583899489A589B68965
:10236000081719072A073B07E8F545E03695279532
:10237000179507954A95D1F70F70C6010E94130F64
:10238000009709F485C0FC012081222311F0253E2D
:10239000B9F4A1100EC0F701028B40910A015091CF
:1023A0000B0160910C0170910D0146875787608B7E
:1023B000718BFC018081AA24A3948111C8CF12C023
:1023C0004BE050E0BC01CE0101960E94832D892B89
:1023D00009F0BDCF8B2D8073803309F459C04B2D8C
:1023E000602F52C08B2D8271823109F051C0AA201A
:1023F00041F061E0C7010E946A0D8C01009779F4F9
:1024000047C0F6018581823009F442C0C6010E94AE
:10241000090D8823E9F1F701128A08E414E080E24B
:10242000F80111928A95E9F78BE0FE013196D80107
:1024300001900D928A95E1F7E0913F04F0914004FC
:10244000309739F0B801625F7F4FC8014096099517
:1024500009C081E298E2F801918B808B80E098E0DE
:1024600097878687F80180899189938B828B918FDA
:10247000808F86859785978B868B0E940A14882388
:1024800039F04B2DF7016289C7010E94071101C085
:1024900080E02B960FB6F894DEBF0FBECDBFDF9164
:1024A000CF911F910F91FF90EF90DF90CF90BF9051
:1024B000AF9008952F923F924F925F926F927F92CA
:1024C0008F929F92AF92BF92CF92DF92EF92FF9244
:1024D0000F931F93CF93DF9300D000D01F92CDB7FF
:1024E000DEB78C017B013A01DC0115968C911597C2
:1024F0008130C9F414968C9181FF15C082FF1BC0F6
:10250000F801438954896589768982859385A485F4
:10251000B58584179507A607B70769F0C8010E941B
:102520005E0F811108C081E090E0F80193838283FF
:1025300080E090E046C1630180C0D8015B968D9138
:102540009C915C97FC01F481F150B501A40129E054
:1025500076956795579547952A95D1F7F423FD838E
:1025600021E09222FF2309F474C080E092E08819F0
:10257000990956018C159D0508F45C01D8015B96FC
:10258000ED91FC915C9716962D903D904D905C904E
:102590001997B2E02B1A310841085108058404C08C
:1025A000220C331C441C551C0A94D2F7868597854F
:1025B000A089B189280E391E4A1E5B1EED812E0EA0
:1025C000311C411C511CA114F2E0BF0609F088C067
:1025D00080910A0190910B01A0910C01B0910D0125
:1025E00082159305A405B50559F48FEF9FEFDC0123
:1025F00080930A0190930B01A0930C01B0930D01FD
:102600009701B201A10180914604909147040E9474
:102610008B0C882309F487CF9EEFF91ACA18DB08C0
:10262000F80182859385A485B5858A0D9B1DA11D22
:10263000B11D82879387A487B587D8011A968D909C
:102640009D90AD90BC901D97C114D10409F075CF39
:102650008AC08114910409F088CF16964D915D913E
:102660006D917C911997411551056105710559F4DA
:1026700057968D919D910D90BC91A02D0097A1052D
:10268000B10541F521C09E012F5F3F4F0E94A61466
:10269000882309F44ECF89819A81AB81BC81F801EE
:1026A000238D348DF9012789203129F448EF5FEF1C
:1026B00060E070E004C048EF5FEF6FEF7FE08417E9
:1026C0009507A607B70730F0C8010E94DF0C8111FB
:1026D0004CCF29CFF80186839783A087B18745CF58
:1026E0008114910429F5D8011A964D915D916D914F
:1026F0007C911D9753968D919D910D90BC91A02D2D
:10270000481759076A077B0798F00E940A14882324
:1027100009F409CF20920A0130920B0140920C017A
:1027200050920D018091450481608093450408C05A
:1027300041E0C201B1010E944514882309F4F3CE9F
:10274000C401885B9B4FD7019C012A0D3B1DFC01F6
:10275000E217F30719F04D914193FACFE81BF90BFB
:10276000EE0EFF1E5BCF53968D919D910D90BC9107
:10277000A02DF801248188159905AA05BB0538F418
:10278000838A948AA58AB68A206824830CC08091A3
:102790003F0490914004892B31F06114710419F0C9
:1027A0002068F8012483D80114968C9183FD02C01F
:1027B000C30107C0C8010E94FA0F882309F4B3CEF1
:1027C000F7CF0F900F900F900F900F90DF91CF9158
:1027D0001F910F91FF90EF90DF90CF90BF90AF903F
:1027E0009F908F907F906F905F904F903F902F9031
:1027F0000895CF93DF931F92CDB7DEB7698341E091
:1028000050E0BE016F5F7F4F0E945A120F90DF9120
:10281000CF91089580914504882399F140910A0150
:1028200050910B0160910C0170910D0128E434E08E
:1028300080914604909147040E948B0C882319F1E3
:1028400040914104509142046091430470914404CA
:10285000411551056105710591F028E434E080913E
:102860004604909147040E948B0C882361F01092DB
:1028700041041092420410924304109244041092B6
:10288000450481E0089580E00895CF92DF92EF92B1
:10289000FF92CF936B017C01C42F80910A0190912C
:1028A0000B01A0910C01B0910D018C159D05AE0599
:1028B000BF05D1F00E940A14811102C080E01AC045
:1028C00028E434E0B701A6018091460490914704C2
:1028D0000E94380C882391F3C0920A01D0920B0118
:1028E000E0920C01F0920D01809145048C2B8093B5
:1028F000450481E0CF91FF90EF90DF90CF90089555
:10290000CF92DF92EF92FF926B017C010E940A143A
:102910008823B1F0E8E4F4E0119286E0E834F807A7
:10292000D9F7C0920A01D0920B01E0920C01F0920B
:102930000D018091450481608093450481E001C0D0
:1029400080E0FF90EF90DF90CF9008958F929F925C
:10295000AF92BF92CF92DF92EF92FF920F931F93AD
:10296000CF93DF938C016A017B01E901FC01818532
:102970009285A385B4850196A11DB11D8417950785
:10298000A607B70710F480E058C0F80143895489BE
:10299000658976898789803129F4BB27AF2D9E2DE3
:1029A0008D2D09C0D701C60127E0B695A79597954B
:1029B00087952A95D1F74C015D01840E951EA61EC0
:1029C000B71EC501B40180900A0190900B01A09040
:1029D0000C01B0900D01681579058A059B0589F4F5
:1029E000F8018789803199F4DD24EE24FF24F60173
:1029F000EE0FFF1FE85BFB4F80819181A0E0B0E00C
:102A000017C040E00E9445148111EACFBCCFE89482
:102A1000C7F8DD24EE24FF24F601EE0FFF1FEE0FB2
:102A2000FF1FE85BFB4F80819181A281B381BF7062
:102A300088839983AA83BB8381E0DF91CF911F9123
:102A40000F91FF90EF90DF90CF90BF90AF909F904D
:102A50008F9008954F925F926F927F92AF92BF9244
:102A6000CF92DF92EF92FF920F931F93CF93DF935A
:102A700000D000D0CDB7DEB78C0149835A836B8379
:102A80007C835901C12CD12C7601412C42E0542E7B
:102A9000612C712C49815A816B817C819E012F5F51
:102AA0003F4FC8010E94A614882359F1D301C201E7
:102AB000F801058404C0880F991FAA1FBB1F0A9440
:102AC000D2F7C80ED91EEA1EFB1E49815A816B81BE
:102AD0007C818789803129F488EF9FEFA0E0B0E006
:102AE00004C088EF9FEFAFEFBFE0481759076A07B0
:102AF0007B0780F2F501C082D182E282F38281E01D
:102B000001C080E00F900F900F900F90DF91CF9158
:102B10001F910F91FF90EF90DF90CF90BF90AF90FB
:102B20007F906F905F904F9008954F925F926F9259
:102B30007F928F929F92AF92BF92CF92DF92EF924D
:102B4000FF920F931F93CF93DF93EC016A017B01F8
:102B500028013901423051056105710508F474C03E
:102B600049855A856B857C854F5F5F4F6F4F7F4FDF
:102B70004C155D056E057F0508F466C08B889C8842
:102B8000AD88BE888F89803129F477276F2D5E2D1F
:102B90004D2D09C0B701A601E7E0769567955795D9
:102BA0004795EA95D1F7840E951EA61EB71E409153
:102BB0000A0150910B0160910C0170910D01841676
:102BC0009506A606B70671F48F89803199F4DD2445
:102BD000EE24FF24F601EE0FFF1FE85BFB4F51824E
:102BE000408218C040E0C501B4010E944514811123
:102BF000EBCF2AC0E894C7F8DD24EE24FF24F601C9
:102C0000EE0FFF1FEE0FFF1FE85BFB4F408251826C
:102C100062827382809145048160809345048A8931
:102C2000823080F08D819E81AF81B885880D991D9D
:102C3000AA1DBB1D8093410490934204A0934304BA
:102C4000B093440481E001C080E0DF91CF911F91F7
:102C50000F91FF90EF90DF90CF90BF90AF909F903B
:102C60008F907F906F905F904F9008952F923F923A
:102C70004F925F926F927F929F92AF92BF92CF924C
:102C8000DF92EF92FF920F931F93CF93DF93CDB715
:102C9000DEB760970FB6F894DEBF0FBECDBF5C0104
:102CA0004D875E876F87788B1901D9014D905D90B4
:102CB0006D907C90411451046104710431F0BFEFB8
:102CC0004B1A5B0A6B0A7B0A10C0FC0140805180E2
:102CD00062807380992493940D851E852F85388991
:102CE000013011052105310509F0912CD501199606
:102CF0002D913D914D915C911C972F5F3F4F4F4F10
:102D00005F4F29873A874B875C87730162011D8279
:102D10001E821F821886F50181859285A385B48560
:102D20000D811E812F813885081719072A073B0757
:102D300008F056C029853A854B855C852C153D05E4
:102D40004E055F0550F4A2E0CA2ED12CE12CF12CE7
:102D5000B2E04B2E512C612C712C9E012F5F3F4F06
:102D6000B701A601C5010E94A6148823C9F14981B3
:102D70005A816B817C81D701C6010196A11DB11DCD
:102D8000452B462B472B19F02C013D010FC0AC0100
:102D9000BD0144195509660977090D851E852F85E2
:102DA0003889401751076207730779F02D813E81FA
:102DB0004F8158852F5F3F4F4F4F5F4F2D833E838D
:102DC0004F8358876C017D01A6CF0FEF1FEF2FEFC8
:102DD0003FE0B701A601C5010E949515811118C0F9
:102DE00080E041C0D701C6010197A109B1098D83D7
:102DF0009E83AF83B88797018601AC01BD01C501F1
:102E00000E949515882361F3CD80DE80EF80F884E1
:102E10004C145D046E047F0428F3D1014D915D9143
:102E20006D917C91411551056105710599F4F10190
:102E300040825182628273829920A1F0FFEF4F1A83
:102E40005F0A6F0A7F0AD5014D925D926D927C9266
:102E5000139708C093018201C5010E949515811145
:102E6000E6CFBECF81E060960FB6F894DEBF0FBE0E
:102E7000CDBFDF91CF911F910F91FF90EF90DF9029
:102E8000CF90BF90AF909F907F906F905F904F904A
:102E90003F902F900895AF92BF92CF92DF92EF9222
:102EA000FF920F931F93CF93DF9300D000D0CDB745
:102EB000DEB75C016A017B0182E090E0A0E0B0E057
:102EC000F50180839183A283B3839E012F5F3F4FDF
:102ED000B701A601C5010E94A614882311F100E0E4
:102EE00010E09801B701A601C5010E94951588233D
:102EF000C1F0C980DA80EB80FC80F50187898031E0
:102F000029F488EF9FEFA0E0B0E004C088EF9FEFC6
:102F1000AFEFBFE0C816D906EA06FB06B0F281E0C3
:102F200001C080E00F900F900F900F90DF91CF9134
:102F30001F910F91FF90EF90DF90CF90BF90AF90D7
:102F400008958F929F92AF92BF92CF92DF92EF92AD
:102F5000FF920F931F93CF93DF93EC01142F709385
:102F6000470460934604442341F1453010F080E06B
:102F7000EFC040E060E070E0CB010E944514882380
:102F8000B1F320E1129FF0011124EA50FA4F808141
:102F90008F7769F784859585A685B78584369105F1
:102FA000A105B10520F3C084D184E284F384C11467
:102FB000D104E104F10421F4DACFC12CD12C760143
:102FC00040E0C701B6010E944514882381F2809138
:102FD0005304909154048115924049F6309158045D
:102FE000332329F28091560490915704892B09F4D8
:102FF000BECF20915504222309F4B9CF3A8B2C83FC
:103000001D8630E041E050E06D85062FCA01062E96
:1030100002C0880F991F0A94E2F72817390731F088
:1030200081E0860F8D87683078F3A1CF20915E0410
:1030300030915F042115310519F040E050E008C0DF
:1030400020916C0430916D0440916E0450916F0496
:103050002D833E834F835887809156049091570467
:1030600046015701880E991EA11CB11C8B8A9C8AAF
:10307000AD8ABE8AE0915904F0915A04F98FE88F25
:10308000A0915804B0E00E94FD2A680D791D8A1DA8
:103090009B1D6A8F7B8F8C8F9D8F15E0EE0FFF1F1E
:1030A0001A95E1F7E150FE4FEF2FFF27E695DC017F
:1030B000CB018E0F9F1FA11DB11D8E879F87A88BEF
:1030C000B98B80905B0490905C048114910419F09A
:1030D000A12CB12C08C08090680490906904A09045
:1030E0006A04B0906B04A7019601281B390B4A0BA8
:1030F0005B0BDA01C901880D991DAA1DBB1D04C017
:10310000B695A795979587950A95D2F789879A8757
:10311000AB87BC87853F3FE09307A105B10510F45D
:103120008CE014C0853F9F4FA105B10510F480E1EC
:103130000DC08091740490917504A0917604B091B3
:1031400077048A8F9B8FAC8FBD8F80E28F8B81E05D
:10315000DF91CF911F910F91FF90EF90DF90CF9073
:10316000BF90AF909F908F900895FC0181E0808385
:10317000118213821282158214829FEF9683178226
:10318000118610868287138692E09487858716863B
:103190001786108A118A0895CF93DF93EC018885F2
:1031A0009985009711F00E94AF2B8E8187FD05C095
:1031B00060E0DF91CF910C948223DF91CF9108954D
:1031C000CF93DF93EC018E8187FD07C061E00E9401
:1031D000822360E08E810E94BB2381E08983DF919E
:1031E000CF910895EF92FF920F931F93CF93DF93A8
:1031F000EC017B0188859985009711F00E94AF2B27
:103200009D858A85981303C083E090E002C084E026
:1032100090E08E9D80018F9D100D9E9D100D1124BC
:103220001D830C83C8010E94172B998788870097FC
:1032300041F0A80160E070E00E94902DFB82EA82DC
:1032400004C01D821C821B821A82DF91CF911F91C4
:103250000F91FF90EF900895FC0121E09585828504
:10326000981320E0CB0136E0969587953A95E1F7E3
:10327000482F43704587CB0154E0969587955A9522
:10328000E1F7382F33703287CB0196958795969565
:10329000879583708387862F8370848781E06F3F53
:1032A000710511F008F080E0808380859185892B7D
:1032B00051F091E0431390E0921729F062817381FD
:1032C000CF010C94F2180895CF92DF92EF92FF9203
:1032D0000F931F93CF93DF93CDB7DEB729970FB628
:1032E000F894DEBF0FBECDBF8C01DC0118968D9126
:1032F0009C911997892B09F49AC00E94C122F80168
:10330000C684D784E088F1886C197D098E099F09ED
:10331000623371058105910580F3F894848195816C
:103320009A838983A085B1857D01EFEFEE1AFE0AAD
:103330008C918987D8019C9152960D90BC91A02DBB
:10334000F8018489992309F42EC09C91982B9887C1
:103350009C91809589238F838F818E8388E08D83D4
:1033600058856F8149853D812E8189819A81F70138
:103370005C9347FD252F3A952C93262F39F0441F57
:1033800000C000006C93000000C0F2CF38E0419113
:103390006C930000019761F7F801B38BA28B49870A
:1033A0003D832E8338C09C91982B98879C91809563
:1033B00089238F838F818C8388E08B8358856F81ED
:1033C00049853B812C8189819A81F7015C9347FD76
:1033D000252F00C000C02C9300C000C000C000C05A
:1033E00000C06C930000262F3A9541F0441F000066
:1033F00000C000C000C000C000C0E8CF38E041916C
:1034000000C06C9300C0019709F7F801B38BA28B41
:1034100049873B832C839A83898378940E94C122B5
:10342000D8011E966D937D938D939C935197299609
:103430000FB6F894DEBF0FBECDBFDF91CF911F91C5
:103440000F91FF90EF90DF90CF9008951F93CF934F
:10345000DF93EC01162F8981882331F08E8187FD5F
:1034600003C060E00E9482231E838981882341F08B
:1034700061E0812F0E94822360E0812F0E94BB23A4
:10348000812F90E0FC01E250FF4FE491F0E0EE0F5D
:10349000FF1FE45EFE4F259134913B8B2A8BFC018C
:1034A000E651FF4F84918C8BDF91CF911F9108954E
:1034B000EF92FF920F931F93CF93DF931F92CDB79D
:1034C000DEB77C018B01FC01118217821186108608
:1034D00016861786108A118AB90149830E942C1911
:1034E000B801C7010E94F2184981642FC7010F90EB
:1034F000DF91CF911F910F91FF90EF900C94261ABE
:10350000CF92DF92EF92FF920F931F93CF93DF93AF
:10351000FC01828193816817790708F04DC0CA01C8
:10352000AA27BB27182FC32ED42EE52EFF24DC2D6F
:10353000C22F0781002361F0809FC0011124192F41
:10354000C09E60011124DD2D209FC0011124C92FD0
:10355000F5848285A085B185F81208C0CB01880F5B
:10356000991F860F971F8A0F9B1F17C0CB01880FCB
:10357000991F880F991F8A0F9B1F452F5527662774
:103580007727DC01AF0DB11D002329F0409F90018A
:103590001124232F01C0242F2C932285DC01A20F9C
:1035A000B11D1C932385DC01A20FB11DDC93248582
:1035B000FC01E20FF11DC083DF91CF911F910F91AC
:1035C000FF90EF90DF90CF900895962F50E060E04D
:1035D00070E0592B682BCB01BA010895FF920F932D
:1035E0001F93CF93DF93EC01FF24F394F60E2F810A
:1035F000F21679F1088519852150B9F06F3F59F419
:1036000030E040E050E06FEF7FEF80E090E00E941C
:10361000D82AB9010CC08F2D90E0982F88270197E8
:10362000622F70E00E948E2A02C060E070E0F80114
:103630008C819D81AF01401B510B4817590740F405
:103640004081469FC001479F900D11249193F0CF78
:10365000FF82DF91CF911F910F91FF900895FC01A0
:103660004481558160E070E0808591850C94902DB7
:103670000F931F93CF93DF93EC01662359F00E94C1
:10368000B52269837A838B839C83DF91CF911F91CD
:103690000F9108950E94B52209811A812B813C81E6
:1036A000601B710B820B930B6233710581059105D1
:1036B00030F763E070E080E090E00E94E422EACF1F
:1036C00060E00C94381BFC0113AA14AA15AA16AAD0
:1036D0001182128213821482411551056105710510
:1036E00021F0CB01BA010C94E4220895FB01BA0148
:1036F000A901DC01D296FC93EE93D19726E0CF018D
:103700000C94FD241F93CF93DF93EC01162F69E1F6
:1037100072E089A99AA90E9452264AE050E0612FDE
:1037200089A99AA90E94C62660E272E089A99AA98D
:103730000E94522662E370E080E090E0DF91CF913A
:103740001F910C94E4221F93CF93DF93EC01162F6B
:103750008D81882389F189A99AA9DC01ED91FC91D9
:103760000480F581E02D0995892BA9F307C0263740
:10377000310519F12835310509F41D8289A99AA965
:10378000DC01ED91FC910480F581E02D099518167E
:10379000190694F489A99AA9DC01ED91FC9106809F
:1037A000F781E02D09959C01332723363105F9F681
:1037B000612FCE010E94821B83E6DF91CF911F9182
:1037C00008950F931F93CF93DF931F92CDB7DEB76A
:1037D0008C01662349F081E0F801858360E0C8012F
:1037E00049830E94A31B4981F80145830F90DF9113
:1037F000CF911F910F9108954F925F926F927F9298
:103800008F929F92AF92BF92CF92DF92EF92FF92F0
:103810000F931F93CF93DF93CDB7DEB728970FB6E3
:10382000F894DEBF0FBECDBF29833A834B835C8300
:1038300020E030E040E05FE30E94AA290E940D2AC8
:103840009B01AC010E94AA296D837E838F83988798
:10385000C801B7010E94F7272B013C01C601B50141
:103860000E94F7279B01AC01C301B2010E94AA2963
:103870004B015C0120E030E040E05FE369817A8148
:103880008B819C810E94AA290E940D2A2B013C0158
:103890009B01AC01C501B4010E94AA29A3019201B8
:1038A0000E94AA294B015C019B01AC0160E070E021
:1038B00080E89FE30E942C270E94172A2B013C01DD
:1038C000A50194016D817E818F8198850E942D27AD
:1038D0000E94172AA30192010E94A0279B01AC011C
:1038E0000E942D2720E73DE642EC5AE40E94AA29D7
:1038F00020E030E040E450E40E94AA2928960FB668
:10390000F894DEBF0FBECDBFDF91CF911F910F9115
:10391000FF90EF90DF90CF90BF90AF909F908F90EF
:103920007F906F905F904F9008954F925F926F924B
:103930007F92AF92BF92CF92DF92EF92FF920F935E
:103940001F93CF93DF93CDB7DEB760970FB6F89490
:10395000DEBF0FBECDBF2B013C0129833A834B83D1
:103960005C83ED82FE820F83188725E33AEF4EE8F1
:103970005CE3C801B7010E94AA2969877A878B870F
:103980009C8725E33AEF4EE85CE3C301B2010E9455
:10399000AA296D877E878F87988B29813A814B81F1
:1039A0005C81C601B5010E942C2725E33AEF4EE861
:1039B0005CE30E94AA2969837A838B839C83A30199
:1039C0009201C801B7010E942C2725E33AEF4EE887
:1039D0005CE30E94AA29A984BA84CB84DC84ED84A8
:1039E000FE840F85188929813A814B815C810E9470
:1039F000FC1B60960FB6F894DEBF0FBECDBFDF9103
:103A0000CF911F910F91FF90EF90DF90CF90BF90DB
:103A1000AF907F906F905F904F9008954F925F921C
:103A20006F927F928F929F92AF92BF92CF92DF92CE
:103A3000EF92FF920F931F93CF93DF93CDB7DEB733
:103A400064970FB6F894DEBF0FBECDBF2B013C01CB
:103A5000E982FA820B831C83298B3A8B4B8B5C8B1C
:103A60000E94F7276D837E838F839887C801B701F3
:103A70000E940D2A69877A878B879C87C301B201D0
:103A80000E940D2A6D877E878F87988BC801B701AA
:103A90000E94F7272B013C0129893A894B895C89CF
:103AA000C601B5010E942C274B015C010E94F7273B
:103AB00069837A838B839C83C501B4010E940D2A9C
:103AC0004B015C0129853A854B855C856D817E8142
:103AD0008F8198850E94AA296B017C01A301920124
:103AE0006D857E858F8598890E94AA2929813A81D2
:103AF0004B815C810E94AA299B01AC01C701B601E0
:103B00000E942C276B017C01A3019201C501B40125
:103B10000E94AA29A70196010E94A02720E030E078
:103B200044E353E40E94AA292BED3FE049E450E42A
:103B30000E94FA2764960FB6F894DEBF0FBECDBF81
:103B4000DF91CF911F910F91FF90EF90DF90CF9079
:103B5000BF90AF909F908F907F906F905F904F90AD
:103B600008954F925F926F927F92AF92BF92CF92E1
:103B7000DF92EF92FF920F931F93CF93DF93CDB716
:103B8000DEB728970FB6F894DEBF0FBECDBF2B016E
:103B90003C0129833A834B835C83ED82FE820F8351
:103BA0001887C601B50125E33AEF4EE85CE30E94B1
:103BB000AA295B016C0125E33AEF4EE85CE3C801FA
:103BC000B7010E94AA296D837E838F83988725E39E
:103BD0003AEF4EE85CE369817A818B819C810E9497
:103BE000AA2969837A838B839C8325E33AEF4EE885
:103BF0005CE3C301B2010E94AA29ED80FE800F811F
:103C0000188529813A814B815C810E940E1D2B0110
:103C10003C0120E030E0A9010E94F32787FF0AC0A1
:103C200020E030E044EB53E4C301B2010E942D27B1
:103C30002B013C01298D3A8D4B8D5C8DC301B20166
:103C40000E942C272B013C0120E030E0A9010E94BA
:103C5000F32787FF0AC020E030E044EB53E4C301C0
:103C6000B2010E942D272B013C01C301B20128960D
:103C70000FB6F894DEBF0FBECDBFDF91CF911F917D
:103C80000F91FF90EF90DF90CF90BF90AF907F901B
:103C90006F905F904F9008955F926F927F928F9296
:103CA0009F92AF92BF92CF92DF92EF92FF920F93CB
:103CB0001F93CF93DF938C01EB01642E722EFC01D6
:103CC000C080D180E280F38020E030E048EC52E414
:103CD000688179818A819B810E94FA270E946228EB
:103CE000562E20E030E048EC52E4C701B6010E94B5
:103CF000FA270E946228772767FD7095872F972FF4
:103D00000E9495284B015C019B01AC01C701B601E3
:103D10000E942C27F8016083718382839383652D31
:103D2000772767FD7095872F972F0E9495286B0145
:103D30007C019B01AC01688179818A819B810E9411
:103D40002C27688379838A839B8320E030E040E7D7
:103D500052E4F80160817181828193810E94FA2787
:103D60009B01AC01C501B4010E942D27F8016083BD
:103D700071838283938320E030E040E752E46881DE
:103D800079818A819B810E94FA279B01AC01C7013E
:103D9000B6010E942D27688379838A839B836620DE
:103DA00051F0F80180819181A281B381B058808364
:103DB0009183A283B383772049F088819981AA8176
:103DC000BB81B05888839983AA83BB83DF91CF914D
:103DD0001F910F91FF90EF90DF90CF90BF90AF9029
:103DE0009F908F907F906F905F9008950C94B5187E
:103DF0000C94CC180F931F93CF93DF93CDB7DEB7FE
:103E000065970FB6F894DEBF0FBECDBF8C0122E5DB
:103E100030E046E06CE370E0CE0101960E94581A53
:103E200085E1FE013196D80101900D928A95E1F766
:103E3000CE0101960E94CC18C8010E94E01864E1EE
:103E4000C8010E94EE1AC8010E94641984EF91E033
:103E5000F801968B858B81E0878B8FE1808F87E2DD
:103E6000818F86E2828F85E2838F84E2848F83E272
:103E7000858F8BE1868F83E1878F8BE080A383E042
:103E800081A384E082A385E083A386E084A387E006
:103E900085A38FE086A387E187A365960FB6F89484
:103EA000DEBF0FBECDBFDF91CF911F910F9108955F
:103EB0008031910514F04097FBCF97FF02C04096E8
:103EC000FCCF08956F927F929F92AF92BF92CF9254
:103ED000DF92EF92FF920F931F93CF93DF9300D067
:103EE00000D0CDB7DEB73C018B01415051094930BC
:103EF000510508F0FBC14C5C5F4FFA010C94F72AA6
:103F00006EEFB62EB00EE12CF12C0E5F1F4FCB2CB6
:103F1000CE0CDD24C7FCD094FFEFEF1AFF0A0C157E
:103F20001D050CF4E3C140E06FEF80E00E94E51A4C
:103F30009B01AC01C60129833A834B835C830E94B9
:103F4000581F860D971DFC01608D772767FD7095C2
:103F500029813A814B815C81C3010E94801AD7CFAD
:103F60005EEF952E960EE12CF12C5B0182E0A80EFF
:103F7000B11CC92CCE0CDD24C7FCD094FFEFEF1A86
:103F8000FF0A40E06FEFAC14BD040CF484C180E084
:103F90000E94E51A9B01AC01C60129833A834B8339
:103FA0005C830E94581F860D971DFC01608D77274A
:103FB00067FD709529813A814B815C81C3010E9424
:103FC000801AD7CF4EEF942E960EC12CD12C7B01A8
:103FD000F2E0EF0EF11CA92CAC0CBB24A7FCB094B2
:103FE000FFEFCF1ADF0A40E06FEFEA14FB04DCF0CA
:103FF0008FEF0E94E51A9B01AC01C50129833A832A
:104000004B835C830E94581F860D971DFC01608DB9
:10401000772767FD709529813A814B815C81C301C7
:104020000E94801AD8CF80E00E94E51A9B01AC0163
:10403000C70129833A834B835C830E94581F860DF6
:10404000971DFC01608D772767FD709529813A8166
:104050004B815C81C3010E94801A40E06FEF80E0D9
:10406000B1C03EEFB32EB60EE12CF12C0E5F1F4F08
:10407000CB2CCE0CDD24C7FCD094FFEFEF1AFF0A47
:104080000C151D050CF432C140E06FEF8FEF0E945C
:10409000E51A9B01AC01C60129833A834B835C83FB
:1040A0000E94581F860D971DFC01608D772767FDC4
:1040B000709529813A814B815C81C3010E94801AED
:1040C000D7CF2EEF922E960EE12CF12C5B0182E0E1
:1040D000A80EB11CC92CCE0CDD24C7FCD094FFEF78
:1040E000EF1AFF0A40E0AC14BD040CF4D3C06FEF2C
:1040F0008FEF0E94E51A9B01AC01C60129833A8328
:104100004B835C830E94581F860D971DFC01608DB8
:10411000772767FD709529813A814B815C81C301C6
:104120000E94801AD7CF9EEF992E960EC12CD12CCB
:104130007B01F2E0EF0EF11CA92CAC0CBB24A7FC18
:10414000B094FFEFCF1ADF0A40E0EA14FB04E4F07A
:1041500060E08FEF0E94E51A9B01AC01C501298345
:104160003A834B835C830E94581F860D971DFC0188
:10417000608D772767FD709529813A814B815C813D
:10418000C3010E94801AD8CF6FEF8FEF0E94E51A0B
:104190009B01AC01C70129833A834B835C830E9456
:1041A000581F860D971DFC01608D772767FD709560
:1041B00029813A814B815C81C3010E94801A40E0D1
:1041C0006FEF8FEF0E94E51A9B01AC01C8010297C7
:1041D00068C08EEFB82EB60EE12CF12C0E5F1F4F8B
:1041E000CB2CCE0CDD24C7FCD094FFEFEF1AFF0AD6
:1041F0000C151D050CF47AC040E060E08FEF0E94C2
:10420000E51A9B01AC01C60129833A834B835C8389
:104210000E94581F860D971DFC01608D772767FD52
:10422000709529813A814B815C81C3010E94801A7B
:10423000D7CFBB24BA94B60EE12CF12C0F5F1F4FE1
:10424000CB2CCE0CDD24C7FCD094FFEFEF1AFF0A75
:104250000C151D050CF44AC040E060E08FEF0E9491
:10426000E51A9B01AC01C60129833A834B835C8329
:104270000E94581F860D971DFC01608D772767FDF2
:10428000709529813A814B815C81C3010E94801A1B
:10429000D7CF40E060E08FEF0E94E51A9B01AC01B0
:1042A000C80129833A834B835C830E94581F860D83
:1042B000971DFC01608D772767FD709529813A81F4
:1042C0004B815C81C3010F900F900F900F90DF9195
:1042D000CF911F910F91FF90EF90DF90CF90BF9003
:1042E000AF909F907F906F900C94801A0F900F90DA
:1042F0000F900F90DF91CF911F910F91FF90EF9052
:10430000DF90CF90BF90AF909F907F906F90089577
:104310002F923F924F925F926F927F928F929F92D5
:10432000AF92BF92CF92DF92EF92FF920F931F93C3
:10433000CF93DF93EC014A01882777FD8095982F72
:104340001F921F921F9220E12F93A12CB12C650187
:1043500018E6E12EFF24F39400E010E020E030E0C6
:10436000A9010E94E4262B013C011B01882777FD4F
:104370008095982F1F921F9221E02F9328E62F936C
:1043800010E1E12EF12C00E010E020E030E0A90186
:104390000E94E4267E8B6D8B5F894FEF450F8DB7B2
:1043A0009EB708960FB6F8949EBF0FBE8DBF4930DA
:1043B00078F4842F90E0880F991FFC01ED57FD4F92
:1043C00020813181FC01EF58FD4F8081918104C033
:1043D0008AE090E021E030E0881599051CF45F5FE9
:1043E0005F8B04C0821693060CF54F8BCE010E94A2
:1043F0002F1B4F89552747FD5095B201CE010E94D2
:10440000621FCE01DF91CF911F910F91FF90EF902E
:10441000DF90CF90BF90AF909F908F907F906F90E4
:104420005F904F903F902F900C9464199FEF291646
:104430003906E4F6DF91CF911F910F91FF90EF9035
:10444000DF90CF90BF90AF909F908F907F906F90B4
:104450005F904F903F902F900895CF93DF93EC01A2
:1044600061307105E9F064F4672B91F540E06FEF7E
:1044700080E00E94E51A9B01AC0160E070E023C07F
:1044800062307105B9F06330710511F540E06FEFEE
:1044900080E00E94E51A9B01AC0168E170E013C066
:1044A00040E06FEF80E00E94E51A9B01AC0168E0FC
:1044B00070E009C040E06FEF80E00E94E51A9B01C8
:1044C000AC0160E170E0CE01DF91CF910C94801AD5
:1044D000DF91CF9108951F920F920FB60F92112482
:1044E0002F933F938F939F93AF93BF9380918006B9
:1044F00090918106A0918206B091830630917F064B
:1045000023E0230F2D3720F40196A11DB11D05C016
:1045100026E8230F0296A11DB11D20937F068093EC
:10452000800690938106A0938206B09383068091C3
:10453000840690918506A0918606B0918706019623
:10454000A11DB11D8093840690938506A0938606D5
:10455000B0938706BF91AF919F918F913F912F911B
:104560000F900FBE0F901F9018952FB7F894609181
:1045700080067091810680918206909183062FBFFC
:1045800008953FB7F8948091840690918506A09194
:104590008606B091870626B5A89B05C02F3F19F067
:1045A0000196A11DB11D3FBF6627782F892F9A2F35
:1045B000620F711D811D911D42E0660F771F881FDC
:1045C000991F4A95D1F708958F929F92AF92BF920B
:1045D000CF92DF92EF92FF926B017C010E94C12289
:1045E0004B015C01C114D104E104F104F1F00E941B
:1045F0002B270E94C122681979098A099B09683E04
:1046000073408105910570F321E0C21AD108E108D9
:10461000F10888EE880E83E0981EA11CB11CC1141D
:10462000D104E104F10429F7DDCFFF90EF90DF9092
:10463000CF90BF90AF909F908F900895789484B55D
:10464000826084BD84B5816084BD85B5826085BD8E
:1046500085B5816085BDEEE6F0E080818160808374
:10466000E1E8F0E010828081826080838081816057
:104670008083E0E8F0E0808181608083E1EBF0E01E
:10468000808184608083E0EBF0E0808181608083C2
:10469000EAE7F0E0808184608083808182608083AB
:1046A0008081816080838081806880831092C100D6
:1046B0000895833081F028F4813099F08230A1F0A0
:1046C00008958730A9F08830B9F08430D1F4809112
:1046D00080008F7D03C0809180008F778093800061
:1046E000089584B58F7702C084B58F7D84BD089509
:1046F0008091B0008F7703C08091B0008F7D809350
:10470000B0000895CF93DF9390E0FC01E651FF4F96
:104710002491FC01E250FF4F8491882349F190E0FD
:10472000880F991FFC01EA5DFE4FA591B491845E4C
:104730009E4FFC01C591D4919FB7611108C0F894B8
:104740008C91209582238C93888182230AC06230C9
:1047500051F4F8948C91322F309583238C93888177
:10476000822B888304C0F8948C91822B8C939FBFFA
:10477000DF91CF9108950F931F93CF93DF931F92F3
:10478000CDB7DEB7282F30E0F901EA52FF4F849110
:10479000F901E651FF4F1491F901E250FF4F0491E6
:1047A0000023C9F0882321F069830E94592369817D
:1047B000E02FF0E0EE0FFF1FE45EFE4FA591B491F5
:1047C0009FB7F8948C91611103C01095812301C0AB
:1047D000812B8C939FBF0F90DF91CF911F910F91F1
:1047E0000895CF93DF93282F30E0F901EA52FF4F6D
:1047F0008491F901E651FF4FD491F901E250FF4F46
:10480000C491CC2391F081110E945923EC2FF0E048
:10481000EE0FFF1FEE5EFE4FA591B4912C912D235C
:1048200081E090E021F480E002C080E090E0DF9140
:10483000CF910895FC01818D228D90E0805C9F4F87
:10484000821B91098F7399270895FC01918D828DA8
:10485000981731F0828DE80FF11D858D90E0089555
:104860008FEF9FEF0895FC01918D828D981761F075
:10487000828DDF01A80FB11D5D968C91928D9F5F97
:104880009F73928F90E008958FEF9FEF089587EBCD
:1048900095E2892B49F080E090E0892B29F00E9475
:1048A000B72581110C9400000895FC01848DDF016F
:1048B000A80FB11DA35ABF4F2C91848D90E0019693
:1048C0008F739927848FA689B7892C93A089B18982
:1048D0008C9180648C93938D848D981306C002888C
:1048E000F389E02D80818F7D80830895CF93DF93BE
:1048F000EC01888D8823C9F0EA89FB89808185FDD8
:1049000005C0A889B9898C9186FD0FC00FB607FC38
:10491000F5CF808185FFF2CFA889B9898C9185FF79
:10492000EDCFCE010E945524E7CFDF91CF910895BE
:10493000CF92DF92FF920F931F93CF93DF931F923B
:10494000CDB7DEB76C0181E0D60158968C935897AD
:104950005B969C915B975C968C915C97981307C0D3
:104960005096ED91FC915197808185FD2EC0F60106
:10497000038D10E00F5F1F4F0F731127F02EF6010C
:10498000848DF81211C00FB607FCF9CFD6015096EE
:10499000ED91FC915197808185FFF1CFC60169832C
:1049A0000E9455246981EBCF838DE80FF11DE35AF6
:1049B000FF4F6083D6015B960C935B975296ED9107
:1049C000FC915397808180620CC0D6015696ED9180
:1049D000FC91579760835096ED91FC91519780819F
:1049E0008064808381E090E00F90DF91CF911F91F0
:1049F0000F91FF90DF90CF900895BF92CF92DF92FA
:104A0000EF92FF92CF93DF93EC016A017B01B22E0C
:104A1000E889F98982E08083411581EE58076105B4
:104A20007105A1F060E079E08DE390E0A7019601C7
:104A30000E94B62A215031094109510956954795DE
:104A400037952795211580E1380798F0E889F9898D
:104A5000108260E874E88EE190E0A70196010E9460
:104A6000B62A215031094109510956954795379584
:104A70002795EC85FD853083EE85FF852083188E94
:104A8000EC89FD89B082EA89FB898081806180831D
:104A9000EA89FB89808188608083EA89FB8980813B
:104AA00080688083EA89FB8980818F7D8083DF91A4
:104AB000CF91FF90EF90DF90CF90BF9008951F921D
:104AC0000F920FB60F9211242F938F939F93EF9312
:104AD000FF93E0919806F09199068081E0919E06FF
:104AE000F0919F0682FD12C090818091A1068F5F98
:104AF0008F732091A206821751F0E091A106F0E099
:104B0000E857F94F958F8093A10601C08081FF91EE
:104B1000EF919F918F912F910F900FBE0F901F904B
:104B200018951F920F920FB60F9211242F933F9357
:104B30004F935F936F937F938F939F93AF93BF93A5
:104B4000EF93FF9388E896E00E945524FF91EF9140
:104B5000BF91AF919F918F917F916F915F914F9195
:104B60003F912F910F900FBE0F901F90189588E8DE
:104B700096E00E941A2421E0892B09F420E0822F7C
:104B8000089510928B0610928A0688EE93E0A0E0BA
:104B9000B0E080938C0690938D06A0938E06B09320
:104BA0008F0689E992E0909389068093880685ECC8
:104BB00090E0909395068093940684EC90E0909317
:104BC00097068093960680EC90E0909399068093E8
:104BD000980681EC90E090939B0680939A0682EC75
:104BE00090E090939D0680939C0686EC90E09093D5
:104BF0009F0680939E061092A1061092A206109224
:104C0000A3061092A406089508950E941E230E94F0
:104C100004260E942701C7E4D4E20E94450220979F
:104C2000E1F30E944724F9CFCF92DF92EF92FF92F7
:104C30000F931F93CF93DF937C016A01EB0100E098
:104C400010E00C151D0571F06991D701ED91FC91F3
:104C50000190F081E02DC7010995892B19F00F5FB4
:104C60001F4FEFCFC801DF91CF911F910F91FF90A0
:104C7000EF90DF90CF9008956115710581F0DB0111
:104C80000D900020E9F7AD0141505109461B570B2B
:104C9000DC01ED91FC910280F381E02D099480E02C
:104CA00090E008950C943C2666E272E00C943C2659
:104CB0000F931F93CF93DF93EC010E943C268C014E
:104CC000CE010E945426800F911FDF91CF911F913A
:104CD0000F9108958F929F92AF92BF92DF92EF92C1
:104CE000FF920F931F93CF93DF93CDB7DEB7A197BA
:104CF0000FB6F894DEBF0FBECDBF7C01F42FD52ECA
:104D0000CB0119A2223008F42AE08E010F5D1F4F5B
:104D1000822E912CA12CB12C6F2F7D2DA5019401F9
:104D20000E94B62AF22FD32ECA01015011096A300F
:104D300014F4E0E301C0E7E3E60FD801EC93232B82
:104D4000242B252B49F7B801C7010E943C26A196C8
:104D50000FB6F894DEBF0FBECDBFDF91CF911F918C
:104D60000F91FF90EF90DF90BF90AF909F908F904A
:104D700008952115310541F4DC01ED91FC9101907C
:104D8000F081E02D642F09940C946A269A01462F35
:104D900050E060E070E00C94B9260F931F93CF931E
:104DA000DF93EC019A01462F50E060E070E00E9432
:104DB000B9268C01CE010E945426800F911FDF91ED
:104DC000CF911F910F9108954F925F926F927F92B2
:104DD000AF92BF92CF92DF92EF92FF920F931F9309
:104DE000CF93DF93CDB7DEB729013A01621B730B76
:104DF000840B950B29893A894B895C892A193B09CF
:104E00004C095D09298B3A8B4B8B5C8B9B01AC0168
:104E100069897A898B899C890E947E2AE418F50821
:104E200006091709A80197010E94D82A2A0D3B1DDF
:104E30004C1D5D1DCA01B901DF91CF911F910F91EA
:104E4000FF90EF90DF90CF90BF90AF907F906F90EA
:104E50005F904F90089508955058BB27AA270ED011
:104E600027C2F0D130F0F5D120F031F49F3F11F49A
:104E70001EF4C0C10EF4E095E7FBB6C1E92F3AD2AB
:104E800080F3BA17620773078407950718F071F467
:104E90009EF552C20EF4E0950B2EBA2FA02D0B01F9
:104EA000B90190010C01CA01A0011124FF27591B6F
:104EB00099F0593F50F4503E68F11A16F040A22F75
:104EC000232F342F4427585FF3CF469537952795E6
:104ED000A795F0405395C9F77EF41F16BA0B620BE5
:104EE000730B840BBAF09150A1F0FF0FBB1F661F2C
:104EF000771F881FC2F70EC0BA0F621F731F841F6F
:104F000048F4879577956795B795F7959E3F08F094
:104F1000B3CF9395880F08F09927EE0F9795879553
:104F2000089590D158F080E891E009F49EEF91D176
:104F300028F040E851E059F45EEF09C05BC1FCC1C4
:104F4000E92FE078D7D168F3092E052AC1F3261797
:104F500037074807590738F00E2E07F8E02569F0A3
:104F6000E025E0640AC0EF6307F8009407FADB016C
:104F7000B9019D01DC01CA01AD01EF934AD098D17E
:104F80000AD05F91552331F02BED3FE049E450FD0D
:104F900049EC63CF0895DF93DD27B92FBF7740E851
:104FA0005FE31616170648075B0710F4D92FCBD11D
:104FB0009F938F937F936F9378D2EAE7F0E01DD1B0
:104FC00077D12F913F914F915F91D0D1DD2349F05F
:104FD0009058A2EA2AED3FE049EC5FE3D0785D27E4
:104FE0004DDFDF9165C1DCD008F481E0089539D14F
:104FF000E3956FC10CD05CC12CD140F023D130F0CF
:1050000021F45F3F19F0F0C0511197C1F3C072D184
:1050100098F39923C9F35523B1F3951B550BBB277F
:10502000AA2762177307840738F09F5F5F4F220F2C
:10503000331F441FAA1FA9F333D00E2E3AF0E0E825
:1050400030D091505040E695001CCAF729D0FE2F71
:1050500027D0660F771F881FBB1F26173707480703
:10506000AB07B0E809F0BB0B802DBF01FF279358B9
:105070005F4F2AF09E3F510568F0B6C05EC15F3FAA
:10508000ECF3983EDCF3869577956795B795F795A1
:105090009F5FC9F7880F911D9695879597F9089599
:1050A000E1E0660F771F881FBB1F62177307840735
:1050B000BA0720F0621B730B840BBA0BEE1F88F744
:1050C000E095089504D06894B11137C108951AD1BC
:1050D00088F09F5790F0B92F9927B751A0F0D1F0E1
:1050E000660F771F881F991F1AF0BA95C9F712C06B
:1050F000B13081F021D1B1E008951EC1672F782F22
:105100008827B85F39F0B93FCCF3869577956795D6
:10511000B395D9F73EF490958095709561957F4F42
:105120008F4F9F4F0895E89409C097FB3EF49095E8
:105130008095709561957F4F8F4F9F4F9923A9F070
:10514000F92F96E9BB279395F695879577956795FF
:10515000B795F111F8CFFAF4BB0F11F460FF1BC043
:105160006F5F7F4F8F4F9F4F16C0882311F096E9D6
:1051700011C0772321F09EE8872F762F05C0662384
:1051800071F096E8862F70E060E02AF09A95660F3D
:10519000771F881FDAF7880F9695879597F90895F6
:1051A000990F0008550FAA0BE0E8FEEF1616170638
:1051B000E807F907C0F012161306E407F50798F0A0
:1051C000621B730B840B950B39F40A2661F0232BB9
:1051D000242B252B21F408950A2609F4A140A69535
:1051E0008FEF811D811D089597F99F6780E870E01A
:1051F00060E008959FEF80EC0895DF93CF931F93B5
:105200000F93FF92EF92DF927B018C01689405C0AF
:10521000DA2EEF01ABD0FE01E894A59125913591EE
:1052200045915591AEF3EF0129DEFE019701A801EA
:10523000DA9479F7DF90EF90FF900F911F91CF9163
:10524000DF91089500240A94161617061806090619
:10525000089500240A9412161306140605060895EC
:10526000C9CF50D0E8F3E894E0E0BB279F57F0F0B7
:105270002AED3FE049EC06C0EE0FBB0F661F771F1B
:10528000881F28F0B23A62077307840728F0B25AE1
:10529000620B730B840BE3959A9572F7803830F4A8
:1052A0009A95BB0F661F771F881FD2F7904802C1DF
:1052B000092E0394000C11F4882352F0BB0F40F424
:1052C000BF2B11F460FF04C06F5F7F4F8F4F9F4F64
:1052D0000895EF93E0FF06C0A2EA2AED3FE049EC13
:1052E0005FEBCCDDE5DF0F90039401FC9058E7EA1B
:1052F000F0E0F3C057FD9058440F551F59F05F3F41
:1053000071F04795880F97FB991F61F09F3F79F0E7
:1053100087950895121613061406551FF2CF469569
:10532000F1DF08C0161617061806991FF1CF8695EB
:105330007105610508940895E894BB2766277727CF
:10534000CB0197F908959B01AC0160E070E080E823
:105350009FE350CE0BD0ACCF75DF28F07ADF18F08A
:10536000952309F041CF46CF1124E7CFC3DFA0F347
:10537000959FD1F3950F50E0551F629FF001729FEA
:10538000BB27F00DB11D639FAA27F00DB11DAA1F09
:10539000649F6627B00DA11D661F829F2227B00D56
:1053A000A11D621F739FB00DA11D621F839FA00DE1
:1053B000611D221F749F3327A00D611D231F849F31
:1053C000600D211D822F762F6A2F11249F57504088
:1053D0008AF0E1F088234AF0EE0FFF1FBB1F661F23
:1053E000771F881F91505040A9F79E3F510570F0DC
:1053F000FBCEA3CF5F3FECF3983EDCF38695779529
:105400006795B795F795E7959F5FC1F7FE2B880FD6
:10541000911D9695879597F908959F9322DF0F9098
:1054200007FCEE5F56CF11F40EF4E4CE41C06ADF04
:10543000D0F39923D9F3CEF39F57550B87FF46D06E
:105440000024A0E640EA900180585695979528F4EC
:10545000805C660F771F881F20F0261737074807E4
:1054600030F4621B730B840B202931294A2BA6953B
:1054700017940794202531254A2758F7660F771F80
:10548000881F20F026173707480730F4620B730B8C
:10549000840B200D311D411DA09581F7B901842F8A
:1054A0009158880F9695879508959B01AC0152CF2E
:1054B0009F3F31F0915020F4879577956795B79588
:1054C000880F911D9695879597F9089591505040B2
:1054D000660F771F881FD2F708959F938F937F934E
:1054E0006F93FF93EF939B01AC0134DFEF91FF913A
:1054F00084DE2F913F914F915F912CCFDB018F93F1
:105500009F930E94FD2ABF91AF91A29F800D911D94
:10551000A39F900DB29F900D11240895AA1BBB1B51
:1055200051E107C0AA1FBB1FA617B70710F0A61BA3
:10553000B70B881F991F5A95A9F780959095BC01C4
:10554000CD01089597FB072E16F4009407D077FD40
:1055500009D00E948E2A07FC05D03EF490958195D3
:105560009F4F0895709561957F4F0895A1E21A2E7F
:10557000AA1BBB1BFD010DC0AA1FBB1FEE1FFF1FF7
:10558000A217B307E407F50720F0A21BB30BE40B47
:10559000F50B661F771F881F991F1A9469F760958E
:1055A0007095809590959B01AC01BD01CF01089548
:1055B000052E97FB1EF400940E94EF2A57FD07D09A
:1055C0000E94B62A07FC03D04EF40C94EF2A5095A3
:1055D0004095309521953F4F4F4F5F4F08959095DF
:1055E0008095709561957F4F8F4F9F4F0895EE0F77
:1055F000FF1F0590F491E02D09940E94082BA59FB0
:10560000900DB49F900DA49F800D911D11240895BD
:10561000A29FB001B39FC001A39F700D811D1124F3
:10562000911DB29F700D811D1124911D0895CF937E
:10563000DF938230910510F482E090E0E09127073B
:10564000F091280720E030E0A0E0B0E0309739F199
:105650004081518148175907B8F04817590771F42C
:1056600082819381109729F013969C938E931297C1
:105670002CC0909328078093270727C02115310558
:1056800031F04217530718F0A901DB0101C0EF0107
:105690009A01BD01DF010280F381E02DD7CF2115F2
:1056A0003105F9F0281B390B2430310580F48A814B
:1056B0009B816115710521F0FB019383828304C0F6
:1056C0009093280780932707FE01329644C0FE017D
:1056D000E20FF31F8193919322503109398328837C
:1056E0003AC02091250730912607232B41F42091C1
:1056F0000201309103013093260720932507209162
:105700000001309101012115310541F42DB73EB75B
:105710004091040150910501241B350BE0912507B0
:10572000F0912607E217F307A0F42E1B3F0B281772
:10573000390778F0AC014E5F5F4F2417350748F00A
:105740004E0F5F1F50932607409325078193919337
:1057500002C0E0E0F0E0CF01DF91CF910895CF9358
:10576000DF93009709F487C0FC01329713821282FD
:10577000C0912707D0912807209781F4208131819B
:10578000280F391F809125079091260782179307CC
:1057900079F5F0932607E09325076DC0DE0120E040
:1057A00030E0AE17BF0750F412964D915C911397FD
:1057B0009D014115510509F1DA01F3CFB383A283AD
:1057C00040815181840F951F8A179B0771F48D9139
:1057D0009C911197840F951F029691838083129656
:1057E0008D919C911397938382832115310529F420
:1057F000F0932807E09327073EC0D9011396FC9346
:10580000EE9312974D915D91A40FB51FEA17FB0718
:1058100079F480819181840F951F0296D9011196A8
:105820009C938E938281938113969C938E9312976F
:10583000E0E0F0E08A819B81009719F0FE01EC0125
:10584000F9CFCE01029628813981820F931F2091D2
:105850002507309126072817390769F4309729F46E
:10586000109228071092270702C013821282D09349
:105870002607C0932507DF91CF9108952F923F927D
:105880005F926F927F928F929F92AF92BF92CF92D0
:10589000DF92EF92FF920F931F93CF93DF938B01D1
:1058A000EA016115710521F0DB018C9311969C933F
:1058B000209739F09E01225031092332310508F03A
:1058C000FBC07C016701BFEFCB1ADB0A5601F70171
:1058D0006080862D90E00E94762D892B11F0760154
:1058E000F1CFFDE26F120AC0570182E0A80EB11C91
:1058F000D70111966C90772473940BC0BBE26B12A6
:1059000007C05701E2E0AE0EB11CD70111966C90B2
:10591000712CCE018F7E892B89F4B0E36B1222C0EB
:10592000F50180818F7D883541F56180F2E0AF0E11
:10593000B11C872D8260782EC0E1D0E0C830D1053F
:10594000F1F04CF4C230D10511F5C12CD12CE12C71
:10595000B0E4FB2E2FC0CA30D10531F0C031D105E3
:1059600021F115C0209751F7CAE0D0E0ACECCA2E67
:10597000DC2CEC2CACE0FA2E1DC02097F9F6C8E028
:10598000D0E0C12CD12CE12CF0E1FF2E13C060E05F
:1059900070E080E090E89E01442737FD4095542F49
:1059A0000E94B62A69017A0105C0C12CD12CE12CD4
:1059B000E8E0FE2EF50160E020E030E0A9014E01B4
:1059C000AA2497FCA094BA2C1F0170ED572E560CF8
:1059D000A9E0A51570F48FEB860D8A3118F499ECC7
:1059E000592E06C08FE9860D8A3130F589EA582E86
:1059F000560C852D90E08C179D07F4F467FD18C0B8
:105A0000C216D306E406F50680F0C501B4010E9473
:105A10007E2A9B01AC01250D311D411D511D2130F8
:105A200031054105B0E85B0710F06FEF01C061E0A0
:105A30003196D1016C90C8CF872D81700115110569
:105A400071F0662329F03197D801ED93FC9307C0DC
:105A500071FE19C03297D801ED93FC9314C067FF13
:105A600012C0882329F020E030E040E050E804C074
:105A70002FEF3FEF4FEF5FE782E290E090932A072E
:105A80008093290716C0882341F0509540953095A2
:105A900021953F4F4F4F5F4F0CC057FF0AC082E226
:105AA00090E090932A07809329072FEF3FEF4FEF65
:105AB0005FE7B901CA0104C060E070E080E090E0F7
:105AC000DF91CF911F910F91FF90EF90DF90CF90DA
:105AD000BF90AF909F908F907F906F905F903F901E
